{
	"ArcenticMultiPool.sol": {
		"ArcenticMultiPool": {
			"abi": [
				{
					"inputs": [],
					"stateMutability": "nonpayable",
					"type": "constructor"
				},
				{
					"inputs": [
						{
							"internalType": "address",
							"name": "_token",
							"type": "address"
						},
						{
							"internalType": "uint256",
							"name": "_amount",
							"type": "uint256"
						}
					],
					"name": "addLiquidity",
					"outputs": [],
					"stateMutability": "nonpayable",
					"type": "function"
				},
				{
					"inputs": [
						{
							"internalType": "address",
							"name": "_token",
							"type": "address"
						},
						{
							"internalType": "uint256",
							"name": "_amount",
							"type": "uint256"
						}
					],
					"name": "emergencyWithdraw",
					"outputs": [],
					"stateMutability": "nonpayable",
					"type": "function"
				},
				{
					"inputs": [
						{
							"internalType": "address",
							"name": "",
							"type": "address"
						},
						{
							"internalType": "address",
							"name": "",
							"type": "address"
						}
					],
					"name": "lpBalance",
					"outputs": [
						{
							"internalType": "uint256",
							"name": "",
							"type": "uint256"
						}
					],
					"stateMutability": "view",
					"type": "function"
				},
				{
					"inputs": [],
					"name": "owner",
					"outputs": [
						{
							"internalType": "address",
							"name": "",
							"type": "address"
						}
					],
					"stateMutability": "view",
					"type": "function"
				},
				{
					"inputs": [
						{
							"internalType": "address",
							"name": "_token",
							"type": "address"
						},
						{
							"internalType": "uint256",
							"name": "_amount",
							"type": "uint256"
						}
					],
					"name": "removeLiquidity",
					"outputs": [],
					"stateMutability": "nonpayable",
					"type": "function"
				},
				{
					"inputs": [
						{
							"internalType": "address",
							"name": "",
							"type": "address"
						}
					],
					"name": "reserves",
					"outputs": [
						{
							"internalType": "uint256",
							"name": "",
							"type": "uint256"
						}
					],
					"stateMutability": "view",
					"type": "function"
				},
				{
					"inputs": [
						{
							"internalType": "address",
							"name": "_tokenIn",
							"type": "address"
						},
						{
							"internalType": "address",
							"name": "_tokenOut",
							"type": "address"
						},
						{
							"internalType": "uint256",
							"name": "_amountIn",
							"type": "uint256"
						}
					],
					"name": "swap",
					"outputs": [
						{
							"internalType": "uint256",
							"name": "amountOut",
							"type": "uint256"
						}
					],
					"stateMutability": "nonpayable",
					"type": "function"
				}
			],
			"devdoc": {
				"kind": "dev",
				"methods": {},
				"version": 1
			},
			"evm": {
				"assembly": "    /* \"ArcenticMultiPool.sol\":263:2467  contract ArcenticMultiPool {... */\n  mstore(0x40, 0x80)\n    /* \"ArcenticMultiPool.sol\":689:738  constructor() {... */\n  callvalue\n  dup1\n  iszero\n  tag_1\n  jumpi\n  revert(0x00, 0x00)\ntag_1:\n  pop\n    /* \"ArcenticMultiPool.sol\":721:731  msg.sender */\n  caller\n    /* \"ArcenticMultiPool.sol\":713:718  owner */\n  0x00\n  0x00\n    /* \"ArcenticMultiPool.sol\":713:731  owner = msg.sender */\n  0x0100\n  exp\n  dup2\n  sload\n  dup2\n  0xffffffffffffffffffffffffffffffffffffffff\n  mul\n  not\n  and\n  swap1\n  dup4\n  0xffffffffffffffffffffffffffffffffffffffff\n  and\n  mul\n  or\n  swap1\n  sstore\n  pop\n    /* \"ArcenticMultiPool.sol\":263:2467  contract ArcenticMultiPool {... */\n  dataSize(sub_0)\n  dup1\n  dataOffset(sub_0)\n  0x00\n  codecopy\n  0x00\n  return\nstop\n\nsub_0: assembly {\n        /* \"ArcenticMultiPool.sol\":263:2467  contract ArcenticMultiPool {... */\n      mstore(0x40, 0x80)\n      callvalue\n      dup1\n      iszero\n      tag_1\n      jumpi\n      revert(0x00, 0x00)\n    tag_1:\n      pop\n      jumpi(tag_2, lt(calldatasize, 0x04))\n      shr(0xe0, calldataload(0x00))\n      dup1\n      0x95ccea67\n      gt\n      tag_10\n      jumpi\n      dup1\n      0x95ccea67\n      eq\n      tag_6\n      jumpi\n      dup1\n      0xa201ccf6\n      eq\n      tag_7\n      jumpi\n      dup1\n      0xd66bd524\n      eq\n      tag_8\n      jumpi\n      dup1\n      0xdf791e50\n      eq\n      tag_9\n      jumpi\n      jump(tag_2)\n    tag_10:\n      dup1\n      0x019aa802\n      eq\n      tag_3\n      jumpi\n      dup1\n      0x56688700\n      eq\n      tag_4\n      jumpi\n      dup1\n      0x8da5cb5b\n      eq\n      tag_5\n      jumpi\n    tag_2:\n      revert(0x00, 0x00)\n        /* \"ArcenticMultiPool.sol\":522:586  mapping(address => mapping(address => uint256)) public lpBalance */\n    tag_3:\n      tag_11\n      0x04\n      dup1\n      calldatasize\n      sub\n      dup2\n      add\n      swap1\n      tag_12\n      swap2\n      swap1\n      tag_13\n      jump\t// in\n    tag_12:\n      tag_14\n      jump\t// in\n    tag_11:\n      mload(0x40)\n      tag_15\n      swap2\n      swap1\n      tag_16\n      jump\t// in\n    tag_15:\n      mload(0x40)\n      dup1\n      swap2\n      sub\n      swap1\n      return\n        /* \"ArcenticMultiPool.sol\":779:1062  function addLiquidity(address _token, uint256 _amount) external {... */\n    tag_4:\n      tag_17\n      0x04\n      dup1\n      calldatasize\n      sub\n      dup2\n      add\n      swap1\n      tag_18\n      swap2\n      swap1\n      tag_19\n      jump\t// in\n    tag_18:\n      tag_20\n      jump\t// in\n    tag_17:\n      stop\n        /* \"ArcenticMultiPool.sol\":339:359  address public owner */\n    tag_5:\n      tag_21\n      tag_22\n      jump\t// in\n    tag_21:\n      mload(0x40)\n      tag_23\n      swap2\n      swap1\n      tag_24\n      jump\t// in\n    tag_23:\n      mload(0x40)\n      dup1\n      swap2\n      sub\n      swap1\n      return\n        /* \"ArcenticMultiPool.sol\":2330:2465  function emergencyWithdraw(address _token, uint256 _amount) external onlyOwner {... */\n    tag_6:\n      tag_25\n      0x04\n      dup1\n      calldatasize\n      sub\n      dup2\n      add\n      swap1\n      tag_26\n      swap2\n      swap1\n      tag_19\n      jump\t// in\n    tag_26:\n      tag_27\n      jump\t// in\n    tag_25:\n      stop\n        /* \"ArcenticMultiPool.sol\":1143:1572  function removeLiquidity(address _token, uint256 _amount) external {... */\n    tag_7:\n      tag_28\n      0x04\n      dup1\n      calldatasize\n      sub\n      dup2\n      add\n      swap1\n      tag_29\n      swap2\n      swap1\n      tag_19\n      jump\t// in\n    tag_29:\n      tag_30\n      jump\t// in\n    tag_28:\n      stop\n        /* \"ArcenticMultiPool.sol\":397:440  mapping(address => uint256) public reserves */\n    tag_8:\n      tag_31\n      0x04\n      dup1\n      calldatasize\n      sub\n      dup2\n      add\n      swap1\n      tag_32\n      swap2\n      swap1\n      tag_33\n      jump\t// in\n    tag_32:\n      tag_34\n      jump\t// in\n    tag_31:\n      mload(0x40)\n      tag_35\n      swap2\n      swap1\n      tag_16\n      jump\t// in\n    tag_35:\n      mload(0x40)\n      dup1\n      swap2\n      sub\n      swap1\n      return\n        /* \"ArcenticMultiPool.sol\":1653:2267  function swap(address _tokenIn, address _tokenOut, uint256 _amountIn) external returns (uint256 amountOut) {... */\n    tag_9:\n      tag_36\n      0x04\n      dup1\n      calldatasize\n      sub\n      dup2\n      add\n      swap1\n      tag_37\n      swap2\n      swap1\n      tag_38\n      jump\t// in\n    tag_37:\n      tag_39\n      jump\t// in\n    tag_36:\n      mload(0x40)\n      tag_40\n      swap2\n      swap1\n      tag_16\n      jump\t// in\n    tag_40:\n      mload(0x40)\n      dup1\n      swap2\n      sub\n      swap1\n      return\n        /* \"ArcenticMultiPool.sol\":522:586  mapping(address => mapping(address => uint256)) public lpBalance */\n    tag_14:\n      mstore(0x20, 0x02)\n      dup2\n      0x00\n      mstore\n      mstore(0x20, keccak256(0x00, 0x40))\n      dup1\n      0x00\n      mstore\n      keccak256(0x00, 0x40)\n      0x00\n      swap2\n      pop\n      swap2\n      pop\n      pop\n      sload\n      dup2\n      jump\t// out\n        /* \"ArcenticMultiPool.sol\":779:1062  function addLiquidity(address _token, uint256 _amount) external {... */\n    tag_20:\n        /* \"ArcenticMultiPool.sol\":871:872  0 */\n      0x00\n        /* \"ArcenticMultiPool.sol\":861:868  _amount */\n      dup2\n        /* \"ArcenticMultiPool.sol\":861:872  _amount > 0 */\n      gt\n        /* \"ArcenticMultiPool.sol\":853:895  require(_amount > 0, \"Amount must be > 0\") */\n      tag_42\n      jumpi\n      mload(0x40)\n      0x08c379a000000000000000000000000000000000000000000000000000000000\n      dup2\n      mstore\n      0x04\n      add\n      tag_43\n      swap1\n      tag_44\n      jump\t// in\n    tag_43:\n      mload(0x40)\n      dup1\n      swap2\n      sub\n      swap1\n      revert\n    tag_42:\n        /* \"ArcenticMultiPool.sol\":912:918  _token */\n      dup2\n        /* \"ArcenticMultiPool.sol\":905:932  IERC20(_token).transferFrom */\n      0xffffffffffffffffffffffffffffffffffffffff\n      and\n      0x23b872dd\n        /* \"ArcenticMultiPool.sol\":933:943  msg.sender */\n      caller\n        /* \"ArcenticMultiPool.sol\":953:957  this */\n      address\n        /* \"ArcenticMultiPool.sol\":960:967  _amount */\n      dup5\n        /* \"ArcenticMultiPool.sol\":905:968  IERC20(_token).transferFrom(msg.sender, address(this), _amount) */\n      mload(0x40)\n      dup5\n      0xffffffff\n      and\n      0xe0\n      shl\n      dup2\n      mstore\n      0x04\n      add\n      tag_45\n      swap4\n      swap3\n      swap2\n      swap1\n      tag_46\n      jump\t// in\n    tag_45:\n      0x20\n      mload(0x40)\n      dup1\n      dup4\n      sub\n      dup2\n      0x00\n      dup8\n      gas\n      call\n      iszero\n      dup1\n      iszero\n      tag_48\n      jumpi\n      returndatacopy(0x00, 0x00, returndatasize)\n      revert(0x00, returndatasize)\n    tag_48:\n      pop\n      pop\n      pop\n      pop\n      mload(0x40)\n      returndatasize\n      not(0x1f)\n      0x1f\n      dup3\n      add\n      and\n      dup3\n      add\n      dup1\n      0x40\n      mstore\n      pop\n      dup2\n      add\n      swap1\n      tag_49\n      swap2\n      swap1\n      tag_50\n      jump\t// in\n    tag_49:\n      pop\n        /* \"ArcenticMultiPool.sol\":998:1005  _amount */\n      dup1\n        /* \"ArcenticMultiPool.sol\":978:986  reserves */\n      0x01\n        /* \"ArcenticMultiPool.sol\":978:994  reserves[_token] */\n      0x00\n        /* \"ArcenticMultiPool.sol\":987:993  _token */\n      dup5\n        /* \"ArcenticMultiPool.sol\":978:994  reserves[_token] */\n      0xffffffffffffffffffffffffffffffffffffffff\n      and\n      0xffffffffffffffffffffffffffffffffffffffff\n      and\n      dup2\n      mstore\n      0x20\n      add\n      swap1\n      dup2\n      mstore\n      0x20\n      add\n      0x00\n      keccak256\n      0x00\n        /* \"ArcenticMultiPool.sol\":978:1005  reserves[_token] += _amount */\n      dup3\n      dup3\n      sload\n      tag_51\n      swap2\n      swap1\n      tag_52\n      jump\t// in\n    tag_51:\n      swap3\n      pop\n      pop\n      dup2\n      swap1\n      sstore\n      pop\n        /* \"ArcenticMultiPool.sol\":1048:1055  _amount */\n      dup1\n        /* \"ArcenticMultiPool.sol\":1015:1024  lpBalance */\n      0x02\n        /* \"ArcenticMultiPool.sol\":1015:1036  lpBalance[msg.sender] */\n      0x00\n        /* \"ArcenticMultiPool.sol\":1025:1035  msg.sender */\n      caller\n        /* \"ArcenticMultiPool.sol\":1015:1036  lpBalance[msg.sender] */\n      0xffffffffffffffffffffffffffffffffffffffff\n      and\n      0xffffffffffffffffffffffffffffffffffffffff\n      and\n      dup2\n      mstore\n      0x20\n      add\n      swap1\n      dup2\n      mstore\n      0x20\n      add\n      0x00\n      keccak256\n        /* \"ArcenticMultiPool.sol\":1015:1044  lpBalance[msg.sender][_token] */\n      0x00\n        /* \"ArcenticMultiPool.sol\":1037:1043  _token */\n      dup5\n        /* \"ArcenticMultiPool.sol\":1015:1044  lpBalance[msg.sender][_token] */\n      0xffffffffffffffffffffffffffffffffffffffff\n      and\n      0xffffffffffffffffffffffffffffffffffffffff\n      and\n      dup2\n      mstore\n      0x20\n      add\n      swap1\n      dup2\n      mstore\n      0x20\n      add\n      0x00\n      keccak256\n      0x00\n        /* \"ArcenticMultiPool.sol\":1015:1055  lpBalance[msg.sender][_token] += _amount */\n      dup3\n      dup3\n      sload\n      tag_53\n      swap2\n      swap1\n      tag_52\n      jump\t// in\n    tag_53:\n      swap3\n      pop\n      pop\n      dup2\n      swap1\n      sstore\n      pop\n        /* \"ArcenticMultiPool.sol\":779:1062  function addLiquidity(address _token, uint256 _amount) external {... */\n      pop\n      pop\n      jump\t// out\n        /* \"ArcenticMultiPool.sol\":339:359  address public owner */\n    tag_22:\n      0x00\n      0x00\n      swap1\n      sload\n      swap1\n      0x0100\n      exp\n      swap1\n      div\n      0xffffffffffffffffffffffffffffffffffffffff\n      and\n      dup2\n      jump\t// out\n        /* \"ArcenticMultiPool.sol\":2330:2465  function emergencyWithdraw(address _token, uint256 _amount) external onlyOwner {... */\n    tag_27:\n        /* \"ArcenticMultiPool.sol\":646:651  owner */\n      0x00\n      0x00\n      swap1\n      sload\n      swap1\n      0x0100\n      exp\n      swap1\n      div\n      0xffffffffffffffffffffffffffffffffffffffff\n      and\n        /* \"ArcenticMultiPool.sol\":632:651  msg.sender == owner */\n      0xffffffffffffffffffffffffffffffffffffffff\n      and\n        /* \"ArcenticMultiPool.sol\":632:642  msg.sender */\n      caller\n        /* \"ArcenticMultiPool.sol\":632:651  msg.sender == owner */\n      0xffffffffffffffffffffffffffffffffffffffff\n      and\n      eq\n        /* \"ArcenticMultiPool.sol\":624:665  require(msg.sender == owner, \"Not owner\") */\n      tag_55\n      jumpi\n      mload(0x40)\n      0x08c379a000000000000000000000000000000000000000000000000000000000\n      dup2\n      mstore\n      0x04\n      add\n      tag_56\n      swap1\n      tag_57\n      jump\t// in\n    tag_56:\n      mload(0x40)\n      dup1\n      swap2\n      sub\n      swap1\n      revert\n    tag_55:\n        /* \"ArcenticMultiPool.sol\":2426:2432  _token */\n      dup2\n        /* \"ArcenticMultiPool.sol\":2419:2442  IERC20(_token).transfer */\n      0xffffffffffffffffffffffffffffffffffffffff\n      and\n      0xa9059cbb\n        /* \"ArcenticMultiPool.sol\":2443:2448  owner */\n      0x00\n      0x00\n      swap1\n      sload\n      swap1\n      0x0100\n      exp\n      swap1\n      div\n      0xffffffffffffffffffffffffffffffffffffffff\n      and\n        /* \"ArcenticMultiPool.sol\":2450:2457  _amount */\n      dup4\n        /* \"ArcenticMultiPool.sol\":2419:2458  IERC20(_token).transfer(owner, _amount) */\n      mload(0x40)\n      dup4\n      0xffffffff\n      and\n      0xe0\n      shl\n      dup2\n      mstore\n      0x04\n      add\n      tag_59\n      swap3\n      swap2\n      swap1\n      tag_60\n      jump\t// in\n    tag_59:\n      0x20\n      mload(0x40)\n      dup1\n      dup4\n      sub\n      dup2\n      0x00\n      dup8\n      gas\n      call\n      iszero\n      dup1\n      iszero\n      tag_62\n      jumpi\n      returndatacopy(0x00, 0x00, returndatasize)\n      revert(0x00, returndatasize)\n    tag_62:\n      pop\n      pop\n      pop\n      pop\n      mload(0x40)\n      returndatasize\n      not(0x1f)\n      0x1f\n      dup3\n      add\n      and\n      dup3\n      add\n      dup1\n      0x40\n      mstore\n      pop\n      dup2\n      add\n      swap1\n      tag_63\n      swap2\n      swap1\n      tag_50\n      jump\t// in\n    tag_63:\n      pop\n        /* \"ArcenticMultiPool.sol\":2330:2465  function emergencyWithdraw(address _token, uint256 _amount) external onlyOwner {... */\n      pop\n      pop\n      jump\t// out\n        /* \"ArcenticMultiPool.sol\":1143:1572  function removeLiquidity(address _token, uint256 _amount) external {... */\n    tag_30:\n        /* \"ArcenticMultiPool.sol\":1238:1239  0 */\n      0x00\n        /* \"ArcenticMultiPool.sol\":1228:1235  _amount */\n      dup2\n        /* \"ArcenticMultiPool.sol\":1228:1239  _amount > 0 */\n      gt\n        /* \"ArcenticMultiPool.sol\":1220:1262  require(_amount > 0, \"Amount must be > 0\") */\n      tag_65\n      jumpi\n      mload(0x40)\n      0x08c379a000000000000000000000000000000000000000000000000000000000\n      dup2\n      mstore\n      0x04\n      add\n      tag_66\n      swap1\n      tag_44\n      jump\t// in\n    tag_66:\n      mload(0x40)\n      dup1\n      swap2\n      sub\n      swap1\n      revert\n    tag_65:\n        /* \"ArcenticMultiPool.sol\":1313:1320  _amount */\n      dup1\n        /* \"ArcenticMultiPool.sol\":1280:1289  lpBalance */\n      0x02\n        /* \"ArcenticMultiPool.sol\":1280:1301  lpBalance[msg.sender] */\n      0x00\n        /* \"ArcenticMultiPool.sol\":1290:1300  msg.sender */\n      caller\n        /* \"ArcenticMultiPool.sol\":1280:1301  lpBalance[msg.sender] */\n      0xffffffffffffffffffffffffffffffffffffffff\n      and\n      0xffffffffffffffffffffffffffffffffffffffff\n      and\n      dup2\n      mstore\n      0x20\n      add\n      swap1\n      dup2\n      mstore\n      0x20\n      add\n      0x00\n      keccak256\n        /* \"ArcenticMultiPool.sol\":1280:1309  lpBalance[msg.sender][_token] */\n      0x00\n        /* \"ArcenticMultiPool.sol\":1302:1308  _token */\n      dup5\n        /* \"ArcenticMultiPool.sol\":1280:1309  lpBalance[msg.sender][_token] */\n      0xffffffffffffffffffffffffffffffffffffffff\n      and\n      0xffffffffffffffffffffffffffffffffffffffff\n      and\n      dup2\n      mstore\n      0x20\n      add\n      swap1\n      dup2\n      mstore\n      0x20\n      add\n      0x00\n      keccak256\n      sload\n        /* \"ArcenticMultiPool.sol\":1280:1320  lpBalance[msg.sender][_token] >= _amount */\n      lt\n      iszero\n        /* \"ArcenticMultiPool.sol\":1272:1348  require(lpBalance[msg.sender][_token] >= _amount, \"Insufficient LP balance\") */\n      tag_67\n      jumpi\n      mload(0x40)\n      0x08c379a000000000000000000000000000000000000000000000000000000000\n      dup2\n      mstore\n      0x04\n      add\n      tag_68\n      swap1\n      tag_69\n      jump\t// in\n    tag_68:\n      mload(0x40)\n      dup1\n      swap2\n      sub\n      swap1\n      revert\n    tag_67:\n        /* \"ArcenticMultiPool.sol\":1386:1393  _amount */\n      dup1\n        /* \"ArcenticMultiPool.sol\":1366:1374  reserves */\n      0x01\n        /* \"ArcenticMultiPool.sol\":1366:1382  reserves[_token] */\n      0x00\n        /* \"ArcenticMultiPool.sol\":1375:1381  _token */\n      dup5\n        /* \"ArcenticMultiPool.sol\":1366:1382  reserves[_token] */\n      0xffffffffffffffffffffffffffffffffffffffff\n      and\n      0xffffffffffffffffffffffffffffffffffffffff\n      and\n      dup2\n      mstore\n      0x20\n      add\n      swap1\n      dup2\n      mstore\n      0x20\n      add\n      0x00\n      keccak256\n      sload\n        /* \"ArcenticMultiPool.sol\":1366:1393  reserves[_token] >= _amount */\n      lt\n      iszero\n        /* \"ArcenticMultiPool.sol\":1358:1423  require(reserves[_token] >= _amount, \"Insufficient pool reserve\") */\n      tag_70\n      jumpi\n      mload(0x40)\n      0x08c379a000000000000000000000000000000000000000000000000000000000\n      dup2\n      mstore\n      0x04\n      add\n      tag_71\n      swap1\n      tag_72\n      jump\t// in\n    tag_71:\n      mload(0x40)\n      dup1\n      swap2\n      sub\n      swap1\n      revert\n    tag_70:\n        /* \"ArcenticMultiPool.sol\":1467:1474  _amount */\n      dup1\n        /* \"ArcenticMultiPool.sol\":1434:1443  lpBalance */\n      0x02\n        /* \"ArcenticMultiPool.sol\":1434:1455  lpBalance[msg.sender] */\n      0x00\n        /* \"ArcenticMultiPool.sol\":1444:1454  msg.sender */\n      caller\n        /* \"ArcenticMultiPool.sol\":1434:1455  lpBalance[msg.sender] */\n      0xffffffffffffffffffffffffffffffffffffffff\n      and\n      0xffffffffffffffffffffffffffffffffffffffff\n      and\n      dup2\n      mstore\n      0x20\n      add\n      swap1\n      dup2\n      mstore\n      0x20\n      add\n      0x00\n      keccak256\n        /* \"ArcenticMultiPool.sol\":1434:1463  lpBalance[msg.sender][_token] */\n      0x00\n        /* \"ArcenticMultiPool.sol\":1456:1462  _token */\n      dup5\n        /* \"ArcenticMultiPool.sol\":1434:1463  lpBalance[msg.sender][_token] */\n      0xffffffffffffffffffffffffffffffffffffffff\n      and\n      0xffffffffffffffffffffffffffffffffffffffff\n      and\n      dup2\n      mstore\n      0x20\n      add\n      swap1\n      dup2\n      mstore\n      0x20\n      add\n      0x00\n      keccak256\n      0x00\n        /* \"ArcenticMultiPool.sol\":1434:1474  lpBalance[msg.sender][_token] -= _amount */\n      dup3\n      dup3\n      sload\n      tag_73\n      swap2\n      swap1\n      tag_74\n      jump\t// in\n    tag_73:\n      swap3\n      pop\n      pop\n      dup2\n      swap1\n      sstore\n      pop\n        /* \"ArcenticMultiPool.sol\":1504:1511  _amount */\n      dup1\n        /* \"ArcenticMultiPool.sol\":1484:1492  reserves */\n      0x01\n        /* \"ArcenticMultiPool.sol\":1484:1500  reserves[_token] */\n      0x00\n        /* \"ArcenticMultiPool.sol\":1493:1499  _token */\n      dup5\n        /* \"ArcenticMultiPool.sol\":1484:1500  reserves[_token] */\n      0xffffffffffffffffffffffffffffffffffffffff\n      and\n      0xffffffffffffffffffffffffffffffffffffffff\n      and\n      dup2\n      mstore\n      0x20\n      add\n      swap1\n      dup2\n      mstore\n      0x20\n      add\n      0x00\n      keccak256\n      0x00\n        /* \"ArcenticMultiPool.sol\":1484:1511  reserves[_token] -= _amount */\n      dup3\n      dup3\n      sload\n      tag_75\n      swap2\n      swap1\n      tag_74\n      jump\t// in\n    tag_75:\n      swap3\n      pop\n      pop\n      dup2\n      swap1\n      sstore\n      pop\n        /* \"ArcenticMultiPool.sol\":1528:1534  _token */\n      dup2\n        /* \"ArcenticMultiPool.sol\":1521:1544  IERC20(_token).transfer */\n      0xffffffffffffffffffffffffffffffffffffffff\n      and\n      0xa9059cbb\n        /* \"ArcenticMultiPool.sol\":1545:1555  msg.sender */\n      caller\n        /* \"ArcenticMultiPool.sol\":1557:1564  _amount */\n      dup4\n        /* \"ArcenticMultiPool.sol\":1521:1565  IERC20(_token).transfer(msg.sender, _amount) */\n      mload(0x40)\n      dup4\n      0xffffffff\n      and\n      0xe0\n      shl\n      dup2\n      mstore\n      0x04\n      add\n      tag_76\n      swap3\n      swap2\n      swap1\n      tag_60\n      jump\t// in\n    tag_76:\n      0x20\n      mload(0x40)\n      dup1\n      dup4\n      sub\n      dup2\n      0x00\n      dup8\n      gas\n      call\n      iszero\n      dup1\n      iszero\n      tag_78\n      jumpi\n      returndatacopy(0x00, 0x00, returndatasize)\n      revert(0x00, returndatasize)\n    tag_78:\n      pop\n      pop\n      pop\n      pop\n      mload(0x40)\n      returndatasize\n      not(0x1f)\n      0x1f\n      dup3\n      add\n      and\n      dup3\n      add\n      dup1\n      0x40\n      mstore\n      pop\n      dup2\n      add\n      swap1\n      tag_79\n      swap2\n      swap1\n      tag_50\n      jump\t// in\n    tag_79:\n      pop\n        /* \"ArcenticMultiPool.sol\":1143:1572  function removeLiquidity(address _token, uint256 _amount) external {... */\n      pop\n      pop\n      jump\t// out\n        /* \"ArcenticMultiPool.sol\":397:440  mapping(address => uint256) public reserves */\n    tag_34:\n      mstore(0x20, 0x01)\n      dup1\n      0x00\n      mstore\n      keccak256(0x00, 0x40)\n      0x00\n      swap2\n      pop\n      swap1\n      pop\n      sload\n      dup2\n      jump\t// out\n        /* \"ArcenticMultiPool.sol\":1653:2267  function swap(address _tokenIn, address _tokenOut, uint256 _amountIn) external returns (uint256 amountOut) {... */\n    tag_39:\n        /* \"ArcenticMultiPool.sol\":1741:1758  uint256 amountOut */\n      0x00\n        /* \"ArcenticMultiPool.sol\":1799:1800  0 */\n      0x00\n        /* \"ArcenticMultiPool.sol\":1778:1786  reserves */\n      0x01\n        /* \"ArcenticMultiPool.sol\":1778:1796  reserves[_tokenIn] */\n      0x00\n        /* \"ArcenticMultiPool.sol\":1787:1795  _tokenIn */\n      dup7\n        /* \"ArcenticMultiPool.sol\":1778:1796  reserves[_tokenIn] */\n      0xffffffffffffffffffffffffffffffffffffffff\n      and\n      0xffffffffffffffffffffffffffffffffffffffff\n      and\n      dup2\n      mstore\n      0x20\n      add\n      swap1\n      dup2\n      mstore\n      0x20\n      add\n      0x00\n      keccak256\n      sload\n        /* \"ArcenticMultiPool.sol\":1778:1800  reserves[_tokenIn] > 0 */\n      gt\n        /* \"ArcenticMultiPool.sol\":1778:1827  reserves[_tokenIn] > 0 && reserves[_tokenOut] > 0 */\n      dup1\n      iszero\n      tag_81\n      jumpi\n      pop\n        /* \"ArcenticMultiPool.sol\":1826:1827  0 */\n      0x00\n        /* \"ArcenticMultiPool.sol\":1804:1812  reserves */\n      0x01\n        /* \"ArcenticMultiPool.sol\":1804:1823  reserves[_tokenOut] */\n      0x00\n        /* \"ArcenticMultiPool.sol\":1813:1822  _tokenOut */\n      dup6\n        /* \"ArcenticMultiPool.sol\":1804:1823  reserves[_tokenOut] */\n      0xffffffffffffffffffffffffffffffffffffffff\n      and\n      0xffffffffffffffffffffffffffffffffffffffff\n      and\n      dup2\n      mstore\n      0x20\n      add\n      swap1\n      dup2\n      mstore\n      0x20\n      add\n      0x00\n      keccak256\n      sload\n        /* \"ArcenticMultiPool.sol\":1804:1827  reserves[_tokenOut] > 0 */\n      gt\n        /* \"ArcenticMultiPool.sol\":1778:1827  reserves[_tokenIn] > 0 && reserves[_tokenOut] > 0 */\n    tag_81:\n        /* \"ArcenticMultiPool.sol\":1770:1859  require(reserves[_tokenIn] > 0 && reserves[_tokenOut] > 0, \"Pool liquidity insufficient\") */\n      tag_82\n      jumpi\n      mload(0x40)\n      0x08c379a000000000000000000000000000000000000000000000000000000000\n      dup2\n      mstore\n      0x04\n      add\n      tag_83\n      swap1\n      tag_84\n      jump\t// in\n    tag_83:\n      mload(0x40)\n      dup1\n      swap2\n      sub\n      swap1\n      revert\n    tag_82:\n        /* \"ArcenticMultiPool.sol\":1877:1885  _tokenIn */\n      dup4\n        /* \"ArcenticMultiPool.sol\":1870:1899  IERC20(_tokenIn).transferFrom */\n      0xffffffffffffffffffffffffffffffffffffffff\n      and\n      0x23b872dd\n        /* \"ArcenticMultiPool.sol\":1900:1910  msg.sender */\n      caller\n        /* \"ArcenticMultiPool.sol\":1920:1924  this */\n      address\n        /* \"ArcenticMultiPool.sol\":1927:1936  _amountIn */\n      dup6\n        /* \"ArcenticMultiPool.sol\":1870:1937  IERC20(_tokenIn).transferFrom(msg.sender, address(this), _amountIn) */\n      mload(0x40)\n      dup5\n      0xffffffff\n      and\n      0xe0\n      shl\n      dup2\n      mstore\n      0x04\n      add\n      tag_85\n      swap4\n      swap3\n      swap2\n      swap1\n      tag_46\n      jump\t// in\n    tag_85:\n      0x20\n      mload(0x40)\n      dup1\n      dup4\n      sub\n      dup2\n      0x00\n      dup8\n      gas\n      call\n      iszero\n      dup1\n      iszero\n      tag_87\n      jumpi\n      returndatacopy(0x00, 0x00, returndatasize)\n      revert(0x00, returndatasize)\n    tag_87:\n      pop\n      pop\n      pop\n      pop\n      mload(0x40)\n      returndatasize\n      not(0x1f)\n      0x1f\n      dup3\n      add\n      and\n      dup3\n      add\n      dup1\n      0x40\n      mstore\n      pop\n      dup2\n      add\n      swap1\n      tag_88\n      swap2\n      swap1\n      tag_50\n      jump\t// in\n    tag_88:\n      pop\n        /* \"ArcenticMultiPool.sol\":2106:2115  _amountIn */\n      dup2\n        /* \"ArcenticMultiPool.sol\":2085:2093  reserves */\n      0x01\n        /* \"ArcenticMultiPool.sol\":2085:2103  reserves[_tokenIn] */\n      0x00\n        /* \"ArcenticMultiPool.sol\":2094:2102  _tokenIn */\n      dup7\n        /* \"ArcenticMultiPool.sol\":2085:2103  reserves[_tokenIn] */\n      0xffffffffffffffffffffffffffffffffffffffff\n      and\n      0xffffffffffffffffffffffffffffffffffffffff\n      and\n      dup2\n      mstore\n      0x20\n      add\n      swap1\n      dup2\n      mstore\n      0x20\n      add\n      0x00\n      keccak256\n      sload\n        /* \"ArcenticMultiPool.sol\":2085:2115  reserves[_tokenIn] + _amountIn */\n      tag_89\n      swap2\n      swap1\n      tag_52\n      jump\t// in\n    tag_89:\n        /* \"ArcenticMultiPool.sol\":2061:2069  reserves */\n      0x01\n        /* \"ArcenticMultiPool.sol\":2061:2080  reserves[_tokenOut] */\n      0x00\n        /* \"ArcenticMultiPool.sol\":2070:2079  _tokenOut */\n      dup6\n        /* \"ArcenticMultiPool.sol\":2061:2080  reserves[_tokenOut] */\n      0xffffffffffffffffffffffffffffffffffffffff\n      and\n      0xffffffffffffffffffffffffffffffffffffffff\n      and\n      dup2\n      mstore\n      0x20\n      add\n      swap1\n      dup2\n      mstore\n      0x20\n      add\n      0x00\n      keccak256\n      sload\n        /* \"ArcenticMultiPool.sol\":2049:2058  _amountIn */\n      dup4\n        /* \"ArcenticMultiPool.sol\":2049:2080  _amountIn * reserves[_tokenOut] */\n      tag_90\n      swap2\n      swap1\n      tag_91\n      jump\t// in\n    tag_90:\n        /* \"ArcenticMultiPool.sol\":2048:2116  (_amountIn * reserves[_tokenOut]) / (reserves[_tokenIn] + _amountIn) */\n      tag_92\n      swap2\n      swap1\n      tag_93\n      jump\t// in\n    tag_92:\n        /* \"ArcenticMultiPool.sol\":2036:2116  amountOut = (_amountIn * reserves[_tokenOut]) / (reserves[_tokenIn] + _amountIn) */\n      swap1\n      pop\n        /* \"ArcenticMultiPool.sol\":2149:2158  _amountIn */\n      dup2\n        /* \"ArcenticMultiPool.sol\":2127:2135  reserves */\n      0x01\n        /* \"ArcenticMultiPool.sol\":2127:2145  reserves[_tokenIn] */\n      0x00\n        /* \"ArcenticMultiPool.sol\":2136:2144  _tokenIn */\n      dup7\n        /* \"ArcenticMultiPool.sol\":2127:2145  reserves[_tokenIn] */\n      0xffffffffffffffffffffffffffffffffffffffff\n      and\n      0xffffffffffffffffffffffffffffffffffffffff\n      and\n      dup2\n      mstore\n      0x20\n      add\n      swap1\n      dup2\n      mstore\n      0x20\n      add\n      0x00\n      keccak256\n      0x00\n        /* \"ArcenticMultiPool.sol\":2127:2158  reserves[_tokenIn] += _amountIn */\n      dup3\n      dup3\n      sload\n      tag_94\n      swap2\n      swap1\n      tag_52\n      jump\t// in\n    tag_94:\n      swap3\n      pop\n      pop\n      dup2\n      swap1\n      sstore\n      pop\n        /* \"ArcenticMultiPool.sol\":2191:2200  amountOut */\n      dup1\n        /* \"ArcenticMultiPool.sol\":2168:2176  reserves */\n      0x01\n        /* \"ArcenticMultiPool.sol\":2168:2187  reserves[_tokenOut] */\n      0x00\n        /* \"ArcenticMultiPool.sol\":2177:2186  _tokenOut */\n      dup6\n        /* \"ArcenticMultiPool.sol\":2168:2187  reserves[_tokenOut] */\n      0xffffffffffffffffffffffffffffffffffffffff\n      and\n      0xffffffffffffffffffffffffffffffffffffffff\n      and\n      dup2\n      mstore\n      0x20\n      add\n      swap1\n      dup2\n      mstore\n      0x20\n      add\n      0x00\n      keccak256\n      0x00\n        /* \"ArcenticMultiPool.sol\":2168:2200  reserves[_tokenOut] -= amountOut */\n      dup3\n      dup3\n      sload\n      tag_95\n      swap2\n      swap1\n      tag_74\n      jump\t// in\n    tag_95:\n      swap3\n      pop\n      pop\n      dup2\n      swap1\n      sstore\n      pop\n        /* \"ArcenticMultiPool.sol\":2218:2227  _tokenOut */\n      dup3\n        /* \"ArcenticMultiPool.sol\":2211:2237  IERC20(_tokenOut).transfer */\n      0xffffffffffffffffffffffffffffffffffffffff\n      and\n      0xa9059cbb\n        /* \"ArcenticMultiPool.sol\":2238:2248  msg.sender */\n      caller\n        /* \"ArcenticMultiPool.sol\":2250:2259  amountOut */\n      dup4\n        /* \"ArcenticMultiPool.sol\":2211:2260  IERC20(_tokenOut).transfer(msg.sender, amountOut) */\n      mload(0x40)\n      dup4\n      0xffffffff\n      and\n      0xe0\n      shl\n      dup2\n      mstore\n      0x04\n      add\n      tag_96\n      swap3\n      swap2\n      swap1\n      tag_60\n      jump\t// in\n    tag_96:\n      0x20\n      mload(0x40)\n      dup1\n      dup4\n      sub\n      dup2\n      0x00\n      dup8\n      gas\n      call\n      iszero\n      dup1\n      iszero\n      tag_98\n      jumpi\n      returndatacopy(0x00, 0x00, returndatasize)\n      revert(0x00, returndatasize)\n    tag_98:\n      pop\n      pop\n      pop\n      pop\n      mload(0x40)\n      returndatasize\n      not(0x1f)\n      0x1f\n      dup3\n      add\n      and\n      dup3\n      add\n      dup1\n      0x40\n      mstore\n      pop\n      dup2\n      add\n      swap1\n      tag_99\n      swap2\n      swap1\n      tag_50\n      jump\t// in\n    tag_99:\n      pop\n        /* \"ArcenticMultiPool.sol\":1653:2267  function swap(address _tokenIn, address _tokenOut, uint256 _amountIn) external returns (uint256 amountOut) {... */\n      swap4\n      swap3\n      pop\n      pop\n      pop\n      jump\t// out\n        /* \"#utility.yul\":88:205   */\n    tag_101:\n        /* \"#utility.yul\":197:198   */\n      0x00\n        /* \"#utility.yul\":194:195   */\n      0x00\n        /* \"#utility.yul\":187:199   */\n      revert\n        /* \"#utility.yul\":334:460   */\n    tag_103:\n        /* \"#utility.yul\":371:378   */\n      0x00\n        /* \"#utility.yul\":411:453   */\n      0xffffffffffffffffffffffffffffffffffffffff\n        /* \"#utility.yul\":404:409   */\n      dup3\n        /* \"#utility.yul\":400:454   */\n      and\n        /* \"#utility.yul\":389:454   */\n      swap1\n      pop\n        /* \"#utility.yul\":334:460   */\n      swap2\n      swap1\n      pop\n      jump\t// out\n        /* \"#utility.yul\":466:562   */\n    tag_104:\n        /* \"#utility.yul\":503:510   */\n      0x00\n        /* \"#utility.yul\":532:556   */\n      tag_134\n        /* \"#utility.yul\":550:555   */\n      dup3\n        /* \"#utility.yul\":532:556   */\n      tag_103\n      jump\t// in\n    tag_134:\n        /* \"#utility.yul\":521:556   */\n      swap1\n      pop\n        /* \"#utility.yul\":466:562   */\n      swap2\n      swap1\n      pop\n      jump\t// out\n        /* \"#utility.yul\":568:690   */\n    tag_105:\n        /* \"#utility.yul\":641:665   */\n      tag_136\n        /* \"#utility.yul\":659:664   */\n      dup2\n        /* \"#utility.yul\":641:665   */\n      tag_104\n      jump\t// in\n    tag_136:\n        /* \"#utility.yul\":634:639   */\n      dup2\n        /* \"#utility.yul\":631:666   */\n      eq\n        /* \"#utility.yul\":621:684   */\n      tag_137\n      jumpi\n        /* \"#utility.yul\":680:681   */\n      0x00\n        /* \"#utility.yul\":677:678   */\n      0x00\n        /* \"#utility.yul\":670:682   */\n      revert\n        /* \"#utility.yul\":621:684   */\n    tag_137:\n        /* \"#utility.yul\":568:690   */\n      pop\n      jump\t// out\n        /* \"#utility.yul\":696:835   */\n    tag_106:\n        /* \"#utility.yul\":742:747   */\n      0x00\n        /* \"#utility.yul\":780:786   */\n      dup2\n        /* \"#utility.yul\":767:787   */\n      calldataload\n        /* \"#utility.yul\":758:787   */\n      swap1\n      pop\n        /* \"#utility.yul\":796:829   */\n      tag_139\n        /* \"#utility.yul\":823:828   */\n      dup2\n        /* \"#utility.yul\":796:829   */\n      tag_105\n      jump\t// in\n    tag_139:\n        /* \"#utility.yul\":696:835   */\n      swap3\n      swap2\n      pop\n      pop\n      jump\t// out\n        /* \"#utility.yul\":841:1315   */\n    tag_13:\n        /* \"#utility.yul\":909:915   */\n      0x00\n        /* \"#utility.yul\":917:923   */\n      0x00\n        /* \"#utility.yul\":966:968   */\n      0x40\n        /* \"#utility.yul\":954:963   */\n      dup4\n        /* \"#utility.yul\":945:952   */\n      dup6\n        /* \"#utility.yul\":941:964   */\n      sub\n        /* \"#utility.yul\":937:969   */\n      slt\n        /* \"#utility.yul\":934:1053   */\n      iszero\n      tag_141\n      jumpi\n        /* \"#utility.yul\":972:1051   */\n      tag_142\n      tag_101\n      jump\t// in\n    tag_142:\n        /* \"#utility.yul\":934:1053   */\n    tag_141:\n        /* \"#utility.yul\":1092:1093   */\n      0x00\n        /* \"#utility.yul\":1117:1170   */\n      tag_143\n        /* \"#utility.yul\":1162:1169   */\n      dup6\n        /* \"#utility.yul\":1153:1159   */\n      dup3\n        /* \"#utility.yul\":1142:1151   */\n      dup7\n        /* \"#utility.yul\":1138:1160   */\n      add\n        /* \"#utility.yul\":1117:1170   */\n      tag_106\n      jump\t// in\n    tag_143:\n        /* \"#utility.yul\":1107:1170   */\n      swap3\n      pop\n        /* \"#utility.yul\":1063:1180   */\n      pop\n        /* \"#utility.yul\":1219:1221   */\n      0x20\n        /* \"#utility.yul\":1245:1298   */\n      tag_144\n        /* \"#utility.yul\":1290:1297   */\n      dup6\n        /* \"#utility.yul\":1281:1287   */\n      dup3\n        /* \"#utility.yul\":1270:1279   */\n      dup7\n        /* \"#utility.yul\":1266:1288   */\n      add\n        /* \"#utility.yul\":1245:1298   */\n      tag_106\n      jump\t// in\n    tag_144:\n        /* \"#utility.yul\":1235:1298   */\n      swap2\n      pop\n        /* \"#utility.yul\":1190:1308   */\n      pop\n        /* \"#utility.yul\":841:1315   */\n      swap3\n      pop\n      swap3\n      swap1\n      pop\n      jump\t// out\n        /* \"#utility.yul\":1321:1398   */\n    tag_107:\n        /* \"#utility.yul\":1358:1365   */\n      0x00\n        /* \"#utility.yul\":1387:1392   */\n      dup2\n        /* \"#utility.yul\":1376:1392   */\n      swap1\n      pop\n        /* \"#utility.yul\":1321:1398   */\n      swap2\n      swap1\n      pop\n      jump\t// out\n        /* \"#utility.yul\":1404:1522   */\n    tag_108:\n        /* \"#utility.yul\":1491:1515   */\n      tag_147\n        /* \"#utility.yul\":1509:1514   */\n      dup2\n        /* \"#utility.yul\":1491:1515   */\n      tag_107\n      jump\t// in\n    tag_147:\n        /* \"#utility.yul\":1486:1489   */\n      dup3\n        /* \"#utility.yul\":1479:1516   */\n      mstore\n        /* \"#utility.yul\":1404:1522   */\n      pop\n      pop\n      jump\t// out\n        /* \"#utility.yul\":1528:1750   */\n    tag_16:\n        /* \"#utility.yul\":1621:1625   */\n      0x00\n        /* \"#utility.yul\":1659:1661   */\n      0x20\n        /* \"#utility.yul\":1648:1657   */\n      dup3\n        /* \"#utility.yul\":1644:1662   */\n      add\n        /* \"#utility.yul\":1636:1662   */\n      swap1\n      pop\n        /* \"#utility.yul\":1672:1743   */\n      tag_149\n        /* \"#utility.yul\":1740:1741   */\n      0x00\n        /* \"#utility.yul\":1729:1738   */\n      dup4\n        /* \"#utility.yul\":1725:1742   */\n      add\n        /* \"#utility.yul\":1716:1722   */\n      dup5\n        /* \"#utility.yul\":1672:1743   */\n      tag_108\n      jump\t// in\n    tag_149:\n        /* \"#utility.yul\":1528:1750   */\n      swap3\n      swap2\n      pop\n      pop\n      jump\t// out\n        /* \"#utility.yul\":1756:1878   */\n    tag_109:\n        /* \"#utility.yul\":1829:1853   */\n      tag_151\n        /* \"#utility.yul\":1847:1852   */\n      dup2\n        /* \"#utility.yul\":1829:1853   */\n      tag_107\n      jump\t// in\n    tag_151:\n        /* \"#utility.yul\":1822:1827   */\n      dup2\n        /* \"#utility.yul\":1819:1854   */\n      eq\n        /* \"#utility.yul\":1809:1872   */\n      tag_152\n      jumpi\n        /* \"#utility.yul\":1868:1869   */\n      0x00\n        /* \"#utility.yul\":1865:1866   */\n      0x00\n        /* \"#utility.yul\":1858:1870   */\n      revert\n        /* \"#utility.yul\":1809:1872   */\n    tag_152:\n        /* \"#utility.yul\":1756:1878   */\n      pop\n      jump\t// out\n        /* \"#utility.yul\":1884:2023   */\n    tag_110:\n        /* \"#utility.yul\":1930:1935   */\n      0x00\n        /* \"#utility.yul\":1968:1974   */\n      dup2\n        /* \"#utility.yul\":1955:1975   */\n      calldataload\n        /* \"#utility.yul\":1946:1975   */\n      swap1\n      pop\n        /* \"#utility.yul\":1984:2017   */\n      tag_154\n        /* \"#utility.yul\":2011:2016   */\n      dup2\n        /* \"#utility.yul\":1984:2017   */\n      tag_109\n      jump\t// in\n    tag_154:\n        /* \"#utility.yul\":1884:2023   */\n      swap3\n      swap2\n      pop\n      pop\n      jump\t// out\n        /* \"#utility.yul\":2029:2503   */\n    tag_19:\n        /* \"#utility.yul\":2097:2103   */\n      0x00\n        /* \"#utility.yul\":2105:2111   */\n      0x00\n        /* \"#utility.yul\":2154:2156   */\n      0x40\n        /* \"#utility.yul\":2142:2151   */\n      dup4\n        /* \"#utility.yul\":2133:2140   */\n      dup6\n        /* \"#utility.yul\":2129:2152   */\n      sub\n        /* \"#utility.yul\":2125:2157   */\n      slt\n        /* \"#utility.yul\":2122:2241   */\n      iszero\n      tag_156\n      jumpi\n        /* \"#utility.yul\":2160:2239   */\n      tag_157\n      tag_101\n      jump\t// in\n    tag_157:\n        /* \"#utility.yul\":2122:2241   */\n    tag_156:\n        /* \"#utility.yul\":2280:2281   */\n      0x00\n        /* \"#utility.yul\":2305:2358   */\n      tag_158\n        /* \"#utility.yul\":2350:2357   */\n      dup6\n        /* \"#utility.yul\":2341:2347   */\n      dup3\n        /* \"#utility.yul\":2330:2339   */\n      dup7\n        /* \"#utility.yul\":2326:2348   */\n      add\n        /* \"#utility.yul\":2305:2358   */\n      tag_106\n      jump\t// in\n    tag_158:\n        /* \"#utility.yul\":2295:2358   */\n      swap3\n      pop\n        /* \"#utility.yul\":2251:2368   */\n      pop\n        /* \"#utility.yul\":2407:2409   */\n      0x20\n        /* \"#utility.yul\":2433:2486   */\n      tag_159\n        /* \"#utility.yul\":2478:2485   */\n      dup6\n        /* \"#utility.yul\":2469:2475   */\n      dup3\n        /* \"#utility.yul\":2458:2467   */\n      dup7\n        /* \"#utility.yul\":2454:2476   */\n      add\n        /* \"#utility.yul\":2433:2486   */\n      tag_110\n      jump\t// in\n    tag_159:\n        /* \"#utility.yul\":2423:2486   */\n      swap2\n      pop\n        /* \"#utility.yul\":2378:2496   */\n      pop\n        /* \"#utility.yul\":2029:2503   */\n      swap3\n      pop\n      swap3\n      swap1\n      pop\n      jump\t// out\n        /* \"#utility.yul\":2509:2627   */\n    tag_111:\n        /* \"#utility.yul\":2596:2620   */\n      tag_161\n        /* \"#utility.yul\":2614:2619   */\n      dup2\n        /* \"#utility.yul\":2596:2620   */\n      tag_104\n      jump\t// in\n    tag_161:\n        /* \"#utility.yul\":2591:2594   */\n      dup3\n        /* \"#utility.yul\":2584:2621   */\n      mstore\n        /* \"#utility.yul\":2509:2627   */\n      pop\n      pop\n      jump\t// out\n        /* \"#utility.yul\":2633:2855   */\n    tag_24:\n        /* \"#utility.yul\":2726:2730   */\n      0x00\n        /* \"#utility.yul\":2764:2766   */\n      0x20\n        /* \"#utility.yul\":2753:2762   */\n      dup3\n        /* \"#utility.yul\":2749:2767   */\n      add\n        /* \"#utility.yul\":2741:2767   */\n      swap1\n      pop\n        /* \"#utility.yul\":2777:2848   */\n      tag_163\n        /* \"#utility.yul\":2845:2846   */\n      0x00\n        /* \"#utility.yul\":2834:2843   */\n      dup4\n        /* \"#utility.yul\":2830:2847   */\n      add\n        /* \"#utility.yul\":2821:2827   */\n      dup5\n        /* \"#utility.yul\":2777:2848   */\n      tag_111\n      jump\t// in\n    tag_163:\n        /* \"#utility.yul\":2633:2855   */\n      swap3\n      swap2\n      pop\n      pop\n      jump\t// out\n        /* \"#utility.yul\":2861:3190   */\n    tag_33:\n        /* \"#utility.yul\":2920:2926   */\n      0x00\n        /* \"#utility.yul\":2969:2971   */\n      0x20\n        /* \"#utility.yul\":2957:2966   */\n      dup3\n        /* \"#utility.yul\":2948:2955   */\n      dup5\n        /* \"#utility.yul\":2944:2967   */\n      sub\n        /* \"#utility.yul\":2940:2972   */\n      slt\n        /* \"#utility.yul\":2937:3056   */\n      iszero\n      tag_165\n      jumpi\n        /* \"#utility.yul\":2975:3054   */\n      tag_166\n      tag_101\n      jump\t// in\n    tag_166:\n        /* \"#utility.yul\":2937:3056   */\n    tag_165:\n        /* \"#utility.yul\":3095:3096   */\n      0x00\n        /* \"#utility.yul\":3120:3173   */\n      tag_167\n        /* \"#utility.yul\":3165:3172   */\n      dup5\n        /* \"#utility.yul\":3156:3162   */\n      dup3\n        /* \"#utility.yul\":3145:3154   */\n      dup6\n        /* \"#utility.yul\":3141:3163   */\n      add\n        /* \"#utility.yul\":3120:3173   */\n      tag_106\n      jump\t// in\n    tag_167:\n        /* \"#utility.yul\":3110:3173   */\n      swap2\n      pop\n        /* \"#utility.yul\":3066:3183   */\n      pop\n        /* \"#utility.yul\":2861:3190   */\n      swap3\n      swap2\n      pop\n      pop\n      jump\t// out\n        /* \"#utility.yul\":3196:3815   */\n    tag_38:\n        /* \"#utility.yul\":3273:3279   */\n      0x00\n        /* \"#utility.yul\":3281:3287   */\n      0x00\n        /* \"#utility.yul\":3289:3295   */\n      0x00\n        /* \"#utility.yul\":3338:3340   */\n      0x60\n        /* \"#utility.yul\":3326:3335   */\n      dup5\n        /* \"#utility.yul\":3317:3324   */\n      dup7\n        /* \"#utility.yul\":3313:3336   */\n      sub\n        /* \"#utility.yul\":3309:3341   */\n      slt\n        /* \"#utility.yul\":3306:3425   */\n      iszero\n      tag_169\n      jumpi\n        /* \"#utility.yul\":3344:3423   */\n      tag_170\n      tag_101\n      jump\t// in\n    tag_170:\n        /* \"#utility.yul\":3306:3425   */\n    tag_169:\n        /* \"#utility.yul\":3464:3465   */\n      0x00\n        /* \"#utility.yul\":3489:3542   */\n      tag_171\n        /* \"#utility.yul\":3534:3541   */\n      dup7\n        /* \"#utility.yul\":3525:3531   */\n      dup3\n        /* \"#utility.yul\":3514:3523   */\n      dup8\n        /* \"#utility.yul\":3510:3532   */\n      add\n        /* \"#utility.yul\":3489:3542   */\n      tag_106\n      jump\t// in\n    tag_171:\n        /* \"#utility.yul\":3479:3542   */\n      swap4\n      pop\n        /* \"#utility.yul\":3435:3552   */\n      pop\n        /* \"#utility.yul\":3591:3593   */\n      0x20\n        /* \"#utility.yul\":3617:3670   */\n      tag_172\n        /* \"#utility.yul\":3662:3669   */\n      dup7\n        /* \"#utility.yul\":3653:3659   */\n      dup3\n        /* \"#utility.yul\":3642:3651   */\n      dup8\n        /* \"#utility.yul\":3638:3660   */\n      add\n        /* \"#utility.yul\":3617:3670   */\n      tag_106\n      jump\t// in\n    tag_172:\n        /* \"#utility.yul\":3607:3670   */\n      swap3\n      pop\n        /* \"#utility.yul\":3562:3680   */\n      pop\n        /* \"#utility.yul\":3719:3721   */\n      0x40\n        /* \"#utility.yul\":3745:3798   */\n      tag_173\n        /* \"#utility.yul\":3790:3797   */\n      dup7\n        /* \"#utility.yul\":3781:3787   */\n      dup3\n        /* \"#utility.yul\":3770:3779   */\n      dup8\n        /* \"#utility.yul\":3766:3788   */\n      add\n        /* \"#utility.yul\":3745:3798   */\n      tag_110\n      jump\t// in\n    tag_173:\n        /* \"#utility.yul\":3735:3798   */\n      swap2\n      pop\n        /* \"#utility.yul\":3690:3808   */\n      pop\n        /* \"#utility.yul\":3196:3815   */\n      swap3\n      pop\n      swap3\n      pop\n      swap3\n      jump\t// out\n        /* \"#utility.yul\":3821:3990   */\n    tag_112:\n        /* \"#utility.yul\":3905:3916   */\n      0x00\n        /* \"#utility.yul\":3939:3945   */\n      dup3\n        /* \"#utility.yul\":3934:3937   */\n      dup3\n        /* \"#utility.yul\":3927:3946   */\n      mstore\n        /* \"#utility.yul\":3979:3983   */\n      0x20\n        /* \"#utility.yul\":3974:3977   */\n      dup3\n        /* \"#utility.yul\":3970:3984   */\n      add\n        /* \"#utility.yul\":3955:3984   */\n      swap1\n      pop\n        /* \"#utility.yul\":3821:3990   */\n      swap3\n      swap2\n      pop\n      pop\n      jump\t// out\n        /* \"#utility.yul\":3996:4164   */\n    tag_113:\n        /* \"#utility.yul\":4136:4156   */\n      0x416d6f756e74206d757374206265203e20300000000000000000000000000000\n        /* \"#utility.yul\":4132:4133   */\n      0x00\n        /* \"#utility.yul\":4124:4130   */\n      dup3\n        /* \"#utility.yul\":4120:4134   */\n      add\n        /* \"#utility.yul\":4113:4157   */\n      mstore\n        /* \"#utility.yul\":3996:4164   */\n      pop\n      jump\t// out\n        /* \"#utility.yul\":4170:4536   */\n    tag_114:\n        /* \"#utility.yul\":4312:4315   */\n      0x00\n        /* \"#utility.yul\":4333:4400   */\n      tag_177\n        /* \"#utility.yul\":4397:4399   */\n      0x12\n        /* \"#utility.yul\":4392:4395   */\n      dup4\n        /* \"#utility.yul\":4333:4400   */\n      tag_112\n      jump\t// in\n    tag_177:\n        /* \"#utility.yul\":4326:4400   */\n      swap2\n      pop\n        /* \"#utility.yul\":4409:4502   */\n      tag_178\n        /* \"#utility.yul\":4498:4501   */\n      dup3\n        /* \"#utility.yul\":4409:4502   */\n      tag_113\n      jump\t// in\n    tag_178:\n        /* \"#utility.yul\":4527:4529   */\n      0x20\n        /* \"#utility.yul\":4522:4525   */\n      dup3\n        /* \"#utility.yul\":4518:4530   */\n      add\n        /* \"#utility.yul\":4511:4530   */\n      swap1\n      pop\n        /* \"#utility.yul\":4170:4536   */\n      swap2\n      swap1\n      pop\n      jump\t// out\n        /* \"#utility.yul\":4542:4961   */\n    tag_44:\n        /* \"#utility.yul\":4708:4712   */\n      0x00\n        /* \"#utility.yul\":4746:4748   */\n      0x20\n        /* \"#utility.yul\":4735:4744   */\n      dup3\n        /* \"#utility.yul\":4731:4749   */\n      add\n        /* \"#utility.yul\":4723:4749   */\n      swap1\n      pop\n        /* \"#utility.yul\":4795:4804   */\n      dup2\n        /* \"#utility.yul\":4789:4793   */\n      dup2\n        /* \"#utility.yul\":4785:4805   */\n      sub\n        /* \"#utility.yul\":4781:4782   */\n      0x00\n        /* \"#utility.yul\":4770:4779   */\n      dup4\n        /* \"#utility.yul\":4766:4783   */\n      add\n        /* \"#utility.yul\":4759:4806   */\n      mstore\n        /* \"#utility.yul\":4823:4954   */\n      tag_180\n        /* \"#utility.yul\":4949:4953   */\n      dup2\n        /* \"#utility.yul\":4823:4954   */\n      tag_114\n      jump\t// in\n    tag_180:\n        /* \"#utility.yul\":4815:4954   */\n      swap1\n      pop\n        /* \"#utility.yul\":4542:4961   */\n      swap2\n      swap1\n      pop\n      jump\t// out\n        /* \"#utility.yul\":4967:5409   */\n    tag_46:\n        /* \"#utility.yul\":5116:5120   */\n      0x00\n        /* \"#utility.yul\":5154:5156   */\n      0x60\n        /* \"#utility.yul\":5143:5152   */\n      dup3\n        /* \"#utility.yul\":5139:5157   */\n      add\n        /* \"#utility.yul\":5131:5157   */\n      swap1\n      pop\n        /* \"#utility.yul\":5167:5238   */\n      tag_182\n        /* \"#utility.yul\":5235:5236   */\n      0x00\n        /* \"#utility.yul\":5224:5233   */\n      dup4\n        /* \"#utility.yul\":5220:5237   */\n      add\n        /* \"#utility.yul\":5211:5217   */\n      dup7\n        /* \"#utility.yul\":5167:5238   */\n      tag_111\n      jump\t// in\n    tag_182:\n        /* \"#utility.yul\":5248:5320   */\n      tag_183\n        /* \"#utility.yul\":5316:5318   */\n      0x20\n        /* \"#utility.yul\":5305:5314   */\n      dup4\n        /* \"#utility.yul\":5301:5319   */\n      add\n        /* \"#utility.yul\":5292:5298   */\n      dup6\n        /* \"#utility.yul\":5248:5320   */\n      tag_111\n      jump\t// in\n    tag_183:\n        /* \"#utility.yul\":5330:5402   */\n      tag_184\n        /* \"#utility.yul\":5398:5400   */\n      0x40\n        /* \"#utility.yul\":5387:5396   */\n      dup4\n        /* \"#utility.yul\":5383:5401   */\n      add\n        /* \"#utility.yul\":5374:5380   */\n      dup5\n        /* \"#utility.yul\":5330:5402   */\n      tag_108\n      jump\t// in\n    tag_184:\n        /* \"#utility.yul\":4967:5409   */\n      swap5\n      swap4\n      pop\n      pop\n      pop\n      pop\n      jump\t// out\n        /* \"#utility.yul\":5415:5505   */\n    tag_115:\n        /* \"#utility.yul\":5449:5456   */\n      0x00\n        /* \"#utility.yul\":5492:5497   */\n      dup2\n        /* \"#utility.yul\":5485:5498   */\n      iszero\n        /* \"#utility.yul\":5478:5499   */\n      iszero\n        /* \"#utility.yul\":5467:5499   */\n      swap1\n      pop\n        /* \"#utility.yul\":5415:5505   */\n      swap2\n      swap1\n      pop\n      jump\t// out\n        /* \"#utility.yul\":5511:5627   */\n    tag_116:\n        /* \"#utility.yul\":5581:5602   */\n      tag_187\n        /* \"#utility.yul\":5596:5601   */\n      dup2\n        /* \"#utility.yul\":5581:5602   */\n      tag_115\n      jump\t// in\n    tag_187:\n        /* \"#utility.yul\":5574:5579   */\n      dup2\n        /* \"#utility.yul\":5571:5603   */\n      eq\n        /* \"#utility.yul\":5561:5621   */\n      tag_188\n      jumpi\n        /* \"#utility.yul\":5617:5618   */\n      0x00\n        /* \"#utility.yul\":5614:5615   */\n      0x00\n        /* \"#utility.yul\":5607:5619   */\n      revert\n        /* \"#utility.yul\":5561:5621   */\n    tag_188:\n        /* \"#utility.yul\":5511:5627   */\n      pop\n      jump\t// out\n        /* \"#utility.yul\":5633:5770   */\n    tag_117:\n        /* \"#utility.yul\":5687:5692   */\n      0x00\n        /* \"#utility.yul\":5718:5724   */\n      dup2\n        /* \"#utility.yul\":5712:5725   */\n      mload\n        /* \"#utility.yul\":5703:5725   */\n      swap1\n      pop\n        /* \"#utility.yul\":5734:5764   */\n      tag_190\n        /* \"#utility.yul\":5758:5763   */\n      dup2\n        /* \"#utility.yul\":5734:5764   */\n      tag_116\n      jump\t// in\n    tag_190:\n        /* \"#utility.yul\":5633:5770   */\n      swap3\n      swap2\n      pop\n      pop\n      jump\t// out\n        /* \"#utility.yul\":5776:6121   */\n    tag_50:\n        /* \"#utility.yul\":5843:5849   */\n      0x00\n        /* \"#utility.yul\":5892:5894   */\n      0x20\n        /* \"#utility.yul\":5880:5889   */\n      dup3\n        /* \"#utility.yul\":5871:5878   */\n      dup5\n        /* \"#utility.yul\":5867:5890   */\n      sub\n        /* \"#utility.yul\":5863:5895   */\n      slt\n        /* \"#utility.yul\":5860:5979   */\n      iszero\n      tag_192\n      jumpi\n        /* \"#utility.yul\":5898:5977   */\n      tag_193\n      tag_101\n      jump\t// in\n    tag_193:\n        /* \"#utility.yul\":5860:5979   */\n    tag_192:\n        /* \"#utility.yul\":6018:6019   */\n      0x00\n        /* \"#utility.yul\":6043:6104   */\n      tag_194\n        /* \"#utility.yul\":6096:6103   */\n      dup5\n        /* \"#utility.yul\":6087:6093   */\n      dup3\n        /* \"#utility.yul\":6076:6085   */\n      dup6\n        /* \"#utility.yul\":6072:6094   */\n      add\n        /* \"#utility.yul\":6043:6104   */\n      tag_117\n      jump\t// in\n    tag_194:\n        /* \"#utility.yul\":6033:6104   */\n      swap2\n      pop\n        /* \"#utility.yul\":5989:6114   */\n      pop\n        /* \"#utility.yul\":5776:6121   */\n      swap3\n      swap2\n      pop\n      pop\n      jump\t// out\n        /* \"#utility.yul\":6127:6307   */\n    tag_118:\n        /* \"#utility.yul\":6175:6252   */\n      0x4e487b7100000000000000000000000000000000000000000000000000000000\n        /* \"#utility.yul\":6172:6173   */\n      0x00\n        /* \"#utility.yul\":6165:6253   */\n      mstore\n        /* \"#utility.yul\":6272:6276   */\n      0x11\n        /* \"#utility.yul\":6269:6270   */\n      0x04\n        /* \"#utility.yul\":6262:6277   */\n      mstore\n        /* \"#utility.yul\":6296:6300   */\n      0x24\n        /* \"#utility.yul\":6293:6294   */\n      0x00\n        /* \"#utility.yul\":6286:6301   */\n      revert\n        /* \"#utility.yul\":6313:6504   */\n    tag_52:\n        /* \"#utility.yul\":6353:6356   */\n      0x00\n        /* \"#utility.yul\":6372:6392   */\n      tag_197\n        /* \"#utility.yul\":6390:6391   */\n      dup3\n        /* \"#utility.yul\":6372:6392   */\n      tag_107\n      jump\t// in\n    tag_197:\n        /* \"#utility.yul\":6367:6392   */\n      swap2\n      pop\n        /* \"#utility.yul\":6406:6426   */\n      tag_198\n        /* \"#utility.yul\":6424:6425   */\n      dup4\n        /* \"#utility.yul\":6406:6426   */\n      tag_107\n      jump\t// in\n    tag_198:\n        /* \"#utility.yul\":6401:6426   */\n      swap3\n      pop\n        /* \"#utility.yul\":6449:6450   */\n      dup3\n        /* \"#utility.yul\":6446:6447   */\n      dup3\n        /* \"#utility.yul\":6442:6451   */\n      add\n        /* \"#utility.yul\":6435:6451   */\n      swap1\n      pop\n        /* \"#utility.yul\":6470:6473   */\n      dup1\n        /* \"#utility.yul\":6467:6468   */\n      dup3\n        /* \"#utility.yul\":6464:6474   */\n      gt\n        /* \"#utility.yul\":6461:6497   */\n      iszero\n      tag_199\n      jumpi\n        /* \"#utility.yul\":6477:6495   */\n      tag_200\n      tag_118\n      jump\t// in\n    tag_200:\n        /* \"#utility.yul\":6461:6497   */\n    tag_199:\n        /* \"#utility.yul\":6313:6504   */\n      swap3\n      swap2\n      pop\n      pop\n      jump\t// out\n        /* \"#utility.yul\":6510:6669   */\n    tag_119:\n        /* \"#utility.yul\":6650:6661   */\n      0x4e6f74206f776e65720000000000000000000000000000000000000000000000\n        /* \"#utility.yul\":6646:6647   */\n      0x00\n        /* \"#utility.yul\":6638:6644   */\n      dup3\n        /* \"#utility.yul\":6634:6648   */\n      add\n        /* \"#utility.yul\":6627:6662   */\n      mstore\n        /* \"#utility.yul\":6510:6669   */\n      pop\n      jump\t// out\n        /* \"#utility.yul\":6675:7040   */\n    tag_120:\n        /* \"#utility.yul\":6817:6820   */\n      0x00\n        /* \"#utility.yul\":6838:6904   */\n      tag_203\n        /* \"#utility.yul\":6902:6903   */\n      0x09\n        /* \"#utility.yul\":6897:6900   */\n      dup4\n        /* \"#utility.yul\":6838:6904   */\n      tag_112\n      jump\t// in\n    tag_203:\n        /* \"#utility.yul\":6831:6904   */\n      swap2\n      pop\n        /* \"#utility.yul\":6913:7006   */\n      tag_204\n        /* \"#utility.yul\":7002:7005   */\n      dup3\n        /* \"#utility.yul\":6913:7006   */\n      tag_119\n      jump\t// in\n    tag_204:\n        /* \"#utility.yul\":7031:7033   */\n      0x20\n        /* \"#utility.yul\":7026:7029   */\n      dup3\n        /* \"#utility.yul\":7022:7034   */\n      add\n        /* \"#utility.yul\":7015:7034   */\n      swap1\n      pop\n        /* \"#utility.yul\":6675:7040   */\n      swap2\n      swap1\n      pop\n      jump\t// out\n        /* \"#utility.yul\":7046:7465   */\n    tag_57:\n        /* \"#utility.yul\":7212:7216   */\n      0x00\n        /* \"#utility.yul\":7250:7252   */\n      0x20\n        /* \"#utility.yul\":7239:7248   */\n      dup3\n        /* \"#utility.yul\":7235:7253   */\n      add\n        /* \"#utility.yul\":7227:7253   */\n      swap1\n      pop\n        /* \"#utility.yul\":7299:7308   */\n      dup2\n        /* \"#utility.yul\":7293:7297   */\n      dup2\n        /* \"#utility.yul\":7289:7309   */\n      sub\n        /* \"#utility.yul\":7285:7286   */\n      0x00\n        /* \"#utility.yul\":7274:7283   */\n      dup4\n        /* \"#utility.yul\":7270:7287   */\n      add\n        /* \"#utility.yul\":7263:7310   */\n      mstore\n        /* \"#utility.yul\":7327:7458   */\n      tag_206\n        /* \"#utility.yul\":7453:7457   */\n      dup2\n        /* \"#utility.yul\":7327:7458   */\n      tag_120\n      jump\t// in\n    tag_206:\n        /* \"#utility.yul\":7319:7458   */\n      swap1\n      pop\n        /* \"#utility.yul\":7046:7465   */\n      swap2\n      swap1\n      pop\n      jump\t// out\n        /* \"#utility.yul\":7471:7803   */\n    tag_60:\n        /* \"#utility.yul\":7592:7596   */\n      0x00\n        /* \"#utility.yul\":7630:7632   */\n      0x40\n        /* \"#utility.yul\":7619:7628   */\n      dup3\n        /* \"#utility.yul\":7615:7633   */\n      add\n        /* \"#utility.yul\":7607:7633   */\n      swap1\n      pop\n        /* \"#utility.yul\":7643:7714   */\n      tag_208\n        /* \"#utility.yul\":7711:7712   */\n      0x00\n        /* \"#utility.yul\":7700:7709   */\n      dup4\n        /* \"#utility.yul\":7696:7713   */\n      add\n        /* \"#utility.yul\":7687:7693   */\n      dup6\n        /* \"#utility.yul\":7643:7714   */\n      tag_111\n      jump\t// in\n    tag_208:\n        /* \"#utility.yul\":7724:7796   */\n      tag_209\n        /* \"#utility.yul\":7792:7794   */\n      0x20\n        /* \"#utility.yul\":7781:7790   */\n      dup4\n        /* \"#utility.yul\":7777:7795   */\n      add\n        /* \"#utility.yul\":7768:7774   */\n      dup5\n        /* \"#utility.yul\":7724:7796   */\n      tag_108\n      jump\t// in\n    tag_209:\n        /* \"#utility.yul\":7471:7803   */\n      swap4\n      swap3\n      pop\n      pop\n      pop\n      jump\t// out\n        /* \"#utility.yul\":7809:7982   */\n    tag_121:\n        /* \"#utility.yul\":7949:7974   */\n      0x496e73756666696369656e74204c502062616c616e6365000000000000000000\n        /* \"#utility.yul\":7945:7946   */\n      0x00\n        /* \"#utility.yul\":7937:7943   */\n      dup3\n        /* \"#utility.yul\":7933:7947   */\n      add\n        /* \"#utility.yul\":7926:7975   */\n      mstore\n        /* \"#utility.yul\":7809:7982   */\n      pop\n      jump\t// out\n        /* \"#utility.yul\":7988:8354   */\n    tag_122:\n        /* \"#utility.yul\":8130:8133   */\n      0x00\n        /* \"#utility.yul\":8151:8218   */\n      tag_212\n        /* \"#utility.yul\":8215:8217   */\n      0x17\n        /* \"#utility.yul\":8210:8213   */\n      dup4\n        /* \"#utility.yul\":8151:8218   */\n      tag_112\n      jump\t// in\n    tag_212:\n        /* \"#utility.yul\":8144:8218   */\n      swap2\n      pop\n        /* \"#utility.yul\":8227:8320   */\n      tag_213\n        /* \"#utility.yul\":8316:8319   */\n      dup3\n        /* \"#utility.yul\":8227:8320   */\n      tag_121\n      jump\t// in\n    tag_213:\n        /* \"#utility.yul\":8345:8347   */\n      0x20\n        /* \"#utility.yul\":8340:8343   */\n      dup3\n        /* \"#utility.yul\":8336:8348   */\n      add\n        /* \"#utility.yul\":8329:8348   */\n      swap1\n      pop\n        /* \"#utility.yul\":7988:8354   */\n      swap2\n      swap1\n      pop\n      jump\t// out\n        /* \"#utility.yul\":8360:8779   */\n    tag_69:\n        /* \"#utility.yul\":8526:8530   */\n      0x00\n        /* \"#utility.yul\":8564:8566   */\n      0x20\n        /* \"#utility.yul\":8553:8562   */\n      dup3\n        /* \"#utility.yul\":8549:8567   */\n      add\n        /* \"#utility.yul\":8541:8567   */\n      swap1\n      pop\n        /* \"#utility.yul\":8613:8622   */\n      dup2\n        /* \"#utility.yul\":8607:8611   */\n      dup2\n        /* \"#utility.yul\":8603:8623   */\n      sub\n        /* \"#utility.yul\":8599:8600   */\n      0x00\n        /* \"#utility.yul\":8588:8597   */\n      dup4\n        /* \"#utility.yul\":8584:8601   */\n      add\n        /* \"#utility.yul\":8577:8624   */\n      mstore\n        /* \"#utility.yul\":8641:8772   */\n      tag_215\n        /* \"#utility.yul\":8767:8771   */\n      dup2\n        /* \"#utility.yul\":8641:8772   */\n      tag_122\n      jump\t// in\n    tag_215:\n        /* \"#utility.yul\":8633:8772   */\n      swap1\n      pop\n        /* \"#utility.yul\":8360:8779   */\n      swap2\n      swap1\n      pop\n      jump\t// out\n        /* \"#utility.yul\":8785:8960   */\n    tag_123:\n        /* \"#utility.yul\":8925:8952   */\n      0x496e73756666696369656e7420706f6f6c207265736572766500000000000000\n        /* \"#utility.yul\":8921:8922   */\n      0x00\n        /* \"#utility.yul\":8913:8919   */\n      dup3\n        /* \"#utility.yul\":8909:8923   */\n      add\n        /* \"#utility.yul\":8902:8953   */\n      mstore\n        /* \"#utility.yul\":8785:8960   */\n      pop\n      jump\t// out\n        /* \"#utility.yul\":8966:9332   */\n    tag_124:\n        /* \"#utility.yul\":9108:9111   */\n      0x00\n        /* \"#utility.yul\":9129:9196   */\n      tag_218\n        /* \"#utility.yul\":9193:9195   */\n      0x19\n        /* \"#utility.yul\":9188:9191   */\n      dup4\n        /* \"#utility.yul\":9129:9196   */\n      tag_112\n      jump\t// in\n    tag_218:\n        /* \"#utility.yul\":9122:9196   */\n      swap2\n      pop\n        /* \"#utility.yul\":9205:9298   */\n      tag_219\n        /* \"#utility.yul\":9294:9297   */\n      dup3\n        /* \"#utility.yul\":9205:9298   */\n      tag_123\n      jump\t// in\n    tag_219:\n        /* \"#utility.yul\":9323:9325   */\n      0x20\n        /* \"#utility.yul\":9318:9321   */\n      dup3\n        /* \"#utility.yul\":9314:9326   */\n      add\n        /* \"#utility.yul\":9307:9326   */\n      swap1\n      pop\n        /* \"#utility.yul\":8966:9332   */\n      swap2\n      swap1\n      pop\n      jump\t// out\n        /* \"#utility.yul\":9338:9757   */\n    tag_72:\n        /* \"#utility.yul\":9504:9508   */\n      0x00\n        /* \"#utility.yul\":9542:9544   */\n      0x20\n        /* \"#utility.yul\":9531:9540   */\n      dup3\n        /* \"#utility.yul\":9527:9545   */\n      add\n        /* \"#utility.yul\":9519:9545   */\n      swap1\n      pop\n        /* \"#utility.yul\":9591:9600   */\n      dup2\n        /* \"#utility.yul\":9585:9589   */\n      dup2\n        /* \"#utility.yul\":9581:9601   */\n      sub\n        /* \"#utility.yul\":9577:9578   */\n      0x00\n        /* \"#utility.yul\":9566:9575   */\n      dup4\n        /* \"#utility.yul\":9562:9579   */\n      add\n        /* \"#utility.yul\":9555:9602   */\n      mstore\n        /* \"#utility.yul\":9619:9750   */\n      tag_221\n        /* \"#utility.yul\":9745:9749   */\n      dup2\n        /* \"#utility.yul\":9619:9750   */\n      tag_124\n      jump\t// in\n    tag_221:\n        /* \"#utility.yul\":9611:9750   */\n      swap1\n      pop\n        /* \"#utility.yul\":9338:9757   */\n      swap2\n      swap1\n      pop\n      jump\t// out\n        /* \"#utility.yul\":9763:9957   */\n    tag_74:\n        /* \"#utility.yul\":9803:9807   */\n      0x00\n        /* \"#utility.yul\":9823:9843   */\n      tag_223\n        /* \"#utility.yul\":9841:9842   */\n      dup3\n        /* \"#utility.yul\":9823:9843   */\n      tag_107\n      jump\t// in\n    tag_223:\n        /* \"#utility.yul\":9818:9843   */\n      swap2\n      pop\n        /* \"#utility.yul\":9857:9877   */\n      tag_224\n        /* \"#utility.yul\":9875:9876   */\n      dup4\n        /* \"#utility.yul\":9857:9877   */\n      tag_107\n      jump\t// in\n    tag_224:\n        /* \"#utility.yul\":9852:9877   */\n      swap3\n      pop\n        /* \"#utility.yul\":9901:9902   */\n      dup3\n        /* \"#utility.yul\":9898:9899   */\n      dup3\n        /* \"#utility.yul\":9894:9903   */\n      sub\n        /* \"#utility.yul\":9886:9903   */\n      swap1\n      pop\n        /* \"#utility.yul\":9925:9926   */\n      dup2\n        /* \"#utility.yul\":9919:9923   */\n      dup2\n        /* \"#utility.yul\":9916:9927   */\n      gt\n        /* \"#utility.yul\":9913:9950   */\n      iszero\n      tag_225\n      jumpi\n        /* \"#utility.yul\":9930:9948   */\n      tag_226\n      tag_118\n      jump\t// in\n    tag_226:\n        /* \"#utility.yul\":9913:9950   */\n    tag_225:\n        /* \"#utility.yul\":9763:9957   */\n      swap3\n      swap2\n      pop\n      pop\n      jump\t// out\n        /* \"#utility.yul\":9963:10140   */\n    tag_125:\n        /* \"#utility.yul\":10103:10132   */\n      0x506f6f6c206c697175696469747920696e73756666696369656e740000000000\n        /* \"#utility.yul\":10099:10100   */\n      0x00\n        /* \"#utility.yul\":10091:10097   */\n      dup3\n        /* \"#utility.yul\":10087:10101   */\n      add\n        /* \"#utility.yul\":10080:10133   */\n      mstore\n        /* \"#utility.yul\":9963:10140   */\n      pop\n      jump\t// out\n        /* \"#utility.yul\":10146:10512   */\n    tag_126:\n        /* \"#utility.yul\":10288:10291   */\n      0x00\n        /* \"#utility.yul\":10309:10376   */\n      tag_229\n        /* \"#utility.yul\":10373:10375   */\n      0x1b\n        /* \"#utility.yul\":10368:10371   */\n      dup4\n        /* \"#utility.yul\":10309:10376   */\n      tag_112\n      jump\t// in\n    tag_229:\n        /* \"#utility.yul\":10302:10376   */\n      swap2\n      pop\n        /* \"#utility.yul\":10385:10478   */\n      tag_230\n        /* \"#utility.yul\":10474:10477   */\n      dup3\n        /* \"#utility.yul\":10385:10478   */\n      tag_125\n      jump\t// in\n    tag_230:\n        /* \"#utility.yul\":10503:10505   */\n      0x20\n        /* \"#utility.yul\":10498:10501   */\n      dup3\n        /* \"#utility.yul\":10494:10506   */\n      add\n        /* \"#utility.yul\":10487:10506   */\n      swap1\n      pop\n        /* \"#utility.yul\":10146:10512   */\n      swap2\n      swap1\n      pop\n      jump\t// out\n        /* \"#utility.yul\":10518:10937   */\n    tag_84:\n        /* \"#utility.yul\":10684:10688   */\n      0x00\n        /* \"#utility.yul\":10722:10724   */\n      0x20\n        /* \"#utility.yul\":10711:10720   */\n      dup3\n        /* \"#utility.yul\":10707:10725   */\n      add\n        /* \"#utility.yul\":10699:10725   */\n      swap1\n      pop\n        /* \"#utility.yul\":10771:10780   */\n      dup2\n        /* \"#utility.yul\":10765:10769   */\n      dup2\n        /* \"#utility.yul\":10761:10781   */\n      sub\n        /* \"#utility.yul\":10757:10758   */\n      0x00\n        /* \"#utility.yul\":10746:10755   */\n      dup4\n        /* \"#utility.yul\":10742:10759   */\n      add\n        /* \"#utility.yul\":10735:10782   */\n      mstore\n        /* \"#utility.yul\":10799:10930   */\n      tag_232\n        /* \"#utility.yul\":10925:10929   */\n      dup2\n        /* \"#utility.yul\":10799:10930   */\n      tag_126\n      jump\t// in\n    tag_232:\n        /* \"#utility.yul\":10791:10930   */\n      swap1\n      pop\n        /* \"#utility.yul\":10518:10937   */\n      swap2\n      swap1\n      pop\n      jump\t// out\n        /* \"#utility.yul\":10943:11353   */\n    tag_91:\n        /* \"#utility.yul\":10983:10990   */\n      0x00\n        /* \"#utility.yul\":11006:11026   */\n      tag_234\n        /* \"#utility.yul\":11024:11025   */\n      dup3\n        /* \"#utility.yul\":11006:11026   */\n      tag_107\n      jump\t// in\n    tag_234:\n        /* \"#utility.yul\":11001:11026   */\n      swap2\n      pop\n        /* \"#utility.yul\":11040:11060   */\n      tag_235\n        /* \"#utility.yul\":11058:11059   */\n      dup4\n        /* \"#utility.yul\":11040:11060   */\n      tag_107\n      jump\t// in\n    tag_235:\n        /* \"#utility.yul\":11035:11060   */\n      swap3\n      pop\n        /* \"#utility.yul\":11095:11096   */\n      dup3\n        /* \"#utility.yul\":11092:11093   */\n      dup3\n        /* \"#utility.yul\":11088:11097   */\n      mul\n        /* \"#utility.yul\":11117:11147   */\n      tag_236\n        /* \"#utility.yul\":11135:11146   */\n      dup2\n        /* \"#utility.yul\":11117:11147   */\n      tag_107\n      jump\t// in\n    tag_236:\n        /* \"#utility.yul\":11106:11147   */\n      swap2\n      pop\n        /* \"#utility.yul\":11296:11297   */\n      dup3\n        /* \"#utility.yul\":11287:11294   */\n      dup3\n        /* \"#utility.yul\":11283:11298   */\n      div\n        /* \"#utility.yul\":11280:11281   */\n      dup5\n        /* \"#utility.yul\":11277:11299   */\n      eq\n        /* \"#utility.yul\":11257:11258   */\n      dup4\n        /* \"#utility.yul\":11250:11259   */\n      iszero\n        /* \"#utility.yul\":11230:11313   */\n      or\n        /* \"#utility.yul\":11207:11346   */\n      tag_237\n      jumpi\n        /* \"#utility.yul\":11326:11344   */\n      tag_238\n      tag_118\n      jump\t// in\n    tag_238:\n        /* \"#utility.yul\":11207:11346   */\n    tag_237:\n        /* \"#utility.yul\":10991:11353   */\n      pop\n        /* \"#utility.yul\":10943:11353   */\n      swap3\n      swap2\n      pop\n      pop\n      jump\t// out\n        /* \"#utility.yul\":11359:11539   */\n    tag_127:\n        /* \"#utility.yul\":11407:11484   */\n      0x4e487b7100000000000000000000000000000000000000000000000000000000\n        /* \"#utility.yul\":11404:11405   */\n      0x00\n        /* \"#utility.yul\":11397:11485   */\n      mstore\n        /* \"#utility.yul\":11504:11508   */\n      0x12\n        /* \"#utility.yul\":11501:11502   */\n      0x04\n        /* \"#utility.yul\":11494:11509   */\n      mstore\n        /* \"#utility.yul\":11528:11532   */\n      0x24\n        /* \"#utility.yul\":11525:11526   */\n      0x00\n        /* \"#utility.yul\":11518:11533   */\n      revert\n        /* \"#utility.yul\":11545:11730   */\n    tag_93:\n        /* \"#utility.yul\":11585:11586   */\n      0x00\n        /* \"#utility.yul\":11602:11622   */\n      tag_241\n        /* \"#utility.yul\":11620:11621   */\n      dup3\n        /* \"#utility.yul\":11602:11622   */\n      tag_107\n      jump\t// in\n    tag_241:\n        /* \"#utility.yul\":11597:11622   */\n      swap2\n      pop\n        /* \"#utility.yul\":11636:11656   */\n      tag_242\n        /* \"#utility.yul\":11654:11655   */\n      dup4\n        /* \"#utility.yul\":11636:11656   */\n      tag_107\n      jump\t// in\n    tag_242:\n        /* \"#utility.yul\":11631:11656   */\n      swap3\n      pop\n        /* \"#utility.yul\":11675:11676   */\n      dup3\n        /* \"#utility.yul\":11665:11700   */\n      tag_243\n      jumpi\n        /* \"#utility.yul\":11680:11698   */\n      tag_244\n      tag_127\n      jump\t// in\n    tag_244:\n        /* \"#utility.yul\":11665:11700   */\n    tag_243:\n        /* \"#utility.yul\":11722:11723   */\n      dup3\n        /* \"#utility.yul\":11719:11720   */\n      dup3\n        /* \"#utility.yul\":11715:11724   */\n      div\n        /* \"#utility.yul\":11710:11724   */\n      swap1\n      pop\n        /* \"#utility.yul\":11545:11730   */\n      swap3\n      swap2\n      pop\n      pop\n      jump\t// out\n\n    auxdata: 0xa26469706673582212203b0a248cab9ffbc292a083b1c47c29161458158a040b5766a3c21322a006125e64736f6c63430008220033\n}\n",
				"bytecode": {
					"linkReferences": {},
					"object": "6080604052348015600e575f5ffd5b50335f5f6101000a81548173ffffffffffffffffffffffffffffffffffffffff021916908373ffffffffffffffffffffffffffffffffffffffff1602179055506110ab8061005b5f395ff3fe608060405234801561000f575f5ffd5b506004361061007b575f3560e01c806395ccea671161005957806395ccea67146100e9578063a201ccf614610105578063d66bd52414610121578063df791e50146101515761007b565b8063019aa8021461007f57806356688700146100af5780638da5cb5b146100cb575b5f5ffd5b61009960048036038101906100949190610af6565b610181565b6040516100a69190610b4c565b60405180910390f35b6100c960048036038101906100c49190610b8f565b6101a1565b005b6100d3610346565b6040516100e09190610bdc565b60405180910390f35b61010360048036038101906100fe9190610b8f565b61036a565b005b61011f600480360381019061011a9190610b8f565b610498565b005b61013b60048036038101906101369190610bf5565b610776565b6040516101489190610b4c565b60405180910390f35b61016b60048036038101906101669190610c20565b61078b565b6040516101789190610b4c565b60405180910390f35b6002602052815f5260405f20602052805f5260405f205f91509150505481565b5f81116101e3576040517f08c379a00000000000000000000000000000000000000000000000000000000081526004016101da90610cca565b60405180910390fd5b8173ffffffffffffffffffffffffffffffffffffffff166323b872dd3330846040518463ffffffff1660e01b815260040161022093929190610ce8565b6020604051808303815f875af115801561023c573d5f5f3e3d5ffd5b505050506040513d601f19601f820116820180604052508101906102609190610d52565b508060015f8473ffffffffffffffffffffffffffffffffffffffff1673ffffffffffffffffffffffffffffffffffffffff1681526020019081526020015f205f8282546102ad9190610daa565b925050819055508060025f3373ffffffffffffffffffffffffffffffffffffffff1673ffffffffffffffffffffffffffffffffffffffff1681526020019081526020015f205f8473ffffffffffffffffffffffffffffffffffffffff1673ffffffffffffffffffffffffffffffffffffffff1681526020019081526020015f205f82825461033b9190610daa565b925050819055505050565b5f5f9054906101000a900473ffffffffffffffffffffffffffffffffffffffff1681565b5f5f9054906101000a900473ffffffffffffffffffffffffffffffffffffffff1673ffffffffffffffffffffffffffffffffffffffff163373ffffffffffffffffffffffffffffffffffffffff16146103f8576040517f08c379a00000000000000000000000000000000000000000000000000000000081526004016103ef90610e27565b60405180910390fd5b8173ffffffffffffffffffffffffffffffffffffffff1663a9059cbb5f5f9054906101000a900473ffffffffffffffffffffffffffffffffffffffff16836040518363ffffffff1660e01b8152600401610453929190610e45565b6020604051808303815f875af115801561046f573d5f5f3e3d5ffd5b505050506040513d601f19601f820116820180604052508101906104939190610d52565b505050565b5f81116104da576040517f08c379a00000000000000000000000000000000000000000000000000000000081526004016104d190610cca565b60405180910390fd5b8060025f3373ffffffffffffffffffffffffffffffffffffffff1673ffffffffffffffffffffffffffffffffffffffff1681526020019081526020015f205f8473ffffffffffffffffffffffffffffffffffffffff1673ffffffffffffffffffffffffffffffffffffffff1681526020019081526020015f20541015610595576040517f08c379a000000000000000000000000000000000000000000000000000000000815260040161058c90610eb6565b60405180910390fd5b8060015f8473ffffffffffffffffffffffffffffffffffffffff1673ffffffffffffffffffffffffffffffffffffffff1681526020019081526020015f20541015610615576040517f08c379a000000000000000000000000000000000000000000000000000000000815260040161060c90610f1e565b60405180910390fd5b8060025f3373ffffffffffffffffffffffffffffffffffffffff1673ffffffffffffffffffffffffffffffffffffffff1681526020019081526020015f205f8473ffffffffffffffffffffffffffffffffffffffff1673ffffffffffffffffffffffffffffffffffffffff1681526020019081526020015f205f82825461069c9190610f3c565b925050819055508060015f8473ffffffffffffffffffffffffffffffffffffffff1673ffffffffffffffffffffffffffffffffffffffff1681526020019081526020015f205f8282546106ef9190610f3c565b925050819055508173ffffffffffffffffffffffffffffffffffffffff1663a9059cbb33836040518363ffffffff1660e01b8152600401610731929190610e45565b6020604051808303815f875af115801561074d573d5f5f3e3d5ffd5b505050506040513d601f19601f820116820180604052508101906107719190610d52565b505050565b6001602052805f5260405f205f915090505481565b5f5f60015f8673ffffffffffffffffffffffffffffffffffffffff1673ffffffffffffffffffffffffffffffffffffffff1681526020019081526020015f205411801561081457505f60015f8573ffffffffffffffffffffffffffffffffffffffff1673ffffffffffffffffffffffffffffffffffffffff1681526020019081526020015f2054115b610853576040517f08c379a000000000000000000000000000000000000000000000000000000000815260040161084a90610fb9565b60405180910390fd5b8373ffffffffffffffffffffffffffffffffffffffff166323b872dd3330856040518463ffffffff1660e01b815260040161089093929190610ce8565b6020604051808303815f875af11580156108ac573d5f5f3e3d5ffd5b505050506040513d601f19601f820116820180604052508101906108d09190610d52565b508160015f8673ffffffffffffffffffffffffffffffffffffffff1673ffffffffffffffffffffffffffffffffffffffff1681526020019081526020015f205461091a9190610daa565b60015f8573ffffffffffffffffffffffffffffffffffffffff1673ffffffffffffffffffffffffffffffffffffffff1681526020019081526020015f2054836109639190610fd7565b61096d9190611045565b90508160015f8673ffffffffffffffffffffffffffffffffffffffff1673ffffffffffffffffffffffffffffffffffffffff1681526020019081526020015f205f8282546109bb9190610daa565b925050819055508060015f8573ffffffffffffffffffffffffffffffffffffffff1673ffffffffffffffffffffffffffffffffffffffff1681526020019081526020015f205f828254610a0e9190610f3c565b925050819055508273ffffffffffffffffffffffffffffffffffffffff1663a9059cbb33836040518363ffffffff1660e01b8152600401610a50929190610e45565b6020604051808303815f875af1158015610a6c573d5f5f3e3d5ffd5b505050506040513d601f19601f82011682018060405250810190610a909190610d52565b509392505050565b5f5ffd5b5f73ffffffffffffffffffffffffffffffffffffffff82169050919050565b5f610ac582610a9c565b9050919050565b610ad581610abb565b8114610adf575f5ffd5b50565b5f81359050610af081610acc565b92915050565b5f5f60408385031215610b0c57610b0b610a98565b5b5f610b1985828601610ae2565b9250506020610b2a85828601610ae2565b9150509250929050565b5f819050919050565b610b4681610b34565b82525050565b5f602082019050610b5f5f830184610b3d565b92915050565b610b6e81610b34565b8114610b78575f5ffd5b50565b5f81359050610b8981610b65565b92915050565b5f5f60408385031215610ba557610ba4610a98565b5b5f610bb285828601610ae2565b9250506020610bc385828601610b7b565b9150509250929050565b610bd681610abb565b82525050565b5f602082019050610bef5f830184610bcd565b92915050565b5f60208284031215610c0a57610c09610a98565b5b5f610c1784828501610ae2565b91505092915050565b5f5f5f60608486031215610c3757610c36610a98565b5b5f610c4486828701610ae2565b9350506020610c5586828701610ae2565b9250506040610c6686828701610b7b565b9150509250925092565b5f82825260208201905092915050565b7f416d6f756e74206d757374206265203e203000000000000000000000000000005f82015250565b5f610cb4601283610c70565b9150610cbf82610c80565b602082019050919050565b5f6020820190508181035f830152610ce181610ca8565b9050919050565b5f606082019050610cfb5f830186610bcd565b610d086020830185610bcd565b610d156040830184610b3d565b949350505050565b5f8115159050919050565b610d3181610d1d565b8114610d3b575f5ffd5b50565b5f81519050610d4c81610d28565b92915050565b5f60208284031215610d6757610d66610a98565b5b5f610d7484828501610d3e565b91505092915050565b7f4e487b71000000000000000000000000000000000000000000000000000000005f52601160045260245ffd5b5f610db482610b34565b9150610dbf83610b34565b9250828201905080821115610dd757610dd6610d7d565b5b92915050565b7f4e6f74206f776e657200000000000000000000000000000000000000000000005f82015250565b5f610e11600983610c70565b9150610e1c82610ddd565b602082019050919050565b5f6020820190508181035f830152610e3e81610e05565b9050919050565b5f604082019050610e585f830185610bcd565b610e656020830184610b3d565b9392505050565b7f496e73756666696369656e74204c502062616c616e63650000000000000000005f82015250565b5f610ea0601783610c70565b9150610eab82610e6c565b602082019050919050565b5f6020820190508181035f830152610ecd81610e94565b9050919050565b7f496e73756666696369656e7420706f6f6c2072657365727665000000000000005f82015250565b5f610f08601983610c70565b9150610f1382610ed4565b602082019050919050565b5f6020820190508181035f830152610f3581610efc565b9050919050565b5f610f4682610b34565b9150610f5183610b34565b9250828203905081811115610f6957610f68610d7d565b5b92915050565b7f506f6f6c206c697175696469747920696e73756666696369656e7400000000005f82015250565b5f610fa3601b83610c70565b9150610fae82610f6f565b602082019050919050565b5f6020820190508181035f830152610fd081610f97565b9050919050565b5f610fe182610b34565b9150610fec83610b34565b9250828202610ffa81610b34565b9150828204841483151761101157611010610d7d565b5b5092915050565b7f4e487b71000000000000000000000000000000000000000000000000000000005f52601260045260245ffd5b5f61104f82610b34565b915061105a83610b34565b92508261106a57611069611018565b5b82820490509291505056fea26469706673582212203b0a248cab9ffbc292a083b1c47c29161458158a040b5766a3c21322a006125e64736f6c63430008220033",
					"opcodes": "PUSH1 0x80 PUSH1 0x40 MSTORE CALLVALUE DUP1 ISZERO PUSH1 0xE JUMPI PUSH0 PUSH0 REVERT JUMPDEST POP CALLER PUSH0 PUSH0 PUSH2 0x100 EXP DUP2 SLOAD DUP2 PUSH20 0xFFFFFFFFFFFFFFFFFFFFFFFFFFFFFFFFFFFFFFFF MUL NOT AND SWAP1 DUP4 PUSH20 0xFFFFFFFFFFFFFFFFFFFFFFFFFFFFFFFFFFFFFFFF AND MUL OR SWAP1 SSTORE POP PUSH2 0x10AB DUP1 PUSH2 0x5B PUSH0 CODECOPY PUSH0 RETURN INVALID PUSH1 0x80 PUSH1 0x40 MSTORE CALLVALUE DUP1 ISZERO PUSH2 0xF JUMPI PUSH0 PUSH0 REVERT JUMPDEST POP PUSH1 0x4 CALLDATASIZE LT PUSH2 0x7B JUMPI PUSH0 CALLDATALOAD PUSH1 0xE0 SHR DUP1 PUSH4 0x95CCEA67 GT PUSH2 0x59 JUMPI DUP1 PUSH4 0x95CCEA67 EQ PUSH2 0xE9 JUMPI DUP1 PUSH4 0xA201CCF6 EQ PUSH2 0x105 JUMPI DUP1 PUSH4 0xD66BD524 EQ PUSH2 0x121 JUMPI DUP1 PUSH4 0xDF791E50 EQ PUSH2 0x151 JUMPI PUSH2 0x7B JUMP JUMPDEST DUP1 PUSH4 0x19AA802 EQ PUSH2 0x7F JUMPI DUP1 PUSH4 0x56688700 EQ PUSH2 0xAF JUMPI DUP1 PUSH4 0x8DA5CB5B EQ PUSH2 0xCB JUMPI JUMPDEST PUSH0 PUSH0 REVERT JUMPDEST PUSH2 0x99 PUSH1 0x4 DUP1 CALLDATASIZE SUB DUP2 ADD SWAP1 PUSH2 0x94 SWAP2 SWAP1 PUSH2 0xAF6 JUMP JUMPDEST PUSH2 0x181 JUMP JUMPDEST PUSH1 0x40 MLOAD PUSH2 0xA6 SWAP2 SWAP1 PUSH2 0xB4C JUMP JUMPDEST PUSH1 0x40 MLOAD DUP1 SWAP2 SUB SWAP1 RETURN JUMPDEST PUSH2 0xC9 PUSH1 0x4 DUP1 CALLDATASIZE SUB DUP2 ADD SWAP1 PUSH2 0xC4 SWAP2 SWAP1 PUSH2 0xB8F JUMP JUMPDEST PUSH2 0x1A1 JUMP JUMPDEST STOP JUMPDEST PUSH2 0xD3 PUSH2 0x346 JUMP JUMPDEST PUSH1 0x40 MLOAD PUSH2 0xE0 SWAP2 SWAP1 PUSH2 0xBDC JUMP JUMPDEST PUSH1 0x40 MLOAD DUP1 SWAP2 SUB SWAP1 RETURN JUMPDEST PUSH2 0x103 PUSH1 0x4 DUP1 CALLDATASIZE SUB DUP2 ADD SWAP1 PUSH2 0xFE SWAP2 SWAP1 PUSH2 0xB8F JUMP JUMPDEST PUSH2 0x36A JUMP JUMPDEST STOP JUMPDEST PUSH2 0x11F PUSH1 0x4 DUP1 CALLDATASIZE SUB DUP2 ADD SWAP1 PUSH2 0x11A SWAP2 SWAP1 PUSH2 0xB8F JUMP JUMPDEST PUSH2 0x498 JUMP JUMPDEST STOP JUMPDEST PUSH2 0x13B PUSH1 0x4 DUP1 CALLDATASIZE SUB DUP2 ADD SWAP1 PUSH2 0x136 SWAP2 SWAP1 PUSH2 0xBF5 JUMP JUMPDEST PUSH2 0x776 JUMP JUMPDEST PUSH1 0x40 MLOAD PUSH2 0x148 SWAP2 SWAP1 PUSH2 0xB4C JUMP JUMPDEST PUSH1 0x40 MLOAD DUP1 SWAP2 SUB SWAP1 RETURN JUMPDEST PUSH2 0x16B PUSH1 0x4 DUP1 CALLDATASIZE SUB DUP2 ADD SWAP1 PUSH2 0x166 SWAP2 SWAP1 PUSH2 0xC20 JUMP JUMPDEST PUSH2 0x78B JUMP JUMPDEST PUSH1 0x40 MLOAD PUSH2 0x178 SWAP2 SWAP1 PUSH2 0xB4C JUMP JUMPDEST PUSH1 0x40 MLOAD DUP1 SWAP2 SUB SWAP1 RETURN JUMPDEST PUSH1 0x2 PUSH1 0x20 MSTORE DUP2 PUSH0 MSTORE PUSH1 0x40 PUSH0 KECCAK256 PUSH1 0x20 MSTORE DUP1 PUSH0 MSTORE PUSH1 0x40 PUSH0 KECCAK256 PUSH0 SWAP2 POP SWAP2 POP POP SLOAD DUP2 JUMP JUMPDEST PUSH0 DUP2 GT PUSH2 0x1E3 JUMPI PUSH1 0x40 MLOAD PUSH32 0x8C379A000000000000000000000000000000000000000000000000000000000 DUP2 MSTORE PUSH1 0x4 ADD PUSH2 0x1DA SWAP1 PUSH2 0xCCA JUMP JUMPDEST PUSH1 0x40 MLOAD DUP1 SWAP2 SUB SWAP1 REVERT JUMPDEST DUP2 PUSH20 0xFFFFFFFFFFFFFFFFFFFFFFFFFFFFFFFFFFFFFFFF AND PUSH4 0x23B872DD CALLER ADDRESS DUP5 PUSH1 0x40 MLOAD DUP5 PUSH4 0xFFFFFFFF AND PUSH1 0xE0 SHL DUP2 MSTORE PUSH1 0x4 ADD PUSH2 0x220 SWAP4 SWAP3 SWAP2 SWAP1 PUSH2 0xCE8 JUMP JUMPDEST PUSH1 0x20 PUSH1 0x40 MLOAD DUP1 DUP4 SUB DUP2 PUSH0 DUP8 GAS CALL ISZERO DUP1 ISZERO PUSH2 0x23C JUMPI RETURNDATASIZE PUSH0 PUSH0 RETURNDATACOPY RETURNDATASIZE PUSH0 REVERT JUMPDEST POP POP POP POP PUSH1 0x40 MLOAD RETURNDATASIZE PUSH1 0x1F NOT PUSH1 0x1F DUP3 ADD AND DUP3 ADD DUP1 PUSH1 0x40 MSTORE POP DUP2 ADD SWAP1 PUSH2 0x260 SWAP2 SWAP1 PUSH2 0xD52 JUMP JUMPDEST POP DUP1 PUSH1 0x1 PUSH0 DUP5 PUSH20 0xFFFFFFFFFFFFFFFFFFFFFFFFFFFFFFFFFFFFFFFF AND PUSH20 0xFFFFFFFFFFFFFFFFFFFFFFFFFFFFFFFFFFFFFFFF AND DUP2 MSTORE PUSH1 0x20 ADD SWAP1 DUP2 MSTORE PUSH1 0x20 ADD PUSH0 KECCAK256 PUSH0 DUP3 DUP3 SLOAD PUSH2 0x2AD SWAP2 SWAP1 PUSH2 0xDAA JUMP JUMPDEST SWAP3 POP POP DUP2 SWAP1 SSTORE POP DUP1 PUSH1 0x2 PUSH0 CALLER PUSH20 0xFFFFFFFFFFFFFFFFFFFFFFFFFFFFFFFFFFFFFFFF AND PUSH20 0xFFFFFFFFFFFFFFFFFFFFFFFFFFFFFFFFFFFFFFFF AND DUP2 MSTORE PUSH1 0x20 ADD SWAP1 DUP2 MSTORE PUSH1 0x20 ADD PUSH0 KECCAK256 PUSH0 DUP5 PUSH20 0xFFFFFFFFFFFFFFFFFFFFFFFFFFFFFFFFFFFFFFFF AND PUSH20 0xFFFFFFFFFFFFFFFFFFFFFFFFFFFFFFFFFFFFFFFF AND DUP2 MSTORE PUSH1 0x20 ADD SWAP1 DUP2 MSTORE PUSH1 0x20 ADD PUSH0 KECCAK256 PUSH0 DUP3 DUP3 SLOAD PUSH2 0x33B SWAP2 SWAP1 PUSH2 0xDAA JUMP JUMPDEST SWAP3 POP POP DUP2 SWAP1 SSTORE POP POP POP JUMP JUMPDEST PUSH0 PUSH0 SWAP1 SLOAD SWAP1 PUSH2 0x100 EXP SWAP1 DIV PUSH20 0xFFFFFFFFFFFFFFFFFFFFFFFFFFFFFFFFFFFFFFFF AND DUP2 JUMP JUMPDEST PUSH0 PUSH0 SWAP1 SLOAD SWAP1 PUSH2 0x100 EXP SWAP1 DIV PUSH20 0xFFFFFFFFFFFFFFFFFFFFFFFFFFFFFFFFFFFFFFFF AND PUSH20 0xFFFFFFFFFFFFFFFFFFFFFFFFFFFFFFFFFFFFFFFF AND CALLER PUSH20 0xFFFFFFFFFFFFFFFFFFFFFFFFFFFFFFFFFFFFFFFF AND EQ PUSH2 0x3F8 JUMPI PUSH1 0x40 MLOAD PUSH32 0x8C379A000000000000000000000000000000000000000000000000000000000 DUP2 MSTORE PUSH1 0x4 ADD PUSH2 0x3EF SWAP1 PUSH2 0xE27 JUMP JUMPDEST PUSH1 0x40 MLOAD DUP1 SWAP2 SUB SWAP1 REVERT JUMPDEST DUP2 PUSH20 0xFFFFFFFFFFFFFFFFFFFFFFFFFFFFFFFFFFFFFFFF AND PUSH4 0xA9059CBB PUSH0 PUSH0 SWAP1 SLOAD SWAP1 PUSH2 0x100 EXP SWAP1 DIV PUSH20 0xFFFFFFFFFFFFFFFFFFFFFFFFFFFFFFFFFFFFFFFF AND DUP4 PUSH1 0x40 MLOAD DUP4 PUSH4 0xFFFFFFFF AND PUSH1 0xE0 SHL DUP2 MSTORE PUSH1 0x4 ADD PUSH2 0x453 SWAP3 SWAP2 SWAP1 PUSH2 0xE45 JUMP JUMPDEST PUSH1 0x20 PUSH1 0x40 MLOAD DUP1 DUP4 SUB DUP2 PUSH0 DUP8 GAS CALL ISZERO DUP1 ISZERO PUSH2 0x46F JUMPI RETURNDATASIZE PUSH0 PUSH0 RETURNDATACOPY RETURNDATASIZE PUSH0 REVERT JUMPDEST POP POP POP POP PUSH1 0x40 MLOAD RETURNDATASIZE PUSH1 0x1F NOT PUSH1 0x1F DUP3 ADD AND DUP3 ADD DUP1 PUSH1 0x40 MSTORE POP DUP2 ADD SWAP1 PUSH2 0x493 SWAP2 SWAP1 PUSH2 0xD52 JUMP JUMPDEST POP POP POP JUMP JUMPDEST PUSH0 DUP2 GT PUSH2 0x4DA JUMPI PUSH1 0x40 MLOAD PUSH32 0x8C379A000000000000000000000000000000000000000000000000000000000 DUP2 MSTORE PUSH1 0x4 ADD PUSH2 0x4D1 SWAP1 PUSH2 0xCCA JUMP JUMPDEST PUSH1 0x40 MLOAD DUP1 SWAP2 SUB SWAP1 REVERT JUMPDEST DUP1 PUSH1 0x2 PUSH0 CALLER PUSH20 0xFFFFFFFFFFFFFFFFFFFFFFFFFFFFFFFFFFFFFFFF AND PUSH20 0xFFFFFFFFFFFFFFFFFFFFFFFFFFFFFFFFFFFFFFFF AND DUP2 MSTORE PUSH1 0x20 ADD SWAP1 DUP2 MSTORE PUSH1 0x20 ADD PUSH0 KECCAK256 PUSH0 DUP5 PUSH20 0xFFFFFFFFFFFFFFFFFFFFFFFFFFFFFFFFFFFFFFFF AND PUSH20 0xFFFFFFFFFFFFFFFFFFFFFFFFFFFFFFFFFFFFFFFF AND DUP2 MSTORE PUSH1 0x20 ADD SWAP1 DUP2 MSTORE PUSH1 0x20 ADD PUSH0 KECCAK256 SLOAD LT ISZERO PUSH2 0x595 JUMPI PUSH1 0x40 MLOAD PUSH32 0x8C379A000000000000000000000000000000000000000000000000000000000 DUP2 MSTORE PUSH1 0x4 ADD PUSH2 0x58C SWAP1 PUSH2 0xEB6 JUMP JUMPDEST PUSH1 0x40 MLOAD DUP1 SWAP2 SUB SWAP1 REVERT JUMPDEST DUP1 PUSH1 0x1 PUSH0 DUP5 PUSH20 0xFFFFFFFFFFFFFFFFFFFFFFFFFFFFFFFFFFFFFFFF AND PUSH20 0xFFFFFFFFFFFFFFFFFFFFFFFFFFFFFFFFFFFFFFFF AND DUP2 MSTORE PUSH1 0x20 ADD SWAP1 DUP2 MSTORE PUSH1 0x20 ADD PUSH0 KECCAK256 SLOAD LT ISZERO PUSH2 0x615 JUMPI PUSH1 0x40 MLOAD PUSH32 0x8C379A000000000000000000000000000000000000000000000000000000000 DUP2 MSTORE PUSH1 0x4 ADD PUSH2 0x60C SWAP1 PUSH2 0xF1E JUMP JUMPDEST PUSH1 0x40 MLOAD DUP1 SWAP2 SUB SWAP1 REVERT JUMPDEST DUP1 PUSH1 0x2 PUSH0 CALLER PUSH20 0xFFFFFFFFFFFFFFFFFFFFFFFFFFFFFFFFFFFFFFFF AND PUSH20 0xFFFFFFFFFFFFFFFFFFFFFFFFFFFFFFFFFFFFFFFF AND DUP2 MSTORE PUSH1 0x20 ADD SWAP1 DUP2 MSTORE PUSH1 0x20 ADD PUSH0 KECCAK256 PUSH0 DUP5 PUSH20 0xFFFFFFFFFFFFFFFFFFFFFFFFFFFFFFFFFFFFFFFF AND PUSH20 0xFFFFFFFFFFFFFFFFFFFFFFFFFFFFFFFFFFFFFFFF AND DUP2 MSTORE PUSH1 0x20 ADD SWAP1 DUP2 MSTORE PUSH1 0x20 ADD PUSH0 KECCAK256 PUSH0 DUP3 DUP3 SLOAD PUSH2 0x69C SWAP2 SWAP1 PUSH2 0xF3C JUMP JUMPDEST SWAP3 POP POP DUP2 SWAP1 SSTORE POP DUP1 PUSH1 0x1 PUSH0 DUP5 PUSH20 0xFFFFFFFFFFFFFFFFFFFFFFFFFFFFFFFFFFFFFFFF AND PUSH20 0xFFFFFFFFFFFFFFFFFFFFFFFFFFFFFFFFFFFFFFFF AND DUP2 MSTORE PUSH1 0x20 ADD SWAP1 DUP2 MSTORE PUSH1 0x20 ADD PUSH0 KECCAK256 PUSH0 DUP3 DUP3 SLOAD PUSH2 0x6EF SWAP2 SWAP1 PUSH2 0xF3C JUMP JUMPDEST SWAP3 POP POP DUP2 SWAP1 SSTORE POP DUP2 PUSH20 0xFFFFFFFFFFFFFFFFFFFFFFFFFFFFFFFFFFFFFFFF AND PUSH4 0xA9059CBB CALLER DUP4 PUSH1 0x40 MLOAD DUP4 PUSH4 0xFFFFFFFF AND PUSH1 0xE0 SHL DUP2 MSTORE PUSH1 0x4 ADD PUSH2 0x731 SWAP3 SWAP2 SWAP1 PUSH2 0xE45 JUMP JUMPDEST PUSH1 0x20 PUSH1 0x40 MLOAD DUP1 DUP4 SUB DUP2 PUSH0 DUP8 GAS CALL ISZERO DUP1 ISZERO PUSH2 0x74D JUMPI RETURNDATASIZE PUSH0 PUSH0 RETURNDATACOPY RETURNDATASIZE PUSH0 REVERT JUMPDEST POP POP POP POP PUSH1 0x40 MLOAD RETURNDATASIZE PUSH1 0x1F NOT PUSH1 0x1F DUP3 ADD AND DUP3 ADD DUP1 PUSH1 0x40 MSTORE POP DUP2 ADD SWAP1 PUSH2 0x771 SWAP2 SWAP1 PUSH2 0xD52 JUMP JUMPDEST POP POP POP JUMP JUMPDEST PUSH1 0x1 PUSH1 0x20 MSTORE DUP1 PUSH0 MSTORE PUSH1 0x40 PUSH0 KECCAK256 PUSH0 SWAP2 POP SWAP1 POP SLOAD DUP2 JUMP JUMPDEST PUSH0 PUSH0 PUSH1 0x1 PUSH0 DUP7 PUSH20 0xFFFFFFFFFFFFFFFFFFFFFFFFFFFFFFFFFFFFFFFF AND PUSH20 0xFFFFFFFFFFFFFFFFFFFFFFFFFFFFFFFFFFFFFFFF AND DUP2 MSTORE PUSH1 0x20 ADD SWAP1 DUP2 MSTORE PUSH1 0x20 ADD PUSH0 KECCAK256 SLOAD GT DUP1 ISZERO PUSH2 0x814 JUMPI POP PUSH0 PUSH1 0x1 PUSH0 DUP6 PUSH20 0xFFFFFFFFFFFFFFFFFFFFFFFFFFFFFFFFFFFFFFFF AND PUSH20 0xFFFFFFFFFFFFFFFFFFFFFFFFFFFFFFFFFFFFFFFF AND DUP2 MSTORE PUSH1 0x20 ADD SWAP1 DUP2 MSTORE PUSH1 0x20 ADD PUSH0 KECCAK256 SLOAD GT JUMPDEST PUSH2 0x853 JUMPI PUSH1 0x40 MLOAD PUSH32 0x8C379A000000000000000000000000000000000000000000000000000000000 DUP2 MSTORE PUSH1 0x4 ADD PUSH2 0x84A SWAP1 PUSH2 0xFB9 JUMP JUMPDEST PUSH1 0x40 MLOAD DUP1 SWAP2 SUB SWAP1 REVERT JUMPDEST DUP4 PUSH20 0xFFFFFFFFFFFFFFFFFFFFFFFFFFFFFFFFFFFFFFFF AND PUSH4 0x23B872DD CALLER ADDRESS DUP6 PUSH1 0x40 MLOAD DUP5 PUSH4 0xFFFFFFFF AND PUSH1 0xE0 SHL DUP2 MSTORE PUSH1 0x4 ADD PUSH2 0x890 SWAP4 SWAP3 SWAP2 SWAP1 PUSH2 0xCE8 JUMP JUMPDEST PUSH1 0x20 PUSH1 0x40 MLOAD DUP1 DUP4 SUB DUP2 PUSH0 DUP8 GAS CALL ISZERO DUP1 ISZERO PUSH2 0x8AC JUMPI RETURNDATASIZE PUSH0 PUSH0 RETURNDATACOPY RETURNDATASIZE PUSH0 REVERT JUMPDEST POP POP POP POP PUSH1 0x40 MLOAD RETURNDATASIZE PUSH1 0x1F NOT PUSH1 0x1F DUP3 ADD AND DUP3 ADD DUP1 PUSH1 0x40 MSTORE POP DUP2 ADD SWAP1 PUSH2 0x8D0 SWAP2 SWAP1 PUSH2 0xD52 JUMP JUMPDEST POP DUP2 PUSH1 0x1 PUSH0 DUP7 PUSH20 0xFFFFFFFFFFFFFFFFFFFFFFFFFFFFFFFFFFFFFFFF AND PUSH20 0xFFFFFFFFFFFFFFFFFFFFFFFFFFFFFFFFFFFFFFFF AND DUP2 MSTORE PUSH1 0x20 ADD SWAP1 DUP2 MSTORE PUSH1 0x20 ADD PUSH0 KECCAK256 SLOAD PUSH2 0x91A SWAP2 SWAP1 PUSH2 0xDAA JUMP JUMPDEST PUSH1 0x1 PUSH0 DUP6 PUSH20 0xFFFFFFFFFFFFFFFFFFFFFFFFFFFFFFFFFFFFFFFF AND PUSH20 0xFFFFFFFFFFFFFFFFFFFFFFFFFFFFFFFFFFFFFFFF AND DUP2 MSTORE PUSH1 0x20 ADD SWAP1 DUP2 MSTORE PUSH1 0x20 ADD PUSH0 KECCAK256 SLOAD DUP4 PUSH2 0x963 SWAP2 SWAP1 PUSH2 0xFD7 JUMP JUMPDEST PUSH2 0x96D SWAP2 SWAP1 PUSH2 0x1045 JUMP JUMPDEST SWAP1 POP DUP2 PUSH1 0x1 PUSH0 DUP7 PUSH20 0xFFFFFFFFFFFFFFFFFFFFFFFFFFFFFFFFFFFFFFFF AND PUSH20 0xFFFFFFFFFFFFFFFFFFFFFFFFFFFFFFFFFFFFFFFF AND DUP2 MSTORE PUSH1 0x20 ADD SWAP1 DUP2 MSTORE PUSH1 0x20 ADD PUSH0 KECCAK256 PUSH0 DUP3 DUP3 SLOAD PUSH2 0x9BB SWAP2 SWAP1 PUSH2 0xDAA JUMP JUMPDEST SWAP3 POP POP DUP2 SWAP1 SSTORE POP DUP1 PUSH1 0x1 PUSH0 DUP6 PUSH20 0xFFFFFFFFFFFFFFFFFFFFFFFFFFFFFFFFFFFFFFFF AND PUSH20 0xFFFFFFFFFFFFFFFFFFFFFFFFFFFFFFFFFFFFFFFF AND DUP2 MSTORE PUSH1 0x20 ADD SWAP1 DUP2 MSTORE PUSH1 0x20 ADD PUSH0 KECCAK256 PUSH0 DUP3 DUP3 SLOAD PUSH2 0xA0E SWAP2 SWAP1 PUSH2 0xF3C JUMP JUMPDEST SWAP3 POP POP DUP2 SWAP1 SSTORE POP DUP3 PUSH20 0xFFFFFFFFFFFFFFFFFFFFFFFFFFFFFFFFFFFFFFFF AND PUSH4 0xA9059CBB CALLER DUP4 PUSH1 0x40 MLOAD DUP4 PUSH4 0xFFFFFFFF AND PUSH1 0xE0 SHL DUP2 MSTORE PUSH1 0x4 ADD PUSH2 0xA50 SWAP3 SWAP2 SWAP1 PUSH2 0xE45 JUMP JUMPDEST PUSH1 0x20 PUSH1 0x40 MLOAD DUP1 DUP4 SUB DUP2 PUSH0 DUP8 GAS CALL ISZERO DUP1 ISZERO PUSH2 0xA6C JUMPI RETURNDATASIZE PUSH0 PUSH0 RETURNDATACOPY RETURNDATASIZE PUSH0 REVERT JUMPDEST POP POP POP POP PUSH1 0x40 MLOAD RETURNDATASIZE PUSH1 0x1F NOT PUSH1 0x1F DUP3 ADD AND DUP3 ADD DUP1 PUSH1 0x40 MSTORE POP DUP2 ADD SWAP1 PUSH2 0xA90 SWAP2 SWAP1 PUSH2 0xD52 JUMP JUMPDEST POP SWAP4 SWAP3 POP POP POP JUMP JUMPDEST PUSH0 PUSH0 REVERT JUMPDEST PUSH0 PUSH20 0xFFFFFFFFFFFFFFFFFFFFFFFFFFFFFFFFFFFFFFFF DUP3 AND SWAP1 POP SWAP2 SWAP1 POP JUMP JUMPDEST PUSH0 PUSH2 0xAC5 DUP3 PUSH2 0xA9C JUMP JUMPDEST SWAP1 POP SWAP2 SWAP1 POP JUMP JUMPDEST PUSH2 0xAD5 DUP2 PUSH2 0xABB JUMP JUMPDEST DUP2 EQ PUSH2 0xADF JUMPI PUSH0 PUSH0 REVERT JUMPDEST POP JUMP JUMPDEST PUSH0 DUP2 CALLDATALOAD SWAP1 POP PUSH2 0xAF0 DUP2 PUSH2 0xACC JUMP JUMPDEST SWAP3 SWAP2 POP POP JUMP JUMPDEST PUSH0 PUSH0 PUSH1 0x40 DUP4 DUP6 SUB SLT ISZERO PUSH2 0xB0C JUMPI PUSH2 0xB0B PUSH2 0xA98 JUMP JUMPDEST JUMPDEST PUSH0 PUSH2 0xB19 DUP6 DUP3 DUP7 ADD PUSH2 0xAE2 JUMP JUMPDEST SWAP3 POP POP PUSH1 0x20 PUSH2 0xB2A DUP6 DUP3 DUP7 ADD PUSH2 0xAE2 JUMP JUMPDEST SWAP2 POP POP SWAP3 POP SWAP3 SWAP1 POP JUMP JUMPDEST PUSH0 DUP2 SWAP1 POP SWAP2 SWAP1 POP JUMP JUMPDEST PUSH2 0xB46 DUP2 PUSH2 0xB34 JUMP JUMPDEST DUP3 MSTORE POP POP JUMP JUMPDEST PUSH0 PUSH1 0x20 DUP3 ADD SWAP1 POP PUSH2 0xB5F PUSH0 DUP4 ADD DUP5 PUSH2 0xB3D JUMP JUMPDEST SWAP3 SWAP2 POP POP JUMP JUMPDEST PUSH2 0xB6E DUP2 PUSH2 0xB34 JUMP JUMPDEST DUP2 EQ PUSH2 0xB78 JUMPI PUSH0 PUSH0 REVERT JUMPDEST POP JUMP JUMPDEST PUSH0 DUP2 CALLDATALOAD SWAP1 POP PUSH2 0xB89 DUP2 PUSH2 0xB65 JUMP JUMPDEST SWAP3 SWAP2 POP POP JUMP JUMPDEST PUSH0 PUSH0 PUSH1 0x40 DUP4 DUP6 SUB SLT ISZERO PUSH2 0xBA5 JUMPI PUSH2 0xBA4 PUSH2 0xA98 JUMP JUMPDEST JUMPDEST PUSH0 PUSH2 0xBB2 DUP6 DUP3 DUP7 ADD PUSH2 0xAE2 JUMP JUMPDEST SWAP3 POP POP PUSH1 0x20 PUSH2 0xBC3 DUP6 DUP3 DUP7 ADD PUSH2 0xB7B JUMP JUMPDEST SWAP2 POP POP SWAP3 POP SWAP3 SWAP1 POP JUMP JUMPDEST PUSH2 0xBD6 DUP2 PUSH2 0xABB JUMP JUMPDEST DUP3 MSTORE POP POP JUMP JUMPDEST PUSH0 PUSH1 0x20 DUP3 ADD SWAP1 POP PUSH2 0xBEF PUSH0 DUP4 ADD DUP5 PUSH2 0xBCD JUMP JUMPDEST SWAP3 SWAP2 POP POP JUMP JUMPDEST PUSH0 PUSH1 0x20 DUP3 DUP5 SUB SLT ISZERO PUSH2 0xC0A JUMPI PUSH2 0xC09 PUSH2 0xA98 JUMP JUMPDEST JUMPDEST PUSH0 PUSH2 0xC17 DUP5 DUP3 DUP6 ADD PUSH2 0xAE2 JUMP JUMPDEST SWAP2 POP POP SWAP3 SWAP2 POP POP JUMP JUMPDEST PUSH0 PUSH0 PUSH0 PUSH1 0x60 DUP5 DUP7 SUB SLT ISZERO PUSH2 0xC37 JUMPI PUSH2 0xC36 PUSH2 0xA98 JUMP JUMPDEST JUMPDEST PUSH0 PUSH2 0xC44 DUP7 DUP3 DUP8 ADD PUSH2 0xAE2 JUMP JUMPDEST SWAP4 POP POP PUSH1 0x20 PUSH2 0xC55 DUP7 DUP3 DUP8 ADD PUSH2 0xAE2 JUMP JUMPDEST SWAP3 POP POP PUSH1 0x40 PUSH2 0xC66 DUP7 DUP3 DUP8 ADD PUSH2 0xB7B JUMP JUMPDEST SWAP2 POP POP SWAP3 POP SWAP3 POP SWAP3 JUMP JUMPDEST PUSH0 DUP3 DUP3 MSTORE PUSH1 0x20 DUP3 ADD SWAP1 POP SWAP3 SWAP2 POP POP JUMP JUMPDEST PUSH32 0x416D6F756E74206D757374206265203E20300000000000000000000000000000 PUSH0 DUP3 ADD MSTORE POP JUMP JUMPDEST PUSH0 PUSH2 0xCB4 PUSH1 0x12 DUP4 PUSH2 0xC70 JUMP JUMPDEST SWAP2 POP PUSH2 0xCBF DUP3 PUSH2 0xC80 JUMP JUMPDEST PUSH1 0x20 DUP3 ADD SWAP1 POP SWAP2 SWAP1 POP JUMP JUMPDEST PUSH0 PUSH1 0x20 DUP3 ADD SWAP1 POP DUP2 DUP2 SUB PUSH0 DUP4 ADD MSTORE PUSH2 0xCE1 DUP2 PUSH2 0xCA8 JUMP JUMPDEST SWAP1 POP SWAP2 SWAP1 POP JUMP JUMPDEST PUSH0 PUSH1 0x60 DUP3 ADD SWAP1 POP PUSH2 0xCFB PUSH0 DUP4 ADD DUP7 PUSH2 0xBCD JUMP JUMPDEST PUSH2 0xD08 PUSH1 0x20 DUP4 ADD DUP6 PUSH2 0xBCD JUMP JUMPDEST PUSH2 0xD15 PUSH1 0x40 DUP4 ADD DUP5 PUSH2 0xB3D JUMP JUMPDEST SWAP5 SWAP4 POP POP POP POP JUMP JUMPDEST PUSH0 DUP2 ISZERO ISZERO SWAP1 POP SWAP2 SWAP1 POP JUMP JUMPDEST PUSH2 0xD31 DUP2 PUSH2 0xD1D JUMP JUMPDEST DUP2 EQ PUSH2 0xD3B JUMPI PUSH0 PUSH0 REVERT JUMPDEST POP JUMP JUMPDEST PUSH0 DUP2 MLOAD SWAP1 POP PUSH2 0xD4C DUP2 PUSH2 0xD28 JUMP JUMPDEST SWAP3 SWAP2 POP POP JUMP JUMPDEST PUSH0 PUSH1 0x20 DUP3 DUP5 SUB SLT ISZERO PUSH2 0xD67 JUMPI PUSH2 0xD66 PUSH2 0xA98 JUMP JUMPDEST JUMPDEST PUSH0 PUSH2 0xD74 DUP5 DUP3 DUP6 ADD PUSH2 0xD3E JUMP JUMPDEST SWAP2 POP POP SWAP3 SWAP2 POP POP JUMP JUMPDEST PUSH32 0x4E487B7100000000000000000000000000000000000000000000000000000000 PUSH0 MSTORE PUSH1 0x11 PUSH1 0x4 MSTORE PUSH1 0x24 PUSH0 REVERT JUMPDEST PUSH0 PUSH2 0xDB4 DUP3 PUSH2 0xB34 JUMP JUMPDEST SWAP2 POP PUSH2 0xDBF DUP4 PUSH2 0xB34 JUMP JUMPDEST SWAP3 POP DUP3 DUP3 ADD SWAP1 POP DUP1 DUP3 GT ISZERO PUSH2 0xDD7 JUMPI PUSH2 0xDD6 PUSH2 0xD7D JUMP JUMPDEST JUMPDEST SWAP3 SWAP2 POP POP JUMP JUMPDEST PUSH32 0x4E6F74206F776E65720000000000000000000000000000000000000000000000 PUSH0 DUP3 ADD MSTORE POP JUMP JUMPDEST PUSH0 PUSH2 0xE11 PUSH1 0x9 DUP4 PUSH2 0xC70 JUMP JUMPDEST SWAP2 POP PUSH2 0xE1C DUP3 PUSH2 0xDDD JUMP JUMPDEST PUSH1 0x20 DUP3 ADD SWAP1 POP SWAP2 SWAP1 POP JUMP JUMPDEST PUSH0 PUSH1 0x20 DUP3 ADD SWAP1 POP DUP2 DUP2 SUB PUSH0 DUP4 ADD MSTORE PUSH2 0xE3E DUP2 PUSH2 0xE05 JUMP JUMPDEST SWAP1 POP SWAP2 SWAP1 POP JUMP JUMPDEST PUSH0 PUSH1 0x40 DUP3 ADD SWAP1 POP PUSH2 0xE58 PUSH0 DUP4 ADD DUP6 PUSH2 0xBCD JUMP JUMPDEST PUSH2 0xE65 PUSH1 0x20 DUP4 ADD DUP5 PUSH2 0xB3D JUMP JUMPDEST SWAP4 SWAP3 POP POP POP JUMP JUMPDEST PUSH32 0x496E73756666696369656E74204C502062616C616E6365000000000000000000 PUSH0 DUP3 ADD MSTORE POP JUMP JUMPDEST PUSH0 PUSH2 0xEA0 PUSH1 0x17 DUP4 PUSH2 0xC70 JUMP JUMPDEST SWAP2 POP PUSH2 0xEAB DUP3 PUSH2 0xE6C JUMP JUMPDEST PUSH1 0x20 DUP3 ADD SWAP1 POP SWAP2 SWAP1 POP JUMP JUMPDEST PUSH0 PUSH1 0x20 DUP3 ADD SWAP1 POP DUP2 DUP2 SUB PUSH0 DUP4 ADD MSTORE PUSH2 0xECD DUP2 PUSH2 0xE94 JUMP JUMPDEST SWAP1 POP SWAP2 SWAP1 POP JUMP JUMPDEST PUSH32 0x496E73756666696369656E7420706F6F6C207265736572766500000000000000 PUSH0 DUP3 ADD MSTORE POP JUMP JUMPDEST PUSH0 PUSH2 0xF08 PUSH1 0x19 DUP4 PUSH2 0xC70 JUMP JUMPDEST SWAP2 POP PUSH2 0xF13 DUP3 PUSH2 0xED4 JUMP JUMPDEST PUSH1 0x20 DUP3 ADD SWAP1 POP SWAP2 SWAP1 POP JUMP JUMPDEST PUSH0 PUSH1 0x20 DUP3 ADD SWAP1 POP DUP2 DUP2 SUB PUSH0 DUP4 ADD MSTORE PUSH2 0xF35 DUP2 PUSH2 0xEFC JUMP JUMPDEST SWAP1 POP SWAP2 SWAP1 POP JUMP JUMPDEST PUSH0 PUSH2 0xF46 DUP3 PUSH2 0xB34 JUMP JUMPDEST SWAP2 POP PUSH2 0xF51 DUP4 PUSH2 0xB34 JUMP JUMPDEST SWAP3 POP DUP3 DUP3 SUB SWAP1 POP DUP2 DUP2 GT ISZERO PUSH2 0xF69 JUMPI PUSH2 0xF68 PUSH2 0xD7D JUMP JUMPDEST JUMPDEST SWAP3 SWAP2 POP POP JUMP JUMPDEST PUSH32 0x506F6F6C206C697175696469747920696E73756666696369656E740000000000 PUSH0 DUP3 ADD MSTORE POP JUMP JUMPDEST PUSH0 PUSH2 0xFA3 PUSH1 0x1B DUP4 PUSH2 0xC70 JUMP JUMPDEST SWAP2 POP PUSH2 0xFAE DUP3 PUSH2 0xF6F JUMP JUMPDEST PUSH1 0x20 DUP3 ADD SWAP1 POP SWAP2 SWAP1 POP JUMP JUMPDEST PUSH0 PUSH1 0x20 DUP3 ADD SWAP1 POP DUP2 DUP2 SUB PUSH0 DUP4 ADD MSTORE PUSH2 0xFD0 DUP2 PUSH2 0xF97 JUMP JUMPDEST SWAP1 POP SWAP2 SWAP1 POP JUMP JUMPDEST PUSH0 PUSH2 0xFE1 DUP3 PUSH2 0xB34 JUMP JUMPDEST SWAP2 POP PUSH2 0xFEC DUP4 PUSH2 0xB34 JUMP JUMPDEST SWAP3 POP DUP3 DUP3 MUL PUSH2 0xFFA DUP2 PUSH2 0xB34 JUMP JUMPDEST SWAP2 POP DUP3 DUP3 DIV DUP5 EQ DUP4 ISZERO OR PUSH2 0x1011 JUMPI PUSH2 0x1010 PUSH2 0xD7D JUMP JUMPDEST JUMPDEST POP SWAP3 SWAP2 POP POP JUMP JUMPDEST PUSH32 0x4E487B7100000000000000000000000000000000000000000000000000000000 PUSH0 MSTORE PUSH1 0x12 PUSH1 0x4 MSTORE PUSH1 0x24 PUSH0 REVERT JUMPDEST PUSH0 PUSH2 0x104F DUP3 PUSH2 0xB34 JUMP JUMPDEST SWAP2 POP PUSH2 0x105A DUP4 PUSH2 0xB34 JUMP JUMPDEST SWAP3 POP DUP3 PUSH2 0x106A JUMPI PUSH2 0x1069 PUSH2 0x1018 JUMP JUMPDEST JUMPDEST DUP3 DUP3 DIV SWAP1 POP SWAP3 SWAP2 POP POP JUMP INVALID LOG2 PUSH5 0x6970667358 0x22 SLT KECCAK256 EXTCODESIZE EXP 0x24 DUP13 0xAB SWAP16 EXTSTATICCALL 0xC2 SWAP3 LOG0 DUP4 0xB1 0xC4 PUSH29 0x29161458158A040B5766A3C21322A006125E64736F6C63430008220033 "
				},
				"gasEstimates": {
					"creation": {
						"codeDepositCost": "853400",
						"executionCost": "25152",
						"totalCost": "878552"
					},
					"external": {
						"addLiquidity(address,uint256)": "infinite",
						"emergencyWithdraw(address,uint256)": "infinite",
						"lpBalance(address,address)": "infinite",
						"owner()": "2552",
						"removeLiquidity(address,uint256)": "infinite",
						"reserves(address)": "2846",
						"swap(address,address,uint256)": "infinite"
					}
				},
				"methodIdentifiers": {
					"addLiquidity(address,uint256)": "56688700",
					"emergencyWithdraw(address,uint256)": "95ccea67",
					"lpBalance(address,address)": "019aa802",
					"owner()": "8da5cb5b",
					"removeLiquidity(address,uint256)": "a201ccf6",
					"reserves(address)": "d66bd524",
					"swap(address,address,uint256)": "df791e50"
				}
			},
			"storageLayout": {
				"storage": [
					{
						"astId": 24,
						"contract": "ArcenticMultiPool.sol:ArcenticMultiPool",
						"label": "owner",
						"offset": 0,
						"slot": "0",
						"type": "t_address"
					},
					{
						"astId": 28,
						"contract": "ArcenticMultiPool.sol:ArcenticMultiPool",
						"label": "reserves",
						"offset": 0,
						"slot": "1",
						"type": "t_mapping(t_address,t_uint256)"
					},
					{
						"astId": 34,
						"contract": "ArcenticMultiPool.sol:ArcenticMultiPool",
						"label": "lpBalance",
						"offset": 0,
						"slot": "2",
						"type": "t_mapping(t_address,t_mapping(t_address,t_uint256))"
					}
				],
				"types": {
					"t_address": {
						"encoding": "inplace",
						"label": "address",
						"numberOfBytes": "20"
					},
					"t_mapping(t_address,t_mapping(t_address,t_uint256))": {
						"encoding": "mapping",
						"key": "t_address",
						"label": "mapping(address => mapping(address => uint256))",
						"numberOfBytes": "32",
						"value": "t_mapping(t_address,t_uint256)"
					},
					"t_mapping(t_address,t_uint256)": {
						"encoding": "mapping",
						"key": "t_address",
						"label": "mapping(address => uint256)",
						"numberOfBytes": "32",
						"value": "t_uint256"
					},
					"t_uint256": {
						"encoding": "inplace",
						"label": "uint256",
						"numberOfBytes": "32"
					}
				}
			},
			"userdoc": {
				"kind": "user",
				"methods": {},
				"version": 1
			}
		}
	}
}