{
	"ArcenticMultiPool.sol": {
		"ArcenticMultiPool": {
			"abi": [
				{
					"inputs": [
						{
							"internalType": "address",
							"name": "_token",
							"type": "address"
						},
						{
							"internalType": "uint256",
							"name": "_amount",
							"type": "uint256"
						}
					],
					"name": "addLiquidity",
					"outputs": [],
					"stateMutability": "nonpayable",
					"type": "function"
				},
				{
					"inputs": [
						{
							"internalType": "address",
							"name": "",
							"type": "address"
						}
					],
					"name": "reserves",
					"outputs": [
						{
							"internalType": "uint256",
							"name": "",
							"type": "uint256"
						}
					],
					"stateMutability": "view",
					"type": "function"
				},
				{
					"inputs": [
						{
							"internalType": "address",
							"name": "_tokenIn",
							"type": "address"
						},
						{
							"internalType": "address",
							"name": "_tokenOut",
							"type": "address"
						},
						{
							"internalType": "uint256",
							"name": "_amountIn",
							"type": "uint256"
						}
					],
					"name": "swap",
					"outputs": [
						{
							"internalType": "uint256",
							"name": "amountOut",
							"type": "uint256"
						}
					],
					"stateMutability": "nonpayable",
					"type": "function"
				}
			],
			"devdoc": {
				"kind": "dev",
				"methods": {},
				"version": 1
			},
			"evm": {
				"assembly": "    /* \"ArcenticMultiPool.sol\":271:1476  contract ArcenticMultiPool {... */\n  mstore(0x40, 0x80)\n  callvalue\n  dup1\n  iszero\n  tag_1\n  jumpi\n  revert(0x00, 0x00)\ntag_1:\n  pop\n  dataSize(sub_0)\n  dup1\n  dataOffset(sub_0)\n  0x00\n  codecopy\n  0x00\n  return\nstop\n\nsub_0: assembly {\n        /* \"ArcenticMultiPool.sol\":271:1476  contract ArcenticMultiPool {... */\n      mstore(0x40, 0x80)\n      callvalue\n      dup1\n      iszero\n      tag_1\n      jumpi\n      revert(0x00, 0x00)\n    tag_1:\n      pop\n      jumpi(tag_2, lt(calldatasize, 0x04))\n      shr(0xe0, calldataload(0x00))\n      dup1\n      0x56688700\n      eq\n      tag_3\n      jumpi\n      dup1\n      0xd66bd524\n      eq\n      tag_4\n      jumpi\n      dup1\n      0xdf791e50\n      eq\n      tag_5\n      jumpi\n    tag_2:\n      revert(0x00, 0x00)\n        /* \"ArcenticMultiPool.sol\":475:659  function addLiquidity(address _token, uint256 _amount) external {... */\n    tag_3:\n      tag_6\n      0x04\n      dup1\n      calldatasize\n      sub\n      dup2\n      add\n      swap1\n      tag_7\n      swap2\n      swap1\n      tag_8\n      jump\t// in\n    tag_7:\n      tag_9\n      jump\t// in\n    tag_6:\n      stop\n        /* \"ArcenticMultiPool.sol\":375:418  mapping(address => uint256) public reserves */\n    tag_4:\n      tag_10\n      0x04\n      dup1\n      calldatasize\n      sub\n      dup2\n      add\n      swap1\n      tag_11\n      swap2\n      swap1\n      tag_12\n      jump\t// in\n    tag_11:\n      tag_13\n      jump\t// in\n    tag_10:\n      mload(0x40)\n      tag_14\n      swap2\n      swap1\n      tag_15\n      jump\t// in\n    tag_14:\n      mload(0x40)\n      dup1\n      swap2\n      sub\n      swap1\n      return\n        /* \"ArcenticMultiPool.sol\":723:1473  function swap(address _tokenIn, address _tokenOut, uint256 _amountIn) external returns (uint256 amountOut) {... */\n    tag_5:\n      tag_16\n      0x04\n      dup1\n      calldatasize\n      sub\n      dup2\n      add\n      swap1\n      tag_17\n      swap2\n      swap1\n      tag_18\n      jump\t// in\n    tag_17:\n      tag_19\n      jump\t// in\n    tag_16:\n      mload(0x40)\n      tag_20\n      swap2\n      swap1\n      tag_15\n      jump\t// in\n    tag_20:\n      mload(0x40)\n      dup1\n      swap2\n      sub\n      swap1\n      return\n        /* \"ArcenticMultiPool.sol\":475:659  function addLiquidity(address _token, uint256 _amount) external {... */\n    tag_9:\n        /* \"ArcenticMultiPool.sol\":557:563  _token */\n      dup2\n        /* \"ArcenticMultiPool.sol\":550:577  IERC20(_token).transferFrom */\n      0xffffffffffffffffffffffffffffffffffffffff\n      and\n      0x23b872dd\n        /* \"ArcenticMultiPool.sol\":578:588  msg.sender */\n      caller\n        /* \"ArcenticMultiPool.sol\":598:602  this */\n      address\n        /* \"ArcenticMultiPool.sol\":605:612  _amount */\n      dup5\n        /* \"ArcenticMultiPool.sol\":550:613  IERC20(_token).transferFrom(msg.sender, address(this), _amount) */\n      mload(0x40)\n      dup5\n      0xffffffff\n      and\n      0xe0\n      shl\n      dup2\n      mstore\n      0x04\n      add\n      tag_22\n      swap4\n      swap3\n      swap2\n      swap1\n      tag_23\n      jump\t// in\n    tag_22:\n      0x20\n      mload(0x40)\n      dup1\n      dup4\n      sub\n      dup2\n      0x00\n      dup8\n      gas\n      call\n      iszero\n      dup1\n      iszero\n      tag_25\n      jumpi\n      returndatacopy(0x00, 0x00, returndatasize)\n      revert(0x00, returndatasize)\n    tag_25:\n      pop\n      pop\n      pop\n      pop\n      mload(0x40)\n      returndatasize\n      not(0x1f)\n      0x1f\n      dup3\n      add\n      and\n      dup3\n      add\n      dup1\n      0x40\n      mstore\n      pop\n      dup2\n      add\n      swap1\n      tag_26\n      swap2\n      swap1\n      tag_27\n      jump\t// in\n    tag_26:\n      pop\n        /* \"ArcenticMultiPool.sol\":644:651  _amount */\n      dup1\n        /* \"ArcenticMultiPool.sol\":624:632  reserves */\n      0x00\n        /* \"ArcenticMultiPool.sol\":624:640  reserves[_token] */\n      0x00\n        /* \"ArcenticMultiPool.sol\":633:639  _token */\n      dup5\n        /* \"ArcenticMultiPool.sol\":624:640  reserves[_token] */\n      0xffffffffffffffffffffffffffffffffffffffff\n      and\n      0xffffffffffffffffffffffffffffffffffffffff\n      and\n      dup2\n      mstore\n      0x20\n      add\n      swap1\n      dup2\n      mstore\n      0x20\n      add\n      0x00\n      keccak256\n      0x00\n        /* \"ArcenticMultiPool.sol\":624:651  reserves[_token] += _amount */\n      dup3\n      dup3\n      sload\n      tag_28\n      swap2\n      swap1\n      tag_29\n      jump\t// in\n    tag_28:\n      swap3\n      pop\n      pop\n      dup2\n      swap1\n      sstore\n      pop\n        /* \"ArcenticMultiPool.sol\":475:659  function addLiquidity(address _token, uint256 _amount) external {... */\n      pop\n      pop\n      jump\t// out\n        /* \"ArcenticMultiPool.sol\":375:418  mapping(address => uint256) public reserves */\n    tag_13:\n      mstore(0x20, 0x00)\n      dup1\n      0x00\n      mstore\n      keccak256(0x00, 0x40)\n      0x00\n      swap2\n      pop\n      swap1\n      pop\n      sload\n      dup2\n      jump\t// out\n        /* \"ArcenticMultiPool.sol\":723:1473  function swap(address _tokenIn, address _tokenOut, uint256 _amountIn) external returns (uint256 amountOut) {... */\n    tag_19:\n        /* \"ArcenticMultiPool.sol\":811:828  uint256 amountOut */\n      0x00\n        /* \"ArcenticMultiPool.sol\":870:871  0 */\n      0x00\n        /* \"ArcenticMultiPool.sol\":849:857  reserves */\n      0x00\n        /* \"ArcenticMultiPool.sol\":849:867  reserves[_tokenIn] */\n      0x00\n        /* \"ArcenticMultiPool.sol\":858:866  _tokenIn */\n      dup7\n        /* \"ArcenticMultiPool.sol\":849:867  reserves[_tokenIn] */\n      0xffffffffffffffffffffffffffffffffffffffff\n      and\n      0xffffffffffffffffffffffffffffffffffffffff\n      and\n      dup2\n      mstore\n      0x20\n      add\n      swap1\n      dup2\n      mstore\n      0x20\n      add\n      0x00\n      keccak256\n      sload\n        /* \"ArcenticMultiPool.sol\":849:871  reserves[_tokenIn] > 0 */\n      gt\n        /* \"ArcenticMultiPool.sol\":849:898  reserves[_tokenIn] > 0 && reserves[_tokenOut] > 0 */\n      dup1\n      iszero\n      tag_31\n      jumpi\n      pop\n        /* \"ArcenticMultiPool.sol\":897:898  0 */\n      0x00\n        /* \"ArcenticMultiPool.sol\":875:883  reserves */\n      0x00\n        /* \"ArcenticMultiPool.sol\":875:894  reserves[_tokenOut] */\n      0x00\n        /* \"ArcenticMultiPool.sol\":884:893  _tokenOut */\n      dup6\n        /* \"ArcenticMultiPool.sol\":875:894  reserves[_tokenOut] */\n      0xffffffffffffffffffffffffffffffffffffffff\n      and\n      0xffffffffffffffffffffffffffffffffffffffff\n      and\n      dup2\n      mstore\n      0x20\n      add\n      swap1\n      dup2\n      mstore\n      0x20\n      add\n      0x00\n      keccak256\n      sload\n        /* \"ArcenticMultiPool.sol\":875:898  reserves[_tokenOut] > 0 */\n      gt\n        /* \"ArcenticMultiPool.sol\":849:898  reserves[_tokenIn] > 0 && reserves[_tokenOut] > 0 */\n    tag_31:\n        /* \"ArcenticMultiPool.sol\":841:930  require(reserves[_tokenIn] > 0 && reserves[_tokenOut] > 0, \"Pool liquidity insufficient\") */\n      tag_32\n      jumpi\n      mload(0x40)\n      0x08c379a000000000000000000000000000000000000000000000000000000000\n      dup2\n      mstore\n      0x04\n      add\n      tag_33\n      swap1\n      tag_34\n      jump\t// in\n    tag_33:\n      mload(0x40)\n      dup1\n      swap2\n      sub\n      swap1\n      revert\n    tag_32:\n        /* \"ArcenticMultiPool.sol\":1006:1014  _tokenIn */\n      dup4\n        /* \"ArcenticMultiPool.sol\":999:1028  IERC20(_tokenIn).transferFrom */\n      0xffffffffffffffffffffffffffffffffffffffff\n      and\n      0x23b872dd\n        /* \"ArcenticMultiPool.sol\":1029:1039  msg.sender */\n      caller\n        /* \"ArcenticMultiPool.sol\":1049:1053  this */\n      address\n        /* \"ArcenticMultiPool.sol\":1056:1065  _amountIn */\n      dup6\n        /* \"ArcenticMultiPool.sol\":999:1066  IERC20(_tokenIn).transferFrom(msg.sender, address(this), _amountIn) */\n      mload(0x40)\n      dup5\n      0xffffffff\n      and\n      0xe0\n      shl\n      dup2\n      mstore\n      0x04\n      add\n      tag_35\n      swap4\n      swap3\n      swap2\n      swap1\n      tag_23\n      jump\t// in\n    tag_35:\n      0x20\n      mload(0x40)\n      dup1\n      dup4\n      sub\n      dup2\n      0x00\n      dup8\n      gas\n      call\n      iszero\n      dup1\n      iszero\n      tag_37\n      jumpi\n      returndatacopy(0x00, 0x00, returndatasize)\n      revert(0x00, returndatasize)\n    tag_37:\n      pop\n      pop\n      pop\n      pop\n      mload(0x40)\n      returndatasize\n      not(0x1f)\n      0x1f\n      dup3\n      add\n      and\n      dup3\n      add\n      dup1\n      0x40\n      mstore\n      pop\n      dup2\n      add\n      swap1\n      tag_38\n      swap2\n      swap1\n      tag_27\n      jump\t// in\n    tag_38:\n      pop\n        /* \"ArcenticMultiPool.sol\":1211:1220  _amountIn */\n      dup2\n        /* \"ArcenticMultiPool.sol\":1190:1198  reserves */\n      0x00\n        /* \"ArcenticMultiPool.sol\":1190:1208  reserves[_tokenIn] */\n      0x00\n        /* \"ArcenticMultiPool.sol\":1199:1207  _tokenIn */\n      dup7\n        /* \"ArcenticMultiPool.sol\":1190:1208  reserves[_tokenIn] */\n      0xffffffffffffffffffffffffffffffffffffffff\n      and\n      0xffffffffffffffffffffffffffffffffffffffff\n      and\n      dup2\n      mstore\n      0x20\n      add\n      swap1\n      dup2\n      mstore\n      0x20\n      add\n      0x00\n      keccak256\n      sload\n        /* \"ArcenticMultiPool.sol\":1190:1220  reserves[_tokenIn] + _amountIn */\n      tag_39\n      swap2\n      swap1\n      tag_29\n      jump\t// in\n    tag_39:\n        /* \"ArcenticMultiPool.sol\":1166:1174  reserves */\n      0x00\n        /* \"ArcenticMultiPool.sol\":1166:1185  reserves[_tokenOut] */\n      0x00\n        /* \"ArcenticMultiPool.sol\":1175:1184  _tokenOut */\n      dup6\n        /* \"ArcenticMultiPool.sol\":1166:1185  reserves[_tokenOut] */\n      0xffffffffffffffffffffffffffffffffffffffff\n      and\n      0xffffffffffffffffffffffffffffffffffffffff\n      and\n      dup2\n      mstore\n      0x20\n      add\n      swap1\n      dup2\n      mstore\n      0x20\n      add\n      0x00\n      keccak256\n      sload\n        /* \"ArcenticMultiPool.sol\":1154:1163  _amountIn */\n      dup4\n        /* \"ArcenticMultiPool.sol\":1154:1185  _amountIn * reserves[_tokenOut] */\n      tag_40\n      swap2\n      swap1\n      tag_41\n      jump\t// in\n    tag_40:\n        /* \"ArcenticMultiPool.sol\":1153:1221  (_amountIn * reserves[_tokenOut]) / (reserves[_tokenIn] + _amountIn) */\n      tag_42\n      swap2\n      swap1\n      tag_43\n      jump\t// in\n    tag_42:\n        /* \"ArcenticMultiPool.sol\":1141:1221  amountOut = (_amountIn * reserves[_tokenOut]) / (reserves[_tokenIn] + _amountIn) */\n      swap1\n      pop\n        /* \"ArcenticMultiPool.sol\":1300:1309  _amountIn */\n      dup2\n        /* \"ArcenticMultiPool.sol\":1278:1286  reserves */\n      0x00\n        /* \"ArcenticMultiPool.sol\":1278:1296  reserves[_tokenIn] */\n      0x00\n        /* \"ArcenticMultiPool.sol\":1287:1295  _tokenIn */\n      dup7\n        /* \"ArcenticMultiPool.sol\":1278:1296  reserves[_tokenIn] */\n      0xffffffffffffffffffffffffffffffffffffffff\n      and\n      0xffffffffffffffffffffffffffffffffffffffff\n      and\n      dup2\n      mstore\n      0x20\n      add\n      swap1\n      dup2\n      mstore\n      0x20\n      add\n      0x00\n      keccak256\n      0x00\n        /* \"ArcenticMultiPool.sol\":1278:1309  reserves[_tokenIn] += _amountIn */\n      dup3\n      dup3\n      sload\n      tag_44\n      swap2\n      swap1\n      tag_29\n      jump\t// in\n    tag_44:\n      swap3\n      pop\n      pop\n      dup2\n      swap1\n      sstore\n      pop\n        /* \"ArcenticMultiPool.sol\":1343:1352  amountOut */\n      dup1\n        /* \"ArcenticMultiPool.sol\":1320:1328  reserves */\n      0x00\n        /* \"ArcenticMultiPool.sol\":1320:1339  reserves[_tokenOut] */\n      0x00\n        /* \"ArcenticMultiPool.sol\":1329:1338  _tokenOut */\n      dup6\n        /* \"ArcenticMultiPool.sol\":1320:1339  reserves[_tokenOut] */\n      0xffffffffffffffffffffffffffffffffffffffff\n      and\n      0xffffffffffffffffffffffffffffffffffffffff\n      and\n      dup2\n      mstore\n      0x20\n      add\n      swap1\n      dup2\n      mstore\n      0x20\n      add\n      0x00\n      keccak256\n      0x00\n        /* \"ArcenticMultiPool.sol\":1320:1352  reserves[_tokenOut] -= amountOut */\n      dup3\n      dup3\n      sload\n      tag_45\n      swap2\n      swap1\n      tag_46\n      jump\t// in\n    tag_45:\n      swap3\n      pop\n      pop\n      dup2\n      swap1\n      sstore\n      pop\n        /* \"ArcenticMultiPool.sol\":1423:1432  _tokenOut */\n      dup3\n        /* \"ArcenticMultiPool.sol\":1416:1442  IERC20(_tokenOut).transfer */\n      0xffffffffffffffffffffffffffffffffffffffff\n      and\n      0xa9059cbb\n        /* \"ArcenticMultiPool.sol\":1443:1453  msg.sender */\n      caller\n        /* \"ArcenticMultiPool.sol\":1455:1464  amountOut */\n      dup4\n        /* \"ArcenticMultiPool.sol\":1416:1465  IERC20(_tokenOut).transfer(msg.sender, amountOut) */\n      mload(0x40)\n      dup4\n      0xffffffff\n      and\n      0xe0\n      shl\n      dup2\n      mstore\n      0x04\n      add\n      tag_47\n      swap3\n      swap2\n      swap1\n      tag_48\n      jump\t// in\n    tag_47:\n      0x20\n      mload(0x40)\n      dup1\n      dup4\n      sub\n      dup2\n      0x00\n      dup8\n      gas\n      call\n      iszero\n      dup1\n      iszero\n      tag_50\n      jumpi\n      returndatacopy(0x00, 0x00, returndatasize)\n      revert(0x00, returndatasize)\n    tag_50:\n      pop\n      pop\n      pop\n      pop\n      mload(0x40)\n      returndatasize\n      not(0x1f)\n      0x1f\n      dup3\n      add\n      and\n      dup3\n      add\n      dup1\n      0x40\n      mstore\n      pop\n      dup2\n      add\n      swap1\n      tag_51\n      swap2\n      swap1\n      tag_27\n      jump\t// in\n    tag_51:\n      pop\n        /* \"ArcenticMultiPool.sol\":723:1473  function swap(address _tokenIn, address _tokenOut, uint256 _amountIn) external returns (uint256 amountOut) {... */\n      swap4\n      swap3\n      pop\n      pop\n      pop\n      jump\t// out\n        /* \"#utility.yul\":88:205   */\n    tag_53:\n        /* \"#utility.yul\":197:198   */\n      0x00\n        /* \"#utility.yul\":194:195   */\n      0x00\n        /* \"#utility.yul\":187:199   */\n      revert\n        /* \"#utility.yul\":334:460   */\n    tag_55:\n        /* \"#utility.yul\":371:378   */\n      0x00\n        /* \"#utility.yul\":411:453   */\n      0xffffffffffffffffffffffffffffffffffffffff\n        /* \"#utility.yul\":404:409   */\n      dup3\n        /* \"#utility.yul\":400:454   */\n      and\n        /* \"#utility.yul\":389:454   */\n      swap1\n      pop\n        /* \"#utility.yul\":334:460   */\n      swap2\n      swap1\n      pop\n      jump\t// out\n        /* \"#utility.yul\":466:562   */\n    tag_56:\n        /* \"#utility.yul\":503:510   */\n      0x00\n        /* \"#utility.yul\":532:556   */\n      tag_78\n        /* \"#utility.yul\":550:555   */\n      dup3\n        /* \"#utility.yul\":532:556   */\n      tag_55\n      jump\t// in\n    tag_78:\n        /* \"#utility.yul\":521:556   */\n      swap1\n      pop\n        /* \"#utility.yul\":466:562   */\n      swap2\n      swap1\n      pop\n      jump\t// out\n        /* \"#utility.yul\":568:690   */\n    tag_57:\n        /* \"#utility.yul\":641:665   */\n      tag_80\n        /* \"#utility.yul\":659:664   */\n      dup2\n        /* \"#utility.yul\":641:665   */\n      tag_56\n      jump\t// in\n    tag_80:\n        /* \"#utility.yul\":634:639   */\n      dup2\n        /* \"#utility.yul\":631:666   */\n      eq\n        /* \"#utility.yul\":621:684   */\n      tag_81\n      jumpi\n        /* \"#utility.yul\":680:681   */\n      0x00\n        /* \"#utility.yul\":677:678   */\n      0x00\n        /* \"#utility.yul\":670:682   */\n      revert\n        /* \"#utility.yul\":621:684   */\n    tag_81:\n        /* \"#utility.yul\":568:690   */\n      pop\n      jump\t// out\n        /* \"#utility.yul\":696:835   */\n    tag_58:\n        /* \"#utility.yul\":742:747   */\n      0x00\n        /* \"#utility.yul\":780:786   */\n      dup2\n        /* \"#utility.yul\":767:787   */\n      calldataload\n        /* \"#utility.yul\":758:787   */\n      swap1\n      pop\n        /* \"#utility.yul\":796:829   */\n      tag_83\n        /* \"#utility.yul\":823:828   */\n      dup2\n        /* \"#utility.yul\":796:829   */\n      tag_57\n      jump\t// in\n    tag_83:\n        /* \"#utility.yul\":696:835   */\n      swap3\n      swap2\n      pop\n      pop\n      jump\t// out\n        /* \"#utility.yul\":841:918   */\n    tag_59:\n        /* \"#utility.yul\":878:885   */\n      0x00\n        /* \"#utility.yul\":907:912   */\n      dup2\n        /* \"#utility.yul\":896:912   */\n      swap1\n      pop\n        /* \"#utility.yul\":841:918   */\n      swap2\n      swap1\n      pop\n      jump\t// out\n        /* \"#utility.yul\":924:1046   */\n    tag_60:\n        /* \"#utility.yul\":997:1021   */\n      tag_86\n        /* \"#utility.yul\":1015:1020   */\n      dup2\n        /* \"#utility.yul\":997:1021   */\n      tag_59\n      jump\t// in\n    tag_86:\n        /* \"#utility.yul\":990:995   */\n      dup2\n        /* \"#utility.yul\":987:1022   */\n      eq\n        /* \"#utility.yul\":977:1040   */\n      tag_87\n      jumpi\n        /* \"#utility.yul\":1036:1037   */\n      0x00\n        /* \"#utility.yul\":1033:1034   */\n      0x00\n        /* \"#utility.yul\":1026:1038   */\n      revert\n        /* \"#utility.yul\":977:1040   */\n    tag_87:\n        /* \"#utility.yul\":924:1046   */\n      pop\n      jump\t// out\n        /* \"#utility.yul\":1052:1191   */\n    tag_61:\n        /* \"#utility.yul\":1098:1103   */\n      0x00\n        /* \"#utility.yul\":1136:1142   */\n      dup2\n        /* \"#utility.yul\":1123:1143   */\n      calldataload\n        /* \"#utility.yul\":1114:1143   */\n      swap1\n      pop\n        /* \"#utility.yul\":1152:1185   */\n      tag_89\n        /* \"#utility.yul\":1179:1184   */\n      dup2\n        /* \"#utility.yul\":1152:1185   */\n      tag_60\n      jump\t// in\n    tag_89:\n        /* \"#utility.yul\":1052:1191   */\n      swap3\n      swap2\n      pop\n      pop\n      jump\t// out\n        /* \"#utility.yul\":1197:1671   */\n    tag_8:\n        /* \"#utility.yul\":1265:1271   */\n      0x00\n        /* \"#utility.yul\":1273:1279   */\n      0x00\n        /* \"#utility.yul\":1322:1324   */\n      0x40\n        /* \"#utility.yul\":1310:1319   */\n      dup4\n        /* \"#utility.yul\":1301:1308   */\n      dup6\n        /* \"#utility.yul\":1297:1320   */\n      sub\n        /* \"#utility.yul\":1293:1325   */\n      slt\n        /* \"#utility.yul\":1290:1409   */\n      iszero\n      tag_91\n      jumpi\n        /* \"#utility.yul\":1328:1407   */\n      tag_92\n      tag_53\n      jump\t// in\n    tag_92:\n        /* \"#utility.yul\":1290:1409   */\n    tag_91:\n        /* \"#utility.yul\":1448:1449   */\n      0x00\n        /* \"#utility.yul\":1473:1526   */\n      tag_93\n        /* \"#utility.yul\":1518:1525   */\n      dup6\n        /* \"#utility.yul\":1509:1515   */\n      dup3\n        /* \"#utility.yul\":1498:1507   */\n      dup7\n        /* \"#utility.yul\":1494:1516   */\n      add\n        /* \"#utility.yul\":1473:1526   */\n      tag_58\n      jump\t// in\n    tag_93:\n        /* \"#utility.yul\":1463:1526   */\n      swap3\n      pop\n        /* \"#utility.yul\":1419:1536   */\n      pop\n        /* \"#utility.yul\":1575:1577   */\n      0x20\n        /* \"#utility.yul\":1601:1654   */\n      tag_94\n        /* \"#utility.yul\":1646:1653   */\n      dup6\n        /* \"#utility.yul\":1637:1643   */\n      dup3\n        /* \"#utility.yul\":1626:1635   */\n      dup7\n        /* \"#utility.yul\":1622:1644   */\n      add\n        /* \"#utility.yul\":1601:1654   */\n      tag_61\n      jump\t// in\n    tag_94:\n        /* \"#utility.yul\":1591:1654   */\n      swap2\n      pop\n        /* \"#utility.yul\":1546:1664   */\n      pop\n        /* \"#utility.yul\":1197:1671   */\n      swap3\n      pop\n      swap3\n      swap1\n      pop\n      jump\t// out\n        /* \"#utility.yul\":1677:2006   */\n    tag_12:\n        /* \"#utility.yul\":1736:1742   */\n      0x00\n        /* \"#utility.yul\":1785:1787   */\n      0x20\n        /* \"#utility.yul\":1773:1782   */\n      dup3\n        /* \"#utility.yul\":1764:1771   */\n      dup5\n        /* \"#utility.yul\":1760:1783   */\n      sub\n        /* \"#utility.yul\":1756:1788   */\n      slt\n        /* \"#utility.yul\":1753:1872   */\n      iszero\n      tag_96\n      jumpi\n        /* \"#utility.yul\":1791:1870   */\n      tag_97\n      tag_53\n      jump\t// in\n    tag_97:\n        /* \"#utility.yul\":1753:1872   */\n    tag_96:\n        /* \"#utility.yul\":1911:1912   */\n      0x00\n        /* \"#utility.yul\":1936:1989   */\n      tag_98\n        /* \"#utility.yul\":1981:1988   */\n      dup5\n        /* \"#utility.yul\":1972:1978   */\n      dup3\n        /* \"#utility.yul\":1961:1970   */\n      dup6\n        /* \"#utility.yul\":1957:1979   */\n      add\n        /* \"#utility.yul\":1936:1989   */\n      tag_58\n      jump\t// in\n    tag_98:\n        /* \"#utility.yul\":1926:1989   */\n      swap2\n      pop\n        /* \"#utility.yul\":1882:1999   */\n      pop\n        /* \"#utility.yul\":1677:2006   */\n      swap3\n      swap2\n      pop\n      pop\n      jump\t// out\n        /* \"#utility.yul\":2012:2130   */\n    tag_62:\n        /* \"#utility.yul\":2099:2123   */\n      tag_100\n        /* \"#utility.yul\":2117:2122   */\n      dup2\n        /* \"#utility.yul\":2099:2123   */\n      tag_59\n      jump\t// in\n    tag_100:\n        /* \"#utility.yul\":2094:2097   */\n      dup3\n        /* \"#utility.yul\":2087:2124   */\n      mstore\n        /* \"#utility.yul\":2012:2130   */\n      pop\n      pop\n      jump\t// out\n        /* \"#utility.yul\":2136:2358   */\n    tag_15:\n        /* \"#utility.yul\":2229:2233   */\n      0x00\n        /* \"#utility.yul\":2267:2269   */\n      0x20\n        /* \"#utility.yul\":2256:2265   */\n      dup3\n        /* \"#utility.yul\":2252:2270   */\n      add\n        /* \"#utility.yul\":2244:2270   */\n      swap1\n      pop\n        /* \"#utility.yul\":2280:2351   */\n      tag_102\n        /* \"#utility.yul\":2348:2349   */\n      0x00\n        /* \"#utility.yul\":2337:2346   */\n      dup4\n        /* \"#utility.yul\":2333:2350   */\n      add\n        /* \"#utility.yul\":2324:2330   */\n      dup5\n        /* \"#utility.yul\":2280:2351   */\n      tag_62\n      jump\t// in\n    tag_102:\n        /* \"#utility.yul\":2136:2358   */\n      swap3\n      swap2\n      pop\n      pop\n      jump\t// out\n        /* \"#utility.yul\":2364:2983   */\n    tag_18:\n        /* \"#utility.yul\":2441:2447   */\n      0x00\n        /* \"#utility.yul\":2449:2455   */\n      0x00\n        /* \"#utility.yul\":2457:2463   */\n      0x00\n        /* \"#utility.yul\":2506:2508   */\n      0x60\n        /* \"#utility.yul\":2494:2503   */\n      dup5\n        /* \"#utility.yul\":2485:2492   */\n      dup7\n        /* \"#utility.yul\":2481:2504   */\n      sub\n        /* \"#utility.yul\":2477:2509   */\n      slt\n        /* \"#utility.yul\":2474:2593   */\n      iszero\n      tag_104\n      jumpi\n        /* \"#utility.yul\":2512:2591   */\n      tag_105\n      tag_53\n      jump\t// in\n    tag_105:\n        /* \"#utility.yul\":2474:2593   */\n    tag_104:\n        /* \"#utility.yul\":2632:2633   */\n      0x00\n        /* \"#utility.yul\":2657:2710   */\n      tag_106\n        /* \"#utility.yul\":2702:2709   */\n      dup7\n        /* \"#utility.yul\":2693:2699   */\n      dup3\n        /* \"#utility.yul\":2682:2691   */\n      dup8\n        /* \"#utility.yul\":2678:2700   */\n      add\n        /* \"#utility.yul\":2657:2710   */\n      tag_58\n      jump\t// in\n    tag_106:\n        /* \"#utility.yul\":2647:2710   */\n      swap4\n      pop\n        /* \"#utility.yul\":2603:2720   */\n      pop\n        /* \"#utility.yul\":2759:2761   */\n      0x20\n        /* \"#utility.yul\":2785:2838   */\n      tag_107\n        /* \"#utility.yul\":2830:2837   */\n      dup7\n        /* \"#utility.yul\":2821:2827   */\n      dup3\n        /* \"#utility.yul\":2810:2819   */\n      dup8\n        /* \"#utility.yul\":2806:2828   */\n      add\n        /* \"#utility.yul\":2785:2838   */\n      tag_58\n      jump\t// in\n    tag_107:\n        /* \"#utility.yul\":2775:2838   */\n      swap3\n      pop\n        /* \"#utility.yul\":2730:2848   */\n      pop\n        /* \"#utility.yul\":2887:2889   */\n      0x40\n        /* \"#utility.yul\":2913:2966   */\n      tag_108\n        /* \"#utility.yul\":2958:2965   */\n      dup7\n        /* \"#utility.yul\":2949:2955   */\n      dup3\n        /* \"#utility.yul\":2938:2947   */\n      dup8\n        /* \"#utility.yul\":2934:2956   */\n      add\n        /* \"#utility.yul\":2913:2966   */\n      tag_61\n      jump\t// in\n    tag_108:\n        /* \"#utility.yul\":2903:2966   */\n      swap2\n      pop\n        /* \"#utility.yul\":2858:2976   */\n      pop\n        /* \"#utility.yul\":2364:2983   */\n      swap3\n      pop\n      swap3\n      pop\n      swap3\n      jump\t// out\n        /* \"#utility.yul\":2989:3107   */\n    tag_63:\n        /* \"#utility.yul\":3076:3100   */\n      tag_110\n        /* \"#utility.yul\":3094:3099   */\n      dup2\n        /* \"#utility.yul\":3076:3100   */\n      tag_56\n      jump\t// in\n    tag_110:\n        /* \"#utility.yul\":3071:3074   */\n      dup3\n        /* \"#utility.yul\":3064:3101   */\n      mstore\n        /* \"#utility.yul\":2989:3107   */\n      pop\n      pop\n      jump\t// out\n        /* \"#utility.yul\":3113:3555   */\n    tag_23:\n        /* \"#utility.yul\":3262:3266   */\n      0x00\n        /* \"#utility.yul\":3300:3302   */\n      0x60\n        /* \"#utility.yul\":3289:3298   */\n      dup3\n        /* \"#utility.yul\":3285:3303   */\n      add\n        /* \"#utility.yul\":3277:3303   */\n      swap1\n      pop\n        /* \"#utility.yul\":3313:3384   */\n      tag_112\n        /* \"#utility.yul\":3381:3382   */\n      0x00\n        /* \"#utility.yul\":3370:3379   */\n      dup4\n        /* \"#utility.yul\":3366:3383   */\n      add\n        /* \"#utility.yul\":3357:3363   */\n      dup7\n        /* \"#utility.yul\":3313:3384   */\n      tag_63\n      jump\t// in\n    tag_112:\n        /* \"#utility.yul\":3394:3466   */\n      tag_113\n        /* \"#utility.yul\":3462:3464   */\n      0x20\n        /* \"#utility.yul\":3451:3460   */\n      dup4\n        /* \"#utility.yul\":3447:3465   */\n      add\n        /* \"#utility.yul\":3438:3444   */\n      dup6\n        /* \"#utility.yul\":3394:3466   */\n      tag_63\n      jump\t// in\n    tag_113:\n        /* \"#utility.yul\":3476:3548   */\n      tag_114\n        /* \"#utility.yul\":3544:3546   */\n      0x40\n        /* \"#utility.yul\":3533:3542   */\n      dup4\n        /* \"#utility.yul\":3529:3547   */\n      add\n        /* \"#utility.yul\":3520:3526   */\n      dup5\n        /* \"#utility.yul\":3476:3548   */\n      tag_62\n      jump\t// in\n    tag_114:\n        /* \"#utility.yul\":3113:3555   */\n      swap5\n      swap4\n      pop\n      pop\n      pop\n      pop\n      jump\t// out\n        /* \"#utility.yul\":3561:3651   */\n    tag_64:\n        /* \"#utility.yul\":3595:3602   */\n      0x00\n        /* \"#utility.yul\":3638:3643   */\n      dup2\n        /* \"#utility.yul\":3631:3644   */\n      iszero\n        /* \"#utility.yul\":3624:3645   */\n      iszero\n        /* \"#utility.yul\":3613:3645   */\n      swap1\n      pop\n        /* \"#utility.yul\":3561:3651   */\n      swap2\n      swap1\n      pop\n      jump\t// out\n        /* \"#utility.yul\":3657:3773   */\n    tag_65:\n        /* \"#utility.yul\":3727:3748   */\n      tag_117\n        /* \"#utility.yul\":3742:3747   */\n      dup2\n        /* \"#utility.yul\":3727:3748   */\n      tag_64\n      jump\t// in\n    tag_117:\n        /* \"#utility.yul\":3720:3725   */\n      dup2\n        /* \"#utility.yul\":3717:3749   */\n      eq\n        /* \"#utility.yul\":3707:3767   */\n      tag_118\n      jumpi\n        /* \"#utility.yul\":3763:3764   */\n      0x00\n        /* \"#utility.yul\":3760:3761   */\n      0x00\n        /* \"#utility.yul\":3753:3765   */\n      revert\n        /* \"#utility.yul\":3707:3767   */\n    tag_118:\n        /* \"#utility.yul\":3657:3773   */\n      pop\n      jump\t// out\n        /* \"#utility.yul\":3779:3916   */\n    tag_66:\n        /* \"#utility.yul\":3833:3838   */\n      0x00\n        /* \"#utility.yul\":3864:3870   */\n      dup2\n        /* \"#utility.yul\":3858:3871   */\n      mload\n        /* \"#utility.yul\":3849:3871   */\n      swap1\n      pop\n        /* \"#utility.yul\":3880:3910   */\n      tag_120\n        /* \"#utility.yul\":3904:3909   */\n      dup2\n        /* \"#utility.yul\":3880:3910   */\n      tag_65\n      jump\t// in\n    tag_120:\n        /* \"#utility.yul\":3779:3916   */\n      swap3\n      swap2\n      pop\n      pop\n      jump\t// out\n        /* \"#utility.yul\":3922:4267   */\n    tag_27:\n        /* \"#utility.yul\":3989:3995   */\n      0x00\n        /* \"#utility.yul\":4038:4040   */\n      0x20\n        /* \"#utility.yul\":4026:4035   */\n      dup3\n        /* \"#utility.yul\":4017:4024   */\n      dup5\n        /* \"#utility.yul\":4013:4036   */\n      sub\n        /* \"#utility.yul\":4009:4041   */\n      slt\n        /* \"#utility.yul\":4006:4125   */\n      iszero\n      tag_122\n      jumpi\n        /* \"#utility.yul\":4044:4123   */\n      tag_123\n      tag_53\n      jump\t// in\n    tag_123:\n        /* \"#utility.yul\":4006:4125   */\n    tag_122:\n        /* \"#utility.yul\":4164:4165   */\n      0x00\n        /* \"#utility.yul\":4189:4250   */\n      tag_124\n        /* \"#utility.yul\":4242:4249   */\n      dup5\n        /* \"#utility.yul\":4233:4239   */\n      dup3\n        /* \"#utility.yul\":4222:4231   */\n      dup6\n        /* \"#utility.yul\":4218:4240   */\n      add\n        /* \"#utility.yul\":4189:4250   */\n      tag_66\n      jump\t// in\n    tag_124:\n        /* \"#utility.yul\":4179:4250   */\n      swap2\n      pop\n        /* \"#utility.yul\":4135:4260   */\n      pop\n        /* \"#utility.yul\":3922:4267   */\n      swap3\n      swap2\n      pop\n      pop\n      jump\t// out\n        /* \"#utility.yul\":4273:4453   */\n    tag_67:\n        /* \"#utility.yul\":4321:4398   */\n      0x4e487b7100000000000000000000000000000000000000000000000000000000\n        /* \"#utility.yul\":4318:4319   */\n      0x00\n        /* \"#utility.yul\":4311:4399   */\n      mstore\n        /* \"#utility.yul\":4418:4422   */\n      0x11\n        /* \"#utility.yul\":4415:4416   */\n      0x04\n        /* \"#utility.yul\":4408:4423   */\n      mstore\n        /* \"#utility.yul\":4442:4446   */\n      0x24\n        /* \"#utility.yul\":4439:4440   */\n      0x00\n        /* \"#utility.yul\":4432:4447   */\n      revert\n        /* \"#utility.yul\":4459:4650   */\n    tag_29:\n        /* \"#utility.yul\":4499:4502   */\n      0x00\n        /* \"#utility.yul\":4518:4538   */\n      tag_127\n        /* \"#utility.yul\":4536:4537   */\n      dup3\n        /* \"#utility.yul\":4518:4538   */\n      tag_59\n      jump\t// in\n    tag_127:\n        /* \"#utility.yul\":4513:4538   */\n      swap2\n      pop\n        /* \"#utility.yul\":4552:4572   */\n      tag_128\n        /* \"#utility.yul\":4570:4571   */\n      dup4\n        /* \"#utility.yul\":4552:4572   */\n      tag_59\n      jump\t// in\n    tag_128:\n        /* \"#utility.yul\":4547:4572   */\n      swap3\n      pop\n        /* \"#utility.yul\":4595:4596   */\n      dup3\n        /* \"#utility.yul\":4592:4593   */\n      dup3\n        /* \"#utility.yul\":4588:4597   */\n      add\n        /* \"#utility.yul\":4581:4597   */\n      swap1\n      pop\n        /* \"#utility.yul\":4616:4619   */\n      dup1\n        /* \"#utility.yul\":4613:4614   */\n      dup3\n        /* \"#utility.yul\":4610:4620   */\n      gt\n        /* \"#utility.yul\":4607:4643   */\n      iszero\n      tag_129\n      jumpi\n        /* \"#utility.yul\":4623:4641   */\n      tag_130\n      tag_67\n      jump\t// in\n    tag_130:\n        /* \"#utility.yul\":4607:4643   */\n    tag_129:\n        /* \"#utility.yul\":4459:4650   */\n      swap3\n      swap2\n      pop\n      pop\n      jump\t// out\n        /* \"#utility.yul\":4656:4825   */\n    tag_68:\n        /* \"#utility.yul\":4740:4751   */\n      0x00\n        /* \"#utility.yul\":4774:4780   */\n      dup3\n        /* \"#utility.yul\":4769:4772   */\n      dup3\n        /* \"#utility.yul\":4762:4781   */\n      mstore\n        /* \"#utility.yul\":4814:4818   */\n      0x20\n        /* \"#utility.yul\":4809:4812   */\n      dup3\n        /* \"#utility.yul\":4805:4819   */\n      add\n        /* \"#utility.yul\":4790:4819   */\n      swap1\n      pop\n        /* \"#utility.yul\":4656:4825   */\n      swap3\n      swap2\n      pop\n      pop\n      jump\t// out\n        /* \"#utility.yul\":4831:5008   */\n    tag_69:\n        /* \"#utility.yul\":4971:5000   */\n      0x506f6f6c206c697175696469747920696e73756666696369656e740000000000\n        /* \"#utility.yul\":4967:4968   */\n      0x00\n        /* \"#utility.yul\":4959:4965   */\n      dup3\n        /* \"#utility.yul\":4955:4969   */\n      add\n        /* \"#utility.yul\":4948:5001   */\n      mstore\n        /* \"#utility.yul\":4831:5008   */\n      pop\n      jump\t// out\n        /* \"#utility.yul\":5014:5380   */\n    tag_70:\n        /* \"#utility.yul\":5156:5159   */\n      0x00\n        /* \"#utility.yul\":5177:5244   */\n      tag_134\n        /* \"#utility.yul\":5241:5243   */\n      0x1b\n        /* \"#utility.yul\":5236:5239   */\n      dup4\n        /* \"#utility.yul\":5177:5244   */\n      tag_68\n      jump\t// in\n    tag_134:\n        /* \"#utility.yul\":5170:5244   */\n      swap2\n      pop\n        /* \"#utility.yul\":5253:5346   */\n      tag_135\n        /* \"#utility.yul\":5342:5345   */\n      dup3\n        /* \"#utility.yul\":5253:5346   */\n      tag_69\n      jump\t// in\n    tag_135:\n        /* \"#utility.yul\":5371:5373   */\n      0x20\n        /* \"#utility.yul\":5366:5369   */\n      dup3\n        /* \"#utility.yul\":5362:5374   */\n      add\n        /* \"#utility.yul\":5355:5374   */\n      swap1\n      pop\n        /* \"#utility.yul\":5014:5380   */\n      swap2\n      swap1\n      pop\n      jump\t// out\n        /* \"#utility.yul\":5386:5805   */\n    tag_34:\n        /* \"#utility.yul\":5552:5556   */\n      0x00\n        /* \"#utility.yul\":5590:5592   */\n      0x20\n        /* \"#utility.yul\":5579:5588   */\n      dup3\n        /* \"#utility.yul\":5575:5593   */\n      add\n        /* \"#utility.yul\":5567:5593   */\n      swap1\n      pop\n        /* \"#utility.yul\":5639:5648   */\n      dup2\n        /* \"#utility.yul\":5633:5637   */\n      dup2\n        /* \"#utility.yul\":5629:5649   */\n      sub\n        /* \"#utility.yul\":5625:5626   */\n      0x00\n        /* \"#utility.yul\":5614:5623   */\n      dup4\n        /* \"#utility.yul\":5610:5627   */\n      add\n        /* \"#utility.yul\":5603:5650   */\n      mstore\n        /* \"#utility.yul\":5667:5798   */\n      tag_137\n        /* \"#utility.yul\":5793:5797   */\n      dup2\n        /* \"#utility.yul\":5667:5798   */\n      tag_70\n      jump\t// in\n    tag_137:\n        /* \"#utility.yul\":5659:5798   */\n      swap1\n      pop\n        /* \"#utility.yul\":5386:5805   */\n      swap2\n      swap1\n      pop\n      jump\t// out\n        /* \"#utility.yul\":5811:6221   */\n    tag_41:\n        /* \"#utility.yul\":5851:5858   */\n      0x00\n        /* \"#utility.yul\":5874:5894   */\n      tag_139\n        /* \"#utility.yul\":5892:5893   */\n      dup3\n        /* \"#utility.yul\":5874:5894   */\n      tag_59\n      jump\t// in\n    tag_139:\n        /* \"#utility.yul\":5869:5894   */\n      swap2\n      pop\n        /* \"#utility.yul\":5908:5928   */\n      tag_140\n        /* \"#utility.yul\":5926:5927   */\n      dup4\n        /* \"#utility.yul\":5908:5928   */\n      tag_59\n      jump\t// in\n    tag_140:\n        /* \"#utility.yul\":5903:5928   */\n      swap3\n      pop\n        /* \"#utility.yul\":5963:5964   */\n      dup3\n        /* \"#utility.yul\":5960:5961   */\n      dup3\n        /* \"#utility.yul\":5956:5965   */\n      mul\n        /* \"#utility.yul\":5985:6015   */\n      tag_141\n        /* \"#utility.yul\":6003:6014   */\n      dup2\n        /* \"#utility.yul\":5985:6015   */\n      tag_59\n      jump\t// in\n    tag_141:\n        /* \"#utility.yul\":5974:6015   */\n      swap2\n      pop\n        /* \"#utility.yul\":6164:6165   */\n      dup3\n        /* \"#utility.yul\":6155:6162   */\n      dup3\n        /* \"#utility.yul\":6151:6166   */\n      div\n        /* \"#utility.yul\":6148:6149   */\n      dup5\n        /* \"#utility.yul\":6145:6167   */\n      eq\n        /* \"#utility.yul\":6125:6126   */\n      dup4\n        /* \"#utility.yul\":6118:6127   */\n      iszero\n        /* \"#utility.yul\":6098:6181   */\n      or\n        /* \"#utility.yul\":6075:6214   */\n      tag_142\n      jumpi\n        /* \"#utility.yul\":6194:6212   */\n      tag_143\n      tag_67\n      jump\t// in\n    tag_143:\n        /* \"#utility.yul\":6075:6214   */\n    tag_142:\n        /* \"#utility.yul\":5859:6221   */\n      pop\n        /* \"#utility.yul\":5811:6221   */\n      swap3\n      swap2\n      pop\n      pop\n      jump\t// out\n        /* \"#utility.yul\":6227:6407   */\n    tag_71:\n        /* \"#utility.yul\":6275:6352   */\n      0x4e487b7100000000000000000000000000000000000000000000000000000000\n        /* \"#utility.yul\":6272:6273   */\n      0x00\n        /* \"#utility.yul\":6265:6353   */\n      mstore\n        /* \"#utility.yul\":6372:6376   */\n      0x12\n        /* \"#utility.yul\":6369:6370   */\n      0x04\n        /* \"#utility.yul\":6362:6377   */\n      mstore\n        /* \"#utility.yul\":6396:6400   */\n      0x24\n        /* \"#utility.yul\":6393:6394   */\n      0x00\n        /* \"#utility.yul\":6386:6401   */\n      revert\n        /* \"#utility.yul\":6413:6598   */\n    tag_43:\n        /* \"#utility.yul\":6453:6454   */\n      0x00\n        /* \"#utility.yul\":6470:6490   */\n      tag_146\n        /* \"#utility.yul\":6488:6489   */\n      dup3\n        /* \"#utility.yul\":6470:6490   */\n      tag_59\n      jump\t// in\n    tag_146:\n        /* \"#utility.yul\":6465:6490   */\n      swap2\n      pop\n        /* \"#utility.yul\":6504:6524   */\n      tag_147\n        /* \"#utility.yul\":6522:6523   */\n      dup4\n        /* \"#utility.yul\":6504:6524   */\n      tag_59\n      jump\t// in\n    tag_147:\n        /* \"#utility.yul\":6499:6524   */\n      swap3\n      pop\n        /* \"#utility.yul\":6543:6544   */\n      dup3\n        /* \"#utility.yul\":6533:6568   */\n      tag_148\n      jumpi\n        /* \"#utility.yul\":6548:6566   */\n      tag_149\n      tag_71\n      jump\t// in\n    tag_149:\n        /* \"#utility.yul\":6533:6568   */\n    tag_148:\n        /* \"#utility.yul\":6590:6591   */\n      dup3\n        /* \"#utility.yul\":6587:6588   */\n      dup3\n        /* \"#utility.yul\":6583:6592   */\n      div\n        /* \"#utility.yul\":6578:6592   */\n      swap1\n      pop\n        /* \"#utility.yul\":6413:6598   */\n      swap3\n      swap2\n      pop\n      pop\n      jump\t// out\n        /* \"#utility.yul\":6604:6798   */\n    tag_46:\n        /* \"#utility.yul\":6644:6648   */\n      0x00\n        /* \"#utility.yul\":6664:6684   */\n      tag_151\n        /* \"#utility.yul\":6682:6683   */\n      dup3\n        /* \"#utility.yul\":6664:6684   */\n      tag_59\n      jump\t// in\n    tag_151:\n        /* \"#utility.yul\":6659:6684   */\n      swap2\n      pop\n        /* \"#utility.yul\":6698:6718   */\n      tag_152\n        /* \"#utility.yul\":6716:6717   */\n      dup4\n        /* \"#utility.yul\":6698:6718   */\n      tag_59\n      jump\t// in\n    tag_152:\n        /* \"#utility.yul\":6693:6718   */\n      swap3\n      pop\n        /* \"#utility.yul\":6742:6743   */\n      dup3\n        /* \"#utility.yul\":6739:6740   */\n      dup3\n        /* \"#utility.yul\":6735:6744   */\n      sub\n        /* \"#utility.yul\":6727:6744   */\n      swap1\n      pop\n        /* \"#utility.yul\":6766:6767   */\n      dup2\n        /* \"#utility.yul\":6760:6764   */\n      dup2\n        /* \"#utility.yul\":6757:6768   */\n      gt\n        /* \"#utility.yul\":6754:6791   */\n      iszero\n      tag_153\n      jumpi\n        /* \"#utility.yul\":6771:6789   */\n      tag_154\n      tag_67\n      jump\t// in\n    tag_154:\n        /* \"#utility.yul\":6754:6791   */\n    tag_153:\n        /* \"#utility.yul\":6604:6798   */\n      swap3\n      swap2\n      pop\n      pop\n      jump\t// out\n        /* \"#utility.yul\":6804:7136   */\n    tag_48:\n        /* \"#utility.yul\":6925:6929   */\n      0x00\n        /* \"#utility.yul\":6963:6965   */\n      0x40\n        /* \"#utility.yul\":6952:6961   */\n      dup3\n        /* \"#utility.yul\":6948:6966   */\n      add\n        /* \"#utility.yul\":6940:6966   */\n      swap1\n      pop\n        /* \"#utility.yul\":6976:7047   */\n      tag_156\n        /* \"#utility.yul\":7044:7045   */\n      0x00\n        /* \"#utility.yul\":7033:7042   */\n      dup4\n        /* \"#utility.yul\":7029:7046   */\n      add\n        /* \"#utility.yul\":7020:7026   */\n      dup6\n        /* \"#utility.yul\":6976:7047   */\n      tag_63\n      jump\t// in\n    tag_156:\n        /* \"#utility.yul\":7057:7129   */\n      tag_157\n        /* \"#utility.yul\":7125:7127   */\n      0x20\n        /* \"#utility.yul\":7114:7123   */\n      dup4\n        /* \"#utility.yul\":7110:7128   */\n      add\n        /* \"#utility.yul\":7101:7107   */\n      dup5\n        /* \"#utility.yul\":7057:7129   */\n      tag_62\n      jump\t// in\n    tag_157:\n        /* \"#utility.yul\":6804:7136   */\n      swap4\n      swap3\n      pop\n      pop\n      pop\n      jump\t// out\n\n    auxdata: 0xa2646970667358221220a17df7834054bb03dfd437db0328ad861c108907e5ad3c8d348dcb0b56dfd69b64736f6c63430008220033\n}\n",
				"bytecode": {
					"linkReferences": {},
					"object": "6080604052348015600e575f5ffd5b506108ca8061001c5f395ff3fe608060405234801561000f575f5ffd5b506004361061003f575f3560e01c80635668870014610043578063d66bd5241461005f578063df791e501461008f575b5f5ffd5b61005d6004803603810190610058919061053f565b6100bf565b005b6100796004803603810190610074919061057d565b610193565b60405161008691906105b7565b60405180910390f35b6100a960048036038101906100a491906105d0565b6101a7565b6040516100b691906105b7565b60405180910390f35b8173ffffffffffffffffffffffffffffffffffffffff166323b872dd3330846040518463ffffffff1660e01b81526004016100fc9392919061062f565b6020604051808303815f875af1158015610118573d5f5f3e3d5ffd5b505050506040513d601f19601f8201168201806040525081019061013c9190610699565b50805f5f8473ffffffffffffffffffffffffffffffffffffffff1673ffffffffffffffffffffffffffffffffffffffff1681526020019081526020015f205f82825461018891906106f1565b925050819055505050565b5f602052805f5260405f205f915090505481565b5f5f5f5f8673ffffffffffffffffffffffffffffffffffffffff1673ffffffffffffffffffffffffffffffffffffffff1681526020019081526020015f205411801561022e57505f5f5f8573ffffffffffffffffffffffffffffffffffffffff1673ffffffffffffffffffffffffffffffffffffffff1681526020019081526020015f2054115b61026d576040517f08c379a00000000000000000000000000000000000000000000000000000000081526004016102649061077e565b60405180910390fd5b8373ffffffffffffffffffffffffffffffffffffffff166323b872dd3330856040518463ffffffff1660e01b81526004016102aa9392919061062f565b6020604051808303815f875af11580156102c6573d5f5f3e3d5ffd5b505050506040513d601f19601f820116820180604052508101906102ea9190610699565b50815f5f8673ffffffffffffffffffffffffffffffffffffffff1673ffffffffffffffffffffffffffffffffffffffff1681526020019081526020015f205461033391906106f1565b5f5f8573ffffffffffffffffffffffffffffffffffffffff1673ffffffffffffffffffffffffffffffffffffffff1681526020019081526020015f20548361037b919061079c565b610385919061080a565b9050815f5f8673ffffffffffffffffffffffffffffffffffffffff1673ffffffffffffffffffffffffffffffffffffffff1681526020019081526020015f205f8282546103d291906106f1565b92505081905550805f5f8573ffffffffffffffffffffffffffffffffffffffff1673ffffffffffffffffffffffffffffffffffffffff1681526020019081526020015f205f828254610424919061083a565b925050819055508273ffffffffffffffffffffffffffffffffffffffff1663a9059cbb33836040518363ffffffff1660e01b815260040161046692919061086d565b6020604051808303815f875af1158015610482573d5f5f3e3d5ffd5b505050506040513d601f19601f820116820180604052508101906104a69190610699565b509392505050565b5f5ffd5b5f73ffffffffffffffffffffffffffffffffffffffff82169050919050565b5f6104db826104b2565b9050919050565b6104eb816104d1565b81146104f5575f5ffd5b50565b5f81359050610506816104e2565b92915050565b5f819050919050565b61051e8161050c565b8114610528575f5ffd5b50565b5f8135905061053981610515565b92915050565b5f5f60408385031215610555576105546104ae565b5b5f610562858286016104f8565b92505060206105738582860161052b565b9150509250929050565b5f60208284031215610592576105916104ae565b5b5f61059f848285016104f8565b91505092915050565b6105b18161050c565b82525050565b5f6020820190506105ca5f8301846105a8565b92915050565b5f5f5f606084860312156105e7576105e66104ae565b5b5f6105f4868287016104f8565b9350506020610605868287016104f8565b92505060406106168682870161052b565b9150509250925092565b610629816104d1565b82525050565b5f6060820190506106425f830186610620565b61064f6020830185610620565b61065c60408301846105a8565b949350505050565b5f8115159050919050565b61067881610664565b8114610682575f5ffd5b50565b5f815190506106938161066f565b92915050565b5f602082840312156106ae576106ad6104ae565b5b5f6106bb84828501610685565b91505092915050565b7f4e487b71000000000000000000000000000000000000000000000000000000005f52601160045260245ffd5b5f6106fb8261050c565b91506107068361050c565b925082820190508082111561071e5761071d6106c4565b5b92915050565b5f82825260208201905092915050565b7f506f6f6c206c697175696469747920696e73756666696369656e7400000000005f82015250565b5f610768601b83610724565b915061077382610734565b602082019050919050565b5f6020820190508181035f8301526107958161075c565b9050919050565b5f6107a68261050c565b91506107b18361050c565b92508282026107bf8161050c565b915082820484148315176107d6576107d56106c4565b5b5092915050565b7f4e487b71000000000000000000000000000000000000000000000000000000005f52601260045260245ffd5b5f6108148261050c565b915061081f8361050c565b92508261082f5761082e6107dd565b5b828204905092915050565b5f6108448261050c565b915061084f8361050c565b9250828203905081811115610867576108666106c4565b5b92915050565b5f6040820190506108805f830185610620565b61088d60208301846105a8565b939250505056fea2646970667358221220a17df7834054bb03dfd437db0328ad861c108907e5ad3c8d348dcb0b56dfd69b64736f6c63430008220033",
					"opcodes": "PUSH1 0x80 PUSH1 0x40 MSTORE CALLVALUE DUP1 ISZERO PUSH1 0xE JUMPI PUSH0 PUSH0 REVERT JUMPDEST POP PUSH2 0x8CA DUP1 PUSH2 0x1C PUSH0 CODECOPY PUSH0 RETURN INVALID PUSH1 0x80 PUSH1 0x40 MSTORE CALLVALUE DUP1 ISZERO PUSH2 0xF JUMPI PUSH0 PUSH0 REVERT JUMPDEST POP PUSH1 0x4 CALLDATASIZE LT PUSH2 0x3F JUMPI PUSH0 CALLDATALOAD PUSH1 0xE0 SHR DUP1 PUSH4 0x56688700 EQ PUSH2 0x43 JUMPI DUP1 PUSH4 0xD66BD524 EQ PUSH2 0x5F JUMPI DUP1 PUSH4 0xDF791E50 EQ PUSH2 0x8F JUMPI JUMPDEST PUSH0 PUSH0 REVERT JUMPDEST PUSH2 0x5D PUSH1 0x4 DUP1 CALLDATASIZE SUB DUP2 ADD SWAP1 PUSH2 0x58 SWAP2 SWAP1 PUSH2 0x53F JUMP JUMPDEST PUSH2 0xBF JUMP JUMPDEST STOP JUMPDEST PUSH2 0x79 PUSH1 0x4 DUP1 CALLDATASIZE SUB DUP2 ADD SWAP1 PUSH2 0x74 SWAP2 SWAP1 PUSH2 0x57D JUMP JUMPDEST PUSH2 0x193 JUMP JUMPDEST PUSH1 0x40 MLOAD PUSH2 0x86 SWAP2 SWAP1 PUSH2 0x5B7 JUMP JUMPDEST PUSH1 0x40 MLOAD DUP1 SWAP2 SUB SWAP1 RETURN JUMPDEST PUSH2 0xA9 PUSH1 0x4 DUP1 CALLDATASIZE SUB DUP2 ADD SWAP1 PUSH2 0xA4 SWAP2 SWAP1 PUSH2 0x5D0 JUMP JUMPDEST PUSH2 0x1A7 JUMP JUMPDEST PUSH1 0x40 MLOAD PUSH2 0xB6 SWAP2 SWAP1 PUSH2 0x5B7 JUMP JUMPDEST PUSH1 0x40 MLOAD DUP1 SWAP2 SUB SWAP1 RETURN JUMPDEST DUP2 PUSH20 0xFFFFFFFFFFFFFFFFFFFFFFFFFFFFFFFFFFFFFFFF AND PUSH4 0x23B872DD CALLER ADDRESS DUP5 PUSH1 0x40 MLOAD DUP5 PUSH4 0xFFFFFFFF AND PUSH1 0xE0 SHL DUP2 MSTORE PUSH1 0x4 ADD PUSH2 0xFC SWAP4 SWAP3 SWAP2 SWAP1 PUSH2 0x62F JUMP JUMPDEST PUSH1 0x20 PUSH1 0x40 MLOAD DUP1 DUP4 SUB DUP2 PUSH0 DUP8 GAS CALL ISZERO DUP1 ISZERO PUSH2 0x118 JUMPI RETURNDATASIZE PUSH0 PUSH0 RETURNDATACOPY RETURNDATASIZE PUSH0 REVERT JUMPDEST POP POP POP POP PUSH1 0x40 MLOAD RETURNDATASIZE PUSH1 0x1F NOT PUSH1 0x1F DUP3 ADD AND DUP3 ADD DUP1 PUSH1 0x40 MSTORE POP DUP2 ADD SWAP1 PUSH2 0x13C SWAP2 SWAP1 PUSH2 0x699 JUMP JUMPDEST POP DUP1 PUSH0 PUSH0 DUP5 PUSH20 0xFFFFFFFFFFFFFFFFFFFFFFFFFFFFFFFFFFFFFFFF AND PUSH20 0xFFFFFFFFFFFFFFFFFFFFFFFFFFFFFFFFFFFFFFFF AND DUP2 MSTORE PUSH1 0x20 ADD SWAP1 DUP2 MSTORE PUSH1 0x20 ADD PUSH0 KECCAK256 PUSH0 DUP3 DUP3 SLOAD PUSH2 0x188 SWAP2 SWAP1 PUSH2 0x6F1 JUMP JUMPDEST SWAP3 POP POP DUP2 SWAP1 SSTORE POP POP POP JUMP JUMPDEST PUSH0 PUSH1 0x20 MSTORE DUP1 PUSH0 MSTORE PUSH1 0x40 PUSH0 KECCAK256 PUSH0 SWAP2 POP SWAP1 POP SLOAD DUP2 JUMP JUMPDEST PUSH0 PUSH0 PUSH0 PUSH0 DUP7 PUSH20 0xFFFFFFFFFFFFFFFFFFFFFFFFFFFFFFFFFFFFFFFF AND PUSH20 0xFFFFFFFFFFFFFFFFFFFFFFFFFFFFFFFFFFFFFFFF AND DUP2 MSTORE PUSH1 0x20 ADD SWAP1 DUP2 MSTORE PUSH1 0x20 ADD PUSH0 KECCAK256 SLOAD GT DUP1 ISZERO PUSH2 0x22E JUMPI POP PUSH0 PUSH0 PUSH0 DUP6 PUSH20 0xFFFFFFFFFFFFFFFFFFFFFFFFFFFFFFFFFFFFFFFF AND PUSH20 0xFFFFFFFFFFFFFFFFFFFFFFFFFFFFFFFFFFFFFFFF AND DUP2 MSTORE PUSH1 0x20 ADD SWAP1 DUP2 MSTORE PUSH1 0x20 ADD PUSH0 KECCAK256 SLOAD GT JUMPDEST PUSH2 0x26D JUMPI PUSH1 0x40 MLOAD PUSH32 0x8C379A000000000000000000000000000000000000000000000000000000000 DUP2 MSTORE PUSH1 0x4 ADD PUSH2 0x264 SWAP1 PUSH2 0x77E JUMP JUMPDEST PUSH1 0x40 MLOAD DUP1 SWAP2 SUB SWAP1 REVERT JUMPDEST DUP4 PUSH20 0xFFFFFFFFFFFFFFFFFFFFFFFFFFFFFFFFFFFFFFFF AND PUSH4 0x23B872DD CALLER ADDRESS DUP6 PUSH1 0x40 MLOAD DUP5 PUSH4 0xFFFFFFFF AND PUSH1 0xE0 SHL DUP2 MSTORE PUSH1 0x4 ADD PUSH2 0x2AA SWAP4 SWAP3 SWAP2 SWAP1 PUSH2 0x62F JUMP JUMPDEST PUSH1 0x20 PUSH1 0x40 MLOAD DUP1 DUP4 SUB DUP2 PUSH0 DUP8 GAS CALL ISZERO DUP1 ISZERO PUSH2 0x2C6 JUMPI RETURNDATASIZE PUSH0 PUSH0 RETURNDATACOPY RETURNDATASIZE PUSH0 REVERT JUMPDEST POP POP POP POP PUSH1 0x40 MLOAD RETURNDATASIZE PUSH1 0x1F NOT PUSH1 0x1F DUP3 ADD AND DUP3 ADD DUP1 PUSH1 0x40 MSTORE POP DUP2 ADD SWAP1 PUSH2 0x2EA SWAP2 SWAP1 PUSH2 0x699 JUMP JUMPDEST POP DUP2 PUSH0 PUSH0 DUP7 PUSH20 0xFFFFFFFFFFFFFFFFFFFFFFFFFFFFFFFFFFFFFFFF AND PUSH20 0xFFFFFFFFFFFFFFFFFFFFFFFFFFFFFFFFFFFFFFFF AND DUP2 MSTORE PUSH1 0x20 ADD SWAP1 DUP2 MSTORE PUSH1 0x20 ADD PUSH0 KECCAK256 SLOAD PUSH2 0x333 SWAP2 SWAP1 PUSH2 0x6F1 JUMP JUMPDEST PUSH0 PUSH0 DUP6 PUSH20 0xFFFFFFFFFFFFFFFFFFFFFFFFFFFFFFFFFFFFFFFF AND PUSH20 0xFFFFFFFFFFFFFFFFFFFFFFFFFFFFFFFFFFFFFFFF AND DUP2 MSTORE PUSH1 0x20 ADD SWAP1 DUP2 MSTORE PUSH1 0x20 ADD PUSH0 KECCAK256 SLOAD DUP4 PUSH2 0x37B SWAP2 SWAP1 PUSH2 0x79C JUMP JUMPDEST PUSH2 0x385 SWAP2 SWAP1 PUSH2 0x80A JUMP JUMPDEST SWAP1 POP DUP2 PUSH0 PUSH0 DUP7 PUSH20 0xFFFFFFFFFFFFFFFFFFFFFFFFFFFFFFFFFFFFFFFF AND PUSH20 0xFFFFFFFFFFFFFFFFFFFFFFFFFFFFFFFFFFFFFFFF AND DUP2 MSTORE PUSH1 0x20 ADD SWAP1 DUP2 MSTORE PUSH1 0x20 ADD PUSH0 KECCAK256 PUSH0 DUP3 DUP3 SLOAD PUSH2 0x3D2 SWAP2 SWAP1 PUSH2 0x6F1 JUMP JUMPDEST SWAP3 POP POP DUP2 SWAP1 SSTORE POP DUP1 PUSH0 PUSH0 DUP6 PUSH20 0xFFFFFFFFFFFFFFFFFFFFFFFFFFFFFFFFFFFFFFFF AND PUSH20 0xFFFFFFFFFFFFFFFFFFFFFFFFFFFFFFFFFFFFFFFF AND DUP2 MSTORE PUSH1 0x20 ADD SWAP1 DUP2 MSTORE PUSH1 0x20 ADD PUSH0 KECCAK256 PUSH0 DUP3 DUP3 SLOAD PUSH2 0x424 SWAP2 SWAP1 PUSH2 0x83A JUMP JUMPDEST SWAP3 POP POP DUP2 SWAP1 SSTORE POP DUP3 PUSH20 0xFFFFFFFFFFFFFFFFFFFFFFFFFFFFFFFFFFFFFFFF AND PUSH4 0xA9059CBB CALLER DUP4 PUSH1 0x40 MLOAD DUP4 PUSH4 0xFFFFFFFF AND PUSH1 0xE0 SHL DUP2 MSTORE PUSH1 0x4 ADD PUSH2 0x466 SWAP3 SWAP2 SWAP1 PUSH2 0x86D JUMP JUMPDEST PUSH1 0x20 PUSH1 0x40 MLOAD DUP1 DUP4 SUB DUP2 PUSH0 DUP8 GAS CALL ISZERO DUP1 ISZERO PUSH2 0x482 JUMPI RETURNDATASIZE PUSH0 PUSH0 RETURNDATACOPY RETURNDATASIZE PUSH0 REVERT JUMPDEST POP POP POP POP PUSH1 0x40 MLOAD RETURNDATASIZE PUSH1 0x1F NOT PUSH1 0x1F DUP3 ADD AND DUP3 ADD DUP1 PUSH1 0x40 MSTORE POP DUP2 ADD SWAP1 PUSH2 0x4A6 SWAP2 SWAP1 PUSH2 0x699 JUMP JUMPDEST POP SWAP4 SWAP3 POP POP POP JUMP JUMPDEST PUSH0 PUSH0 REVERT JUMPDEST PUSH0 PUSH20 0xFFFFFFFFFFFFFFFFFFFFFFFFFFFFFFFFFFFFFFFF DUP3 AND SWAP1 POP SWAP2 SWAP1 POP JUMP JUMPDEST PUSH0 PUSH2 0x4DB DUP3 PUSH2 0x4B2 JUMP JUMPDEST SWAP1 POP SWAP2 SWAP1 POP JUMP JUMPDEST PUSH2 0x4EB DUP2 PUSH2 0x4D1 JUMP JUMPDEST DUP2 EQ PUSH2 0x4F5 JUMPI PUSH0 PUSH0 REVERT JUMPDEST POP JUMP JUMPDEST PUSH0 DUP2 CALLDATALOAD SWAP1 POP PUSH2 0x506 DUP2 PUSH2 0x4E2 JUMP JUMPDEST SWAP3 SWAP2 POP POP JUMP JUMPDEST PUSH0 DUP2 SWAP1 POP SWAP2 SWAP1 POP JUMP JUMPDEST PUSH2 0x51E DUP2 PUSH2 0x50C JUMP JUMPDEST DUP2 EQ PUSH2 0x528 JUMPI PUSH0 PUSH0 REVERT JUMPDEST POP JUMP JUMPDEST PUSH0 DUP2 CALLDATALOAD SWAP1 POP PUSH2 0x539 DUP2 PUSH2 0x515 JUMP JUMPDEST SWAP3 SWAP2 POP POP JUMP JUMPDEST PUSH0 PUSH0 PUSH1 0x40 DUP4 DUP6 SUB SLT ISZERO PUSH2 0x555 JUMPI PUSH2 0x554 PUSH2 0x4AE JUMP JUMPDEST JUMPDEST PUSH0 PUSH2 0x562 DUP6 DUP3 DUP7 ADD PUSH2 0x4F8 JUMP JUMPDEST SWAP3 POP POP PUSH1 0x20 PUSH2 0x573 DUP6 DUP3 DUP7 ADD PUSH2 0x52B JUMP JUMPDEST SWAP2 POP POP SWAP3 POP SWAP3 SWAP1 POP JUMP JUMPDEST PUSH0 PUSH1 0x20 DUP3 DUP5 SUB SLT ISZERO PUSH2 0x592 JUMPI PUSH2 0x591 PUSH2 0x4AE JUMP JUMPDEST JUMPDEST PUSH0 PUSH2 0x59F DUP5 DUP3 DUP6 ADD PUSH2 0x4F8 JUMP JUMPDEST SWAP2 POP POP SWAP3 SWAP2 POP POP JUMP JUMPDEST PUSH2 0x5B1 DUP2 PUSH2 0x50C JUMP JUMPDEST DUP3 MSTORE POP POP JUMP JUMPDEST PUSH0 PUSH1 0x20 DUP3 ADD SWAP1 POP PUSH2 0x5CA PUSH0 DUP4 ADD DUP5 PUSH2 0x5A8 JUMP JUMPDEST SWAP3 SWAP2 POP POP JUMP JUMPDEST PUSH0 PUSH0 PUSH0 PUSH1 0x60 DUP5 DUP7 SUB SLT ISZERO PUSH2 0x5E7 JUMPI PUSH2 0x5E6 PUSH2 0x4AE JUMP JUMPDEST JUMPDEST PUSH0 PUSH2 0x5F4 DUP7 DUP3 DUP8 ADD PUSH2 0x4F8 JUMP JUMPDEST SWAP4 POP POP PUSH1 0x20 PUSH2 0x605 DUP7 DUP3 DUP8 ADD PUSH2 0x4F8 JUMP JUMPDEST SWAP3 POP POP PUSH1 0x40 PUSH2 0x616 DUP7 DUP3 DUP8 ADD PUSH2 0x52B JUMP JUMPDEST SWAP2 POP POP SWAP3 POP SWAP3 POP SWAP3 JUMP JUMPDEST PUSH2 0x629 DUP2 PUSH2 0x4D1 JUMP JUMPDEST DUP3 MSTORE POP POP JUMP JUMPDEST PUSH0 PUSH1 0x60 DUP3 ADD SWAP1 POP PUSH2 0x642 PUSH0 DUP4 ADD DUP7 PUSH2 0x620 JUMP JUMPDEST PUSH2 0x64F PUSH1 0x20 DUP4 ADD DUP6 PUSH2 0x620 JUMP JUMPDEST PUSH2 0x65C PUSH1 0x40 DUP4 ADD DUP5 PUSH2 0x5A8 JUMP JUMPDEST SWAP5 SWAP4 POP POP POP POP JUMP JUMPDEST PUSH0 DUP2 ISZERO ISZERO SWAP1 POP SWAP2 SWAP1 POP JUMP JUMPDEST PUSH2 0x678 DUP2 PUSH2 0x664 JUMP JUMPDEST DUP2 EQ PUSH2 0x682 JUMPI PUSH0 PUSH0 REVERT JUMPDEST POP JUMP JUMPDEST PUSH0 DUP2 MLOAD SWAP1 POP PUSH2 0x693 DUP2 PUSH2 0x66F JUMP JUMPDEST SWAP3 SWAP2 POP POP JUMP JUMPDEST PUSH0 PUSH1 0x20 DUP3 DUP5 SUB SLT ISZERO PUSH2 0x6AE JUMPI PUSH2 0x6AD PUSH2 0x4AE JUMP JUMPDEST JUMPDEST PUSH0 PUSH2 0x6BB DUP5 DUP3 DUP6 ADD PUSH2 0x685 JUMP JUMPDEST SWAP2 POP POP SWAP3 SWAP2 POP POP JUMP JUMPDEST PUSH32 0x4E487B7100000000000000000000000000000000000000000000000000000000 PUSH0 MSTORE PUSH1 0x11 PUSH1 0x4 MSTORE PUSH1 0x24 PUSH0 REVERT JUMPDEST PUSH0 PUSH2 0x6FB DUP3 PUSH2 0x50C JUMP JUMPDEST SWAP2 POP PUSH2 0x706 DUP4 PUSH2 0x50C JUMP JUMPDEST SWAP3 POP DUP3 DUP3 ADD SWAP1 POP DUP1 DUP3 GT ISZERO PUSH2 0x71E JUMPI PUSH2 0x71D PUSH2 0x6C4 JUMP JUMPDEST JUMPDEST SWAP3 SWAP2 POP POP JUMP JUMPDEST PUSH0 DUP3 DUP3 MSTORE PUSH1 0x20 DUP3 ADD SWAP1 POP SWAP3 SWAP2 POP POP JUMP JUMPDEST PUSH32 0x506F6F6C206C697175696469747920696E73756666696369656E740000000000 PUSH0 DUP3 ADD MSTORE POP JUMP JUMPDEST PUSH0 PUSH2 0x768 PUSH1 0x1B DUP4 PUSH2 0x724 JUMP JUMPDEST SWAP2 POP PUSH2 0x773 DUP3 PUSH2 0x734 JUMP JUMPDEST PUSH1 0x20 DUP3 ADD SWAP1 POP SWAP2 SWAP1 POP JUMP JUMPDEST PUSH0 PUSH1 0x20 DUP3 ADD SWAP1 POP DUP2 DUP2 SUB PUSH0 DUP4 ADD MSTORE PUSH2 0x795 DUP2 PUSH2 0x75C JUMP JUMPDEST SWAP1 POP SWAP2 SWAP1 POP JUMP JUMPDEST PUSH0 PUSH2 0x7A6 DUP3 PUSH2 0x50C JUMP JUMPDEST SWAP2 POP PUSH2 0x7B1 DUP4 PUSH2 0x50C JUMP JUMPDEST SWAP3 POP DUP3 DUP3 MUL PUSH2 0x7BF DUP2 PUSH2 0x50C JUMP JUMPDEST SWAP2 POP DUP3 DUP3 DIV DUP5 EQ DUP4 ISZERO OR PUSH2 0x7D6 JUMPI PUSH2 0x7D5 PUSH2 0x6C4 JUMP JUMPDEST JUMPDEST POP SWAP3 SWAP2 POP POP JUMP JUMPDEST PUSH32 0x4E487B7100000000000000000000000000000000000000000000000000000000 PUSH0 MSTORE PUSH1 0x12 PUSH1 0x4 MSTORE PUSH1 0x24 PUSH0 REVERT JUMPDEST PUSH0 PUSH2 0x814 DUP3 PUSH2 0x50C JUMP JUMPDEST SWAP2 POP PUSH2 0x81F DUP4 PUSH2 0x50C JUMP JUMPDEST SWAP3 POP DUP3 PUSH2 0x82F JUMPI PUSH2 0x82E PUSH2 0x7DD JUMP JUMPDEST JUMPDEST DUP3 DUP3 DIV SWAP1 POP SWAP3 SWAP2 POP POP JUMP JUMPDEST PUSH0 PUSH2 0x844 DUP3 PUSH2 0x50C JUMP JUMPDEST SWAP2 POP PUSH2 0x84F DUP4 PUSH2 0x50C JUMP JUMPDEST SWAP3 POP DUP3 DUP3 SUB SWAP1 POP DUP2 DUP2 GT ISZERO PUSH2 0x867 JUMPI PUSH2 0x866 PUSH2 0x6C4 JUMP JUMPDEST JUMPDEST SWAP3 SWAP2 POP POP JUMP JUMPDEST PUSH0 PUSH1 0x40 DUP3 ADD SWAP1 POP PUSH2 0x880 PUSH0 DUP4 ADD DUP6 PUSH2 0x620 JUMP JUMPDEST PUSH2 0x88D PUSH1 0x20 DUP4 ADD DUP5 PUSH2 0x5A8 JUMP JUMPDEST SWAP4 SWAP3 POP POP POP JUMP INVALID LOG2 PUSH5 0x6970667358 0x22 SLT KECCAK256 LOG1 PUSH30 0xF7834054BB03DFD437DB0328AD861C108907E5AD3C8D348DCB0B56DFD69B PUSH5 0x736F6C6343 STOP ADDMOD 0x22 STOP CALLER "
				},
				"gasEstimates": {
					"creation": {
						"codeDepositCost": "450000",
						"executionCost": "484",
						"totalCost": "450484"
					},
					"external": {
						"addLiquidity(address,uint256)": "infinite",
						"reserves(address)": "2801",
						"swap(address,address,uint256)": "infinite"
					}
				},
				"methodIdentifiers": {
					"addLiquidity(address,uint256)": "56688700",
					"reserves(address)": "d66bd524",
					"swap(address,address,uint256)": "df791e50"
				}
			},
			"storageLayout": {
				"storage": [
					{
						"astId": 26,
						"contract": "ArcenticMultiPool.sol:ArcenticMultiPool",
						"label": "reserves",
						"offset": 0,
						"slot": "0",
						"type": "t_mapping(t_address,t_uint256)"
					}
				],
				"types": {
					"t_address": {
						"encoding": "inplace",
						"label": "address",
						"numberOfBytes": "20"
					},
					"t_mapping(t_address,t_uint256)": {
						"encoding": "mapping",
						"key": "t_address",
						"label": "mapping(address => uint256)",
						"numberOfBytes": "32",
						"value": "t_uint256"
					},
					"t_uint256": {
						"encoding": "inplace",
						"label": "uint256",
						"numberOfBytes": "32"
					}
				}
			},
			"userdoc": {
				"kind": "user",
				"methods": {},
				"version": 1
			}
		}
	}
}